:020000040000FA
:10000000F0D2002059030000890300008B03000098
:100010008D0300008F03000091030000000000002A
:100020000000000000000000000000009902000035
:100030009503000000000000F5020000094F0000D9
:100040002D1700003D1700004D1700005D17000040
:100050006D1700007D1700008D1700009D17000030
:10006000AD170000BD170000CD170000DD17000020
:10007000ED170000FD1700000D1800001D1800000E
:100080002D1800003D1800004D1800005D180000FC
:100090006D1800007D1800008D1800009D180000EC
:1000A000AD180000BD180000CD180000DD180000DC
:1000B000ED180000FD1800000D1900001D190000CA
:1000C0002D1900003D1900004D1900005D190000B8
:1000D0006D1900007D1900008D1900009D190000A8
:1000E000AD190000BD190000CD190000DD19000098
:1000F000ED190000FD1900000D1A00001D1A000086
:100100002D1A00003D1A00004D1A00005D1A000073
:100110006D1A00007D1A00008D1A00009D1A000063
:10012000AD1A0000BD1A0000CD1A0000DD1A000053
:10013000ED1A0000FD1A00000D1B00001D1B000041
:100140002D1B00003D1B00004D1B00005D1B00002F
:100150006D1B00007D1B00008D1B00009D1B00001F
:10016000AD1B0000BD1B0000CD1B0000DD1B00000F
:10017000ED1B0000FD1B00000D1C00001D1C0000FD
:100180002D1C00003D1C00004D1C00005D1C0000EB
:100190006D1C00007D1C00008D1C00009D1C0000DB
:1001A000AD1C0000BD1C0000CD1C0000DD1C0000CB
:1001B000ED1C0000FD1C00000D1D00001D1D0000B9
:1001C0002D1D00003D1D00004D1D00005D1D0000A7
:1001D0006D1D00007D1D00008D1D00009D1D000097
:1001E000AD1D0000BD1D0000CD1D0000DD1D000087
:1001F000ED1D0000FD1D00000D1E00001D1E000075
:100200002D1E00003D1E00004D1E00005D1E000062
:100210006D1E00007D1E00008D1E00009D1E000052
:10022000AD1E0000BD1E0000CD1E0000DD1E000042
:10023000ED1E0000FD1E00000D1F00001D1F000030
:100240009B0300009B0300009B0300009B03000036
:100250009B0300009B0300009B0300009B03000026
:100260009B0300009B0300009B0300009B03000016
:100270009B0300009B0300009B0300009B03000006
:10028000DFF810D000F06AFA004800474D3900004E
:10029000AFF30080F0D200202C4B19680868B0E85A
:1002A000F04F80F30988BFF36F8F4FF0000080F3A9
:1002B000118870470000000008480068006880F35B
:1002C00008884FF0000080F3148862B661B6BFF36F
:1002D0004F8FBFF36F8F00DF00BF00BF08ED00E05E
:1002E000DFF80C00016841F470010160704700BF45
:1002F00088ED00E0EFF30980BFF36F8F134B1A68AE
:100300001EF0100F08BF20ED108A20E9F04F10609A
:1003100009B44FF0500080F31188BFF34F8FBFF343
:100320006F8F04F0F7FC4FF0000080F3118809BCD8
:1003300019680868B0E8F04F1EF0100F08BFB0EC65
:10034000108A80F30988BFF36F8F70478C80FF1F7E
:10035000EFF305807047000010484FF0770101600F
:100360000F484FF0770101600E484FF4885101604B
:100370000A484FF07601016009484FF076010160AC
:100380000948804709480047FEE7FEE7FEE7FEE729
:10039000FEE7FEE7FEE7FEE7FEE7FEE704080540AE
:1003A0000C08054000080540B92A00008102000041
:1003B00040EA01039B0703D009E008C9121F08C0E7
:1003C000042AFAD203E011F8013B00F8013B521E67
:1003D000F9D27047D2B201E000F8012B491EFBD2DE
:1003E00070470022F6E710B513460A460446194640
:1003F000FFF7F0FF204610BD00BFFEE7704700008A
:10040000BFFFDFFFFFFEFFFFFFFFFFFFFFFFFFFF5D
:10041000FFFFFFFFFFFFFFFFFFFFFFFFFFFFFFFFEC
:100420002DE9F05F0546002092469B468846064629
:10043000814640241BE0284641464746224600F0BC
:10044000E9F853465A46C01A914110D3114618464E
:10045000224600F0D0F82D1A67EB01084F462246DD
:100460000120002100F0C7F817EB00094E41201EC3
:10047000A4F10104DFDC484631462A464346BDE884
:10048000F09F2DE9F04D81EA030404F0004B21F0C8
:10049000004514464FF0000A23F0004150EA0502DF
:1004A00020D054EA01021DD0C5F30A570246C5F315
:1004B0001303C1F31300C1F30A5640F4801543F44B
:1004C0008013A7EB0608101BD64608F2FD3873EB25
:1004D000050002D308F1010801E092185B41B8F170
:1004E000000F03DA00200146BDE8F08D00204FF434
:1004F0008011064684460EE0171B73EB050705D3F3
:10050000121B63EB050306434CEA010C49084FEA52
:10051000300092185B4150EA0107EDD152EA030026
:1005200012D082EA040083EA0501084305D0101BBB
:10053000AB4106D20122002306E000224FF0004327
:1005400002E06FF0010253101AEB06004CEB085169
:1005500010EB0A0041EB0B01BDE8F04D00F0A1B833
:100560000EB540F2334102910021CDE900110A4657
:100570000B4600F0A5F803B000BD0EB540F23342C3
:1005800002920022CDE90022134600F099F803B050
:1005900000BD01F0004330B421F0004150EA0102F7
:1005A00006D00A0DA2F56072C1F31301002A02DC25
:1005B00030BC00207047440F44EAC104C100E01879
:1005C00030BC00EBC25000F035B830B50B460146E8
:1005D00000202022012409E021FA02F59D4205D3E2
:1005E00003FA02F5491B04FA02F52844151EA2F18C
:1005F0000102F1DC30BD202A04DB203A00FA02F1CE
:10060000002070479140C2F1200320FA03F3194300
:1006100090407047202A04DB203A21FA02F00021A2
:10062000704721FA02F3D040C2F120029140084302
:10063000194670470029A8BF7047401C490008BFF1
:1006400020F00100704710B4B0FA80FC00FA0CF002
:1006500050EA010404BF10BC704749B1CCF120043A
:1006600021FA04F411FA0CF118BF012121430843C7
:10067000A3EB0C01CB1D4FEA00614FEA102042BFF3
:10068000002010BC704700EBC35010440029A4BFE9
:1006900010BC7047401C490008BF20F0010010BC8E
:1006A000704710B5141E73F1000408DA401C41F1C4
:1006B000000192185B411A4301D120F0010010BDE6
:1006C0002DE9F04D92469B4611B1B1FA81F202E05C
:1006D000B0FA80F220329046FFF78DFF04460F46B5
:1006E00040EA0A0041EA0B0153465A46084313D038
:1006F000114653EA010019D0C8F140025046FFF7F5
:1007000089FF05460E46504659464246FFF773FF9D
:10071000084305D0012004E020463946BDE8F08DAD
:100720000020054346EAE0762C4337430A986305E8
:10073000E40AA0EB08000022FD0A44EA47540A300C
:1007400002D500200146E9E7010510196941DDE9FC
:10075000084500196941BDE8F04DA2E7064C074D78
:1007600006E0E06840F0010394E807009847103481
:10077000AC42F6D3FFF788FD045D0000245D000065
:100780001CB5012403F0E6FF0121084604F0D6FB66
:100790000F4908600F48022100238022CDE9001094
:1007A0000DA1104804F0BEFF04460F4803210023AA
:1007B0008022CDE900100DA10F4804F0B3FF0446DC
:1007C0000E48006804F01AF903F0EEFF1CBD0000AB
:1007D0000C80FF1F0480FF1F4C45445F5461736B06
:1007E00000000000D92A00000880FF1F5072696EC7
:1007F000745F5461736B0000112B00000080FF1FB9
:100800001FB52A492A4800F07CFA02A800F0B0FB84
:1008100000208DF80A0030208DF8090000208DF8A6
:10082000080005208DF80C0002A800F0FBFA6846CD
:1008300000F03EFA00208DF800000190019820F0B1
:100840001F0001903121019861F31020019001985F
:1008500020F0704000F180500190019820F070600D
:1008600000F180700190019820F4700000F5801074
:100870000190019820F080000190684600F0C2F8D5
:1008800000221146042001F0F7FB012211460B2043
:1008900001F0F2FB502000F033FD4FF4404000F037
:1008A00043FE052000F037FA1FBD000010221100A2
:1008B0007777770708B50021009102E00099491C7D
:1008C000009100998142F9D308BD000010B504469B
:1008D00000BF24B144F06900692800D104E040F26F
:1008E0009A5106A0FFF788FD00BF1148007820400C
:1008F00008B1012010BD0020FCE700002E2E5C2E68
:100900002E5C2E2E5C647269766572735C6863334C
:10091000325F6C6C5F6472697665725C7372635C83
:10092000686333325F6C6C5F636C6B2E6300000036
:100930003C40054070B50446002500BF0CB1012CB9
:1009400000D104E04FF49E611FA0FFF755FD00BFEA
:1009500000BF2A48008800F0010000B104E040F226
:10096000F14119A0FFF748FD00BF64B924480078A1
:1009700000F00700052801D1C54322E001202049ED
:10098000091D08701DE01E48DA300068C0F3C01071
:1009900030B94FF48051082000F0C5F9054605E054
:1009A0004FF48051012000F0BEF905464DB90020FA
:1009B0001349091D08704FF48051202000F0B3F94D
:1009C0000546284670BD00002E2E5C2E2E5C2E2E75
:1009D0005C647269766572735C686333325F6C6CF9
:1009E0005F6472697665725C7372635C68633332EC
:1009F0005F6C6C5F636C6B2E63000000FE43054010
:100A0000264005402DE9F041044614B96FF0020676
:100A10001FE100BF2079C0F3C01018B12079C0F3E6
:100A2000C01000B104E040F2C3418BA0FFF7E4FC2A
:100A300000BF00BF207900F01F00401C182805D817
:100A4000207900F01F00401C00B104E040F2C441D6
:100A500081A0FFF7D1FC00BF00BF6068C0F3082091
:100A6000401CB0F5F07F06D86068C0F30820401C39
:100A7000142800D304E040F2C54177A0FFF7BCFC86
:100A800000BF00BF0121606801EB1070102805D87D
:100A9000606801EB1070022800D304E040F2C64108
:100AA0006DA0FFF7A9FC00BF2079C0F3C01008B902
:100AB000764901E076480168207900F01F00401C6B
:100AC000B1FBF0F76068C0F30820401C00FB07F59D
:100AD00000BF7048874203D86F48874200D304E0C4
:100AE00040F2CB415CA0FFF787FC00BF00BF6B4822
:100AF000854203D84010854200D304E040F2CC4147
:100B000055A0FFF779FC00BF00BF0121606801EB31
:100B10001070B5FBF0F06249884209D80121606885
:100B200001EB1070B5FBF0F05E49884200D304E0A1
:100B300040F2CD4148A0FFF75FFC00BF00BF6068F6
:100B4000C0F30360401C102806D86068C0F303603F
:100B5000401C022800D304E040F2CE413EA0FFF743
:100B60004BFC00BF00BF6068C0F30350401C10285E
:100B700006D86068C0F30350401C022800D304E08C
:100B800040F2CF4134A0FFF737FC00BF00BF6068E0
:100B9000C0F30350401CB5FBF0F04149884209D82E
:100BA0006068C0F30350401CB5FBF0F03D4988423B
:100BB00000D304E04FF49A6127A0FFF71DFC00BFAB
:100BC00000BF6068C0F30360401CB5FBF0F034491F
:100BD000884209D86068C0F30360401CB5FBF0F0A0
:100BE0003049884200D304E040F2D1411AA0FFF717
:100BF00003FC00BF00BF2078012801D0207800B995
:100C000004E040F2D34114A0FFF7F6FB00BF00BFA1
:100C10002548008800F0010000B104E040F2D44112
:100C20000DA0FFF7E9FB00BF2079C1091F4800684C
:100C300061F3C7101D49086060680860207820B91A
:100C40000120FFF777FE064603E00020FFF772FE63
:100C500006463046BDE8F0812E2E5C2E2E5C2E2EF0
:100C60005C647269766572735C686333325F6C6C66
:100C70005F6472697665725C7372635C6863333259
:100C80005F6C6C5F636C6B2E6300000000127A0077
:100C9000ECB2002040787D0140420F0000389C1CDF
:100CA00000C2EB0BC0E1E400FE43054000410540FB
:100CB0000146002009B9C01E22E000224A604A68AD
:100CC00022F080024A604A6822F01F024A60132321
:100CD0004A6863F310224A604A6822F0704202F1C7
:100CE00080524A604A6822F0706202F180724A6063
:100CF0004A6822F4700202F580124A6001220A70EA
:100D0000704770B504460D462946204601F02CFA7E
:100D100001F06CFE70BD10B50446204601F0E4FB06
:100D200001F064FE10BDF8B505460C4600200090A9
:100D30006FF0070609E02846FFF7C8FD012801D13A
:100D4000002605E00098401C00900098A042F2D9CF
:100D500000BF3046F8BD000070B50446002500BF56
:100D60000CB1012C00D104E040F2B3311EA0FFF71A
:100D700043FB00BF00BF2948008800F0010000B11C
:100D800004E04FF46D7118A0FFF736FB00BFFCB90B
:100D90002348007800F00700032802D16FF0050512
:100DA00020E01F48DA300068C0F3C01058B91C4872
:100DB000001D007810B96FF0050513E001201849F7
:100DC0000C3108700EE0012015490C31087009E063
:100DD000002013490C3108704FF480510820FFF7B0
:100DE000A2FF0546284670BD2E2E5C2E2E5C2E2EB0
:100DF0005C647269766572735C686333325F6C6CD5
:100E00005F6472697665725C7372635C68633332C7
:100E10005F6C6C5F636C6B2E63000000FE430540EB
:100E20002640054070B5044614B96FF002057FE016
:100E300000BF2078012801D0207800B904E040F2FA
:100E400093313CA0FFF7D8FA00BF00BF607840B1F3
:100E50006078102805D06078202802D0607830288B
:100E600000D104E04FF4657132A0FFF7C5FA00BF6E
:100E700000BFA07810B1A078402800D104E040F273
:100E800095312CA0FFF7B8FA00BF00BFE0788028AA
:100E900001D0E07800B904E040F2963125A0FFF7D8
:100EA000ABFA00BF00BF2079012817D020790228B3
:100EB00014D02079032811D0207904280ED020796D
:100EC00005280BD02079062808D02079072805D0DE
:100ED0002079082802D02079092800D104E040F2C6
:100EE000973114A0FFF788FA00BF00BF1E480088A2
:100EF00000F0010000B104E04FF466710DA0FFF7AF
:100F00007BFA00BF207919490870E07861780843BE
:100F1000A1780843144912310870207820B90120C3
:100F2000FFF71AFF054603E00020FFF715FF05460F
:100F3000284670BD2E2E5C2E2E5C2E2E5C647269AF
:100F4000766572735C686333325F6C6C5F64726980
:100F50007665725C7372635C686333325F6C6C5F7E
:100F6000636C6B2E63000000FE430540A240054009
:100F70000146002009B9C01E08E001220A700022C3
:100F80008A704A708022CA7005220A717047000078
:100F90002DE9FC4704460F4690469946DDE90AA52F
:100FA0004FF0FF361048844208D01048844205D0E4
:100FB0000F48844202D00F48844208D14B46424633
:100FC00039462046CDE900A500F016F806463EB1A8
:100FD0004B46424639462046009500F0C9F8064681
:100FE0003046BDE8FC87000000D0014000D401403D
:100FF00000100240001402402DE9FF4F2DED088B38
:1010000085B082466FF00200019000BF47488245DC
:1010100008D04748824505D04648824502D0464818
:10102000824500D104E04FF4107144A0FFF7E4F9C9
:1010300000BF0E9CDDF83C90109800286ED01A98E6
:1010400000286BD0002C69D0B9F1000F66D04FEAB0
:101050008900B4FBF0F0451E002D5FD0FF2D5DD858
:101060000020691C40EB000C0423A1FB032B0CFBAC
:1010700003B301FB0031A2FB097301FB093102FB41
:1010800000184FF480700021A7FB00B308FB00306C
:1010900007FB010C22460B4658466146FFF7C0F994
:1010A0008021461A7F2E39D8109805601A9806605C
:1010B0001B9888B349004FF0000C3A46A2FB010B85
:1010C00008FB01B107FB0C18074600208022B2186C
:1010D00040EB00030021A2FB040C03FB04C302FB52
:1010E0000131CDE9020138464146FFF746FA41ECAD
:1010F0001A0BDDE90201FFF740FA53EC1A2BFFF758
:10110000C0F9FFF746FA00EE100AF7EE000A30EEDB
:10111000608A1B9880ED008A00200190019805B03C
:10112000BDEC088B04B0BDE8F08F000000D001409A
:1011300000D4014000100240001402402E2E5C2E0C
:101140002E5C2E2E5C647269766572735C68633304
:10115000325F6C6C5F6472697665725C7372635C3B
:10116000686333325F6C6C5F75736172742E6300F9
:101170002DE9FF4F2DED088B81B006468B469A4630
:101180006FF00200009000BF3248864208D032481B
:10119000864205D03148864202D03148864200D18D
:1011A00004E040F279112FA0FFF726F900BF5F4657
:1011B0000B9DBAF1000F45D0F7B3EDB307EB8700F5
:1011C0004000A900B0FBF1F0401D0A21B0FBF1F096
:1011D000441E8CB3FF2C35D8CAF80040169860B373
:1011E0000020611C40EB00024FF0040C0023A1FB27
:1011F0000C0E02FB0CE201FB032300210246A2FBC2
:10120000058C03FB05C300FB013940464946FFF747
:10121000B4F941EC1A0B3846FFF7A2F953EC1A2B3C
:10122000FFF72FF9FFF7B5F900EE100AF7EE000A05
:1012300030EE608A169801E004E001E080ED008A5B
:1012400000200090009801B0BDEC088B04B0BDE810
:10125000F08F000000D0014000D401400010024097
:10126000001402402E2E5C2E2E5C2E2E5C647269C1
:10127000766572735C686333325F6C6C5F6472694D
:101280007665725C7372635C686333325F6C6C5F4B
:1012900075736172742E630010B54FF4E13102482A
:1012A00002F004FA002010BD0010024070B50446A0
:1012B000002505E08021114801F014FF00B106E08F
:1012C000681C80B205464EF660218842F2DB00BF02
:1012D00021460A4802F0A2F9002505E0402107480E
:1012E00001F000FF00B106E0681C80B205464EF632
:1012F00060218842F2DB00BF002070BD0010024078
:1013000070B50446002500BF1D480068012800D1C3
:1013100004E040F21D111BA0FFF76EF800BF00BFF4
:10132000F02C00D804E04FF48F7116A0FFF764F89A
:1013300000BF13480830006820F0F00004F0F0010E
:1013400008430F490831086010E06D1C1A48006A14
:10135000C0F3026119480068C84044F62061B0FB40
:10136000F1F0A84202D26FF0070070BD04480830C7
:10137000006800F0F000A042E7D10020F5E700008F
:10138000000401402E2E5C2E2E5C2E2E5C647269B1
:10139000766572735C686333325F6C6C5F6472692C
:1013A0007665725C7372635C686333325F6C6C5F2A
:1013B00065666D2E6300000000400540E8B2002025
:1013C00070B504460D4600BF2CB1114820431049AA
:1013D000884200D103E084210EA0FFF70DF800BF82
:1013E00000BF0DB1012D00D103E0852109A0FFF759
:1013F00003F800BF012D05D113484068A0431249EE
:10140000486004E01048406820430F49486070BDC0
:1014100079FD0F0F2E2E5C2E2E5C2E2E5C647269D1
:10142000766572735C686333325F6C6C5F6472699B
:101430007665725C7372635C686333325F6C6C5F99
:101440006663672E63000000008004402DE9F041D0
:1014500004460F46164600BF4CB1012C07D0022CA3
:1014600005D0032C03D0042C01D0052C00D104E0BE
:1014700040F273111EA0FEF7BFFF00BF00BF17B1FF
:10148000B8B200B104E04FF4BA7119A0FEF7B4FF8E
:1014900000BF00BF0F2E03D9202E02D33B2E00D851
:1014A00004E040F2751112A0FEF7A6FF00BF00BFD6
:1014B0001C48008800F0010000B104E04FF4BB714B
:1014C0000BA0FEF799FF00BF00250DE00120A8400A
:1014D000384038B11348801D00EB841000EB8508BC
:1014E000A8F80060681CC5B2102DEFD3BDE8F081EC
:1014F0002E2E5C2E2E5C2E2E5C64726976657273C5
:101500005C686333325F6C6C5F6472697665725CD1
:101510007372635C686333325F6C6C5F6770696FB2
:101520002E630000FC3B054010B5044600BF44B1EB
:10153000B4F5804F05D0B4F5004F02D0B4F5404F5C
:1015400000D104E040F2C9110EA0FEF755FF00BF24
:1015500000BF1948008800F0010000B104E04FF41A
:10156000E57108A0FEF748FF00BF1348001F008880
:10157000C0F30D0004F4404108430F49091F0880DF
:1015800010BD00002E2E5C2E2E5C2E2E5C64726927
:10159000766572735C686333325F6C6C5F6472692A
:1015A0007665725C7372635C686333325F6C6C5F28
:1015B0006770696F2E630000FC3B054070B5044600
:1015C0000D46ACB3204600F03BF8B4F90200002809
:1015D00007DB00F01F0201219140164A430942F83F
:1015E000231000BFB4F902002946002804DB0A07D3
:1015F000130E114A135406E00A07160E0F4A00F0A4
:101600000F031B1FD65400BFB4F9020000280DDBE6
:1016100000BF00BF00F01F0201219140420992006B
:1016200002F1E022C2F8001100BF00BF00BF00BFFE
:1016300070BD000080E200E000E400E018ED00E092
:1016400070B5044600260CB9F61E4BE000BF20889A
:10165000B0F5007F00DA03E0C82123A0FEF7CCFE3E
:1016600000BF2088400900EB4000202101EB400032
:10167000B4F9021088420AD82088400900EB4000E3
:10168000252101EB4000B4F90210884206D2B4F9DA
:101690000200202802D36FF0020623E0608821496F
:1016A000042212FB00152868C0F3080040F2FF1165
:1016B000884208D120882860B4F902101A4A60686C
:1016C00042F821000EE020882968C1F30801884211
:1016D00006D1B4F90210144A606842F8210001E012
:1016E0006FF00106304670BD2E2E5C2E2E5C2E2E25
:1016F0005C647269766572735C686333325F6C6CCC
:101700005F6472697665725C7372635C68633332BE
:101710005F6C6C5F696E74657272757074732E6342
:10172000000000005C100540B883FF1F10B502499F
:101730000868804710BD0000B883FF1F10B502493C
:101740004868804710BD0000B883FF1F10B50249EC
:101750008868804710BD0000B883FF1F10B502499C
:10176000C868804710BD0000B883FF1F10B502494C
:101770000869804710BD0000B883FF1F10B50249FB
:101780004869804710BD0000B883FF1F10B50249AB
:101790008869804710BD0000B883FF1F10B502495B
:1017A000C869804710BD0000B883FF1F10B502490B
:1017B000086A804710BD0000B883FF1F10B50249BA
:1017C000486A804710BD0000B883FF1F10B502496A
:1017D000886A804710BD0000B883FF1F10B502491A
:1017E000C86A804710BD0000B883FF1F10B50249CA
:1017F000086B804710BD0000B883FF1F10B5024979
:10180000486B804710BD0000B883FF1F10B5024928
:10181000886B804710BD0000B883FF1F10B50249D8
:10182000C86B804710BD0000B883FF1F10B5024988
:10183000086C804710BD0000B883FF1F10B5024937
:10184000486C804710BD0000B883FF1F10B50249E7
:10185000886C804710BD0000B883FF1F10B5024997
:10186000C86C804710BD0000B883FF1F10B5024947
:10187000086D804710BD0000B883FF1F10B50249F6
:10188000486D804710BD0000B883FF1F10B50249A6
:10189000886D804710BD0000B883FF1F10B5024956
:1018A000C86D804710BD0000B883FF1F10B5024906
:1018B000086E804710BD0000B883FF1F10B50249B5
:1018C000486E804710BD0000B883FF1F10B5024965
:1018D000886E804710BD0000B883FF1F10B5024915
:1018E000C86E804710BD0000B883FF1F10B50249C5
:1018F000086F804710BD0000B883FF1F10B5024974
:10190000486F804710BD0000B883FF1F10B5024923
:10191000886F804710BD0000B883FF1F10B50249D3
:10192000C86F804710BD0000B883FF1F10B5024983
:10193000D1F88000804710BDB883FF1F10B5024961
:10194000D1F88400804710BDB883FF1F10B502494D
:10195000D1F88800804710BDB883FF1F10B5024939
:10196000D1F88C00804710BDB883FF1F10B5024925
:10197000D1F89000804710BDB883FF1F10B5024911
:10198000D1F89400804710BDB883FF1F10B50249FD
:10199000D1F89800804710BDB883FF1F10B50249E9
:1019A000D1F89C00804710BDB883FF1F10B50249D5
:1019B000D1F8A000804710BDB883FF1F10B50249C1
:1019C000D1F8A400804710BDB883FF1F10B50249AD
:1019D000D1F8A800804710BDB883FF1F10B5024999
:1019E000D1F8AC00804710BDB883FF1F10B5024985
:1019F000D1F8B000804710BDB883FF1F10B5024971
:101A0000D1F8B400804710BDB883FF1F10B502495C
:101A1000D1F8B800804710BDB883FF1F10B5024948
:101A2000D1F8BC00804710BDB883FF1F10B5024934
:101A3000D1F8C000804710BDB883FF1F10B5024920
:101A4000D1F8C400804710BDB883FF1F10B502490C
:101A5000D1F8C800804710BDB883FF1F10B50249F8
:101A6000D1F8CC00804710BDB883FF1F10B50249E4
:101A7000D1F8D000804710BDB883FF1F10B50249D0
:101A8000D1F8D400804710BDB883FF1F10B50249BC
:101A9000D1F8D800804710BDB883FF1F10B50249A8
:101AA000D1F8DC00804710BDB883FF1F10B5024994
:101AB000D1F8E000804710BDB883FF1F10B5024980
:101AC000D1F8E400804710BDB883FF1F10B502496C
:101AD000D1F8E800804710BDB883FF1F10B5024958
:101AE000D1F8EC00804710BDB883FF1F10B5024944
:101AF000D1F8F000804710BDB883FF1F10B5024930
:101B0000D1F8F400804710BDB883FF1F10B502491B
:101B1000D1F8F800804710BDB883FF1F10B5024907
:101B2000D1F8FC00804710BDB883FF1F10B50249F3
:101B3000D1F80001804710BDB883FF1F10B50249DE
:101B4000D1F80401804710BDB883FF1F10B50249CA
:101B5000D1F80801804710BDB883FF1F10B50249B6
:101B6000D1F80C01804710BDB883FF1F10B50249A2
:101B7000D1F81001804710BDB883FF1F10B502498E
:101B8000D1F81401804710BDB883FF1F10B502497A
:101B9000D1F81801804710BDB883FF1F10B5024966
:101BA000D1F81C01804710BDB883FF1F10B5024952
:101BB000D1F82001804710BDB883FF1F10B502493E
:101BC000D1F82401804710BDB883FF1F10B502492A
:101BD000D1F82801804710BDB883FF1F10B5024916
:101BE000D1F82C01804710BDB883FF1F10B5024902
:101BF000D1F83001804710BDB883FF1F10B50249EE
:101C0000D1F83401804710BDB883FF1F10B50249D9
:101C1000D1F83801804710BDB883FF1F10B50249C5
:101C2000D1F83C01804710BDB883FF1F10B50249B1
:101C3000D1F84001804710BDB883FF1F10B502499D
:101C4000D1F84401804710BDB883FF1F10B5024989
:101C5000D1F84801804710BDB883FF1F10B5024975
:101C6000D1F84C01804710BDB883FF1F10B5024961
:101C7000D1F85001804710BDB883FF1F10B502494D
:101C8000D1F85401804710BDB883FF1F10B5024939
:101C9000D1F85801804710BDB883FF1F10B5024925
:101CA000D1F85C01804710BDB883FF1F10B5024911
:101CB000D1F86001804710BDB883FF1F10B50249FD
:101CC000D1F86401804710BDB883FF1F10B50249E9
:101CD000D1F86801804710BDB883FF1F10B50249D5
:101CE000D1F86C01804710BDB883FF1F10B50249C1
:101CF000D1F87001804710BDB883FF1F10B50249AD
:101D0000D1F87401804710BDB883FF1F10B5024998
:101D1000D1F87801804710BDB883FF1F10B5024984
:101D2000D1F87C01804710BDB883FF1F10B5024970
:101D3000D1F88001804710BDB883FF1F10B502495C
:101D4000D1F88401804710BDB883FF1F10B5024948
:101D5000D1F88801804710BDB883FF1F10B5024934
:101D6000D1F88C01804710BDB883FF1F10B5024920
:101D7000D1F89001804710BDB883FF1F10B502490C
:101D8000D1F89401804710BDB883FF1F10B50249F8
:101D9000D1F89801804710BDB883FF1F10B50249E4
:101DA000D1F89C01804710BDB883FF1F10B50249D0
:101DB000D1F8A001804710BDB883FF1F10B50249BC
:101DC000D1F8A401804710BDB883FF1F10B50249A8
:101DD000D1F8A801804710BDB883FF1F10B5024994
:101DE000D1F8AC01804710BDB883FF1F10B5024980
:101DF000D1F8B001804710BDB883FF1F10B502496C
:101E0000D1F8B401804710BDB883FF1F10B5024957
:101E1000D1F8B801804710BDB883FF1F10B5024943
:101E2000D1F8BC01804710BDB883FF1F10B502492F
:101E3000D1F8C001804710BDB883FF1F10B502491B
:101E4000D1F8C401804710BDB883FF1F10B5024907
:101E5000D1F8C801804710BDB883FF1F10B50249F3
:101E6000D1F8CC01804710BDB883FF1F10B50249DF
:101E7000D1F8D001804710BDB883FF1F10B50249CB
:101E8000D1F8D401804710BDB883FF1F10B50249B7
:101E9000D1F8D801804710BDB883FF1F10B50249A3
:101EA000D1F8DC01804710BDB883FF1F10B502498F
:101EB000D1F8E001804710BDB883FF1F10B502497B
:101EC000D1F8E401804710BDB883FF1F10B5024967
:101ED000D1F8E801804710BDB883FF1F10B5024953
:101EE000D1F8EC01804710BDB883FF1F10B502493F
:101EF000D1F8F001804710BDB883FF1F10B502492B
:101F0000D1F8F401804710BDB883FF1F10B5024916
:101F1000D1F8F801804710BDB883FF1F10B5024902
:101F2000D1F8FC01804710BDB883FF1F10B50446EF
:101F300004F0010048B100BF40F223101A490860C4
:101F400043F21020086000BF00BF04F0020028B177
:101F500000BF16481649086100BF00BF04F0040026
:101F600030B100BF4AF201501249088000BF00BFE3
:101F700004F0100018B14AF2085000F071F804F0B3
:101F8000400018B14AF2035000F06AF804F08000F3
:101F900040B100BF77200849086007490831086050
:101FA00000BF00BF10BD0000000401400100A5A556
:101FB00000800440FC3B05400408054010B5044681
:101FC00004F0010028B100BF00201949086000BFDB
:101FD00000BF04F0020028B100BF1648164908618E
:101FE00000BF00BF04F0040030B100BF4FF4254033
:101FF0001249088000BF00BF04F0100018B14AF277
:10200000085000F01FF804F0400018B14AF20350E5
:1020100000F018F804F0800040B100BF76200849B5
:10202000086007490831086000BF00BF10BD00000C
:10203000000401400000A5A500800440FC3B0540D1
:102040000408054004490988814341F42541034AB5
:10205000A2F8FE1370470000FE4305400040054013
:10206000034909880143034AA2F8FE1370470000A0
:10207000FE430540004005402DE9F04704460F4669
:1020800090464FF0000900BF24B144F00F000F2824
:1020900000D103E0A92126A0FEF7AEF900BF00BFE2
:1020A000072F00D803E0AA2121A0FEF7A5F900BF61
:1020B00000BFB8F1070F00D803E0AB211CA0FEF76A
:1020C0009BF900BF00BF27480068772800D103E0D4
:1020D000AC2117A0FEF790F900BF24E004F0010046
:1020E000E0B14FEAC960050E281DC6B207FA05F037
:1020F00008FA06F108430721A9400722B24011431C
:1021000008400721A9400722B2401143154A121F77
:1021100012688A4310431349091F0860640809F1D3
:10212000010000F0FF09002CD8D1BDE8F0870000C5
:102130002E2E5C2E2E5C2E2E5C6472697665727378
:102140005C686333325F6C6C5F6472697665725C85
:102150007372635C686333325F6C6C5F7372616D62
:102160002E630000040805402DE9FF4105460C469A
:102170000026CA4800680390C84840680290C748D3
:1021800080680190C548C068009000BF04F0E0601E
:10219000E8B104F0E060B0F1807F18D004F0E060B6
:1021A000B0F1007F13D004F0E060B0F1407F0ED0BA
:1021B00004F0E060B0F1806F09D004F0E060B0F1AD
:1021C000A06F04D004F0E060B0F1C06F00D104E073
:1021D0004FF42E71B2A0FEF70FF900BF00BF04F05C
:1021E0007000B8B104F07000102813D004F0700033
:1021F00020280FD004F0700030280BD004F07000BD
:10220000402807D004F07000502803D004F070007C
:10221000602800D104E040F2B921A1A0FEF7ECF85B
:1022200000BF00BF04F4E020E8B104F4E020B0F502
:10223000803F18D004F4E020B0F5003F13D004F440
:10224000E020B0F5403F0ED004F4E020B0F5802F40
:1022500009D004F4E020B0F5A02F04D004F4E0206D
:10226000B0F5C02F00D104E040F2BA218CA0FEF7F7
:10227000C3F800BF00BF04F4E000E8B104F4E000DC
:10228000B0F5801F18D004F4E000B0F5001F13D0A3
:1022900004F4E000B0F5401F0ED004F4E000B0F507
:1022A000800F09D004F4E000B0F5A00F04D004F4CE
:1022B000E000B0F5C00F00D104E040F2BB2178A0EF
:1022C000FEF79AF800BF00BF04F00700B8B104F0B1
:1022D0000700012813D004F0070002280FD004F0F3
:1022E000070003280BD004F00700042807D004F0EF
:1022F0000700052803D004F00700062800D104E0F9
:102300004FF42F7166A0FEF777F800BF00BF04F40A
:10231000E060E8B104F4E060B0F5807F18D004F428
:10232000E060B0F5007F13D004F4E060B0F5407FCA
:102330000ED004F4E060B0F5806F09D004F4E060E2
:10234000B0F5A06F04D004F4E060B0F5C06F00D128
:1023500004E040F2BD2152A0FEF74EF800BF00BFDE
:1023600004F4E040E8B104F4E040B0F5805F18D038
:1023700004F4E040B0F5005F13D004F4E040B0F5A1
:10238000405F0ED004F4E040B0F5804F09D004F473
:10239000E040B0F5A04F04D004F4E040B0F5C04FE9
:1023A00000D104E040F2BE213DA0FEF725F800BFB9
:1023B00000BF4848284000B104E040F2BF2138A0E7
:1023C000FEF71AF800BF00BF4348008800F0010084
:1023D00000B104E04FF4307131A0FEF70DF800BFFA
:1023E0003E48007800F00700052823D1012600BFF1
:1023F0002A48006900F0010000B104E040F2C72162
:1024000027A0FDF7F9FF00BF354824490860C01236
:1024100048608860C86031482638006AC0F30261AD
:1024200030480068C8404CF25031B0FBF1F73846F4
:10243000FEF740FA29482638006AA84304EA050155
:1024400008432649263908620846006AC0F302613B
:1024500024480068C8404CF25031B0FBF1F73846D0
:10246000FEF728FA012E17D10C490398086002984C
:102470004860019888600098C86018482638006A4B
:10248000C0F3026117480068C8404CF25031B0FBFD
:10249000F1F73846FEF70EFABDE8FF8100800440F0
:1024A0002E2E5C2E2E5C2E2E5C6472697665727305
:1024B0005C686333325F6C6C5F6472697665725C12
:1024C0007372635C686333325F6C6C5F636C6B2E3A
:1024D0006300000077777707FE43054026400540FC
:1024E0000EFAFFFFE8B200207FB5044600254248FF
:1024F000006803904048406802903F48806801901F
:102500003D48C068009000BF4CB1012C07D0022CA0
:1025100005D0032C03D0042C01D0052C00D104E0FD
:1025200040F24E2135A0FDF767FF00BF00BF4048D5
:10253000008800F0010000B104E040F24F212FA01C
:10254000FDF75AFF00BF3B48007800F00700052860
:1025500001D0052C23D1012500BF2748006900F0D8
:10256000010000B104E040F2572124A0FDF744FF30
:1025700000BF314820490860C01248608860C860C8
:102580002C482638006AC0F302612C480068C84015
:102590004CF25031B0FBF1F63046FEF78BF925488E
:1025A000047024482638006AC0F30261234800689A
:1025B000C8404CF25031B0FBF1F63046FEF77AF9E4
:1025C000012D17D10C4903980860029848600198C2
:1025D00088600098C86017482638006AC0F3026116
:1025E00016480068C8404CF25031B0FBF1F6304656
:1025F000FEF760F97FBD0000008004402E2E5C2EA7
:102600002E5C2E2E5C647269766572735C6863332F
:10261000325F6C6C5F6472697665725C7372635C66
:10262000686333325F6C6C5F636C6B2E6300000019
:10263000FE430540264005400EFAFFFFE8B20020A9
:102640002DE9FC4704460F4690469946DDE90AA568
:102650004FF0FF361048844208D01048844205D01D
:102660000F48844202D00F48844208D14B4642466C
:1026700039462046CDE900A500F016F806463EB1E1
:102680004B46424639462046009500F0F5F806468E
:102690003046BDE8FC87000000D0014000D4014076
:1026A00000100240001402402DE9FF4F2DED088B71
:1026B0008BB007465E4B0FCB04AC0FC46FF002002B
:1026C000039000BF5B48874208D05B48874205D033
:1026D0005A48874202D05A48874200D104E040F26B
:1026E000872158A0FDF788FE00BF149DDDF85480B7
:1026F000169800287ED020980028FBD0002DF9D015
:10270000B8F1000FF6D0786900F4600400BF5CB146
:10271000B4F5001F08D0B4F5800F05D0B4F5C00F94
:1027200002D0B4F5400F00D104E040F28E2145A064
:10273000FDF762FE00BF600D04A931F8104008FBF0
:1027400004F04000B5FBF0F0A0F10109B9F1FF0F72
:1027500066D80220A0FB041200204FF0010C19EBF8
:102760000C0C40EB0003A1FB0C0E02FB0CE201FB86
:1027700003220021A0FB08A302FB083200FB012B6F
:102780004FF480710022AAFB01030BFB01310AFB0D
:1027900002112A460023CDE90001FDF741FE802108
:1027A000461A7F2E3CD81698C0F8009020980660F4
:1027B000219898B349004FF0000C5346A3FB010E3B
:1027C0000BFB01E10AFB0C1B824600208022B218A1
:1027D00040EB00030021A2FB050C03FB05C302FB39
:1027E0000131CDE9080150465946FDF7C6FE41ECDE
:1027F0001A0B00E014E0DDE90801FDF7BEFE53EC22
:102800001A2BFDF73EFEFDF7C4FE00EE100AF7EEB0
:10281000000A30EE608A219880ED008A0020039043
:1028200003980BB0BDEC088B04B0BDE8F08F00003E
:10283000F45C000000D0014000D4014000100240D0
:10284000001402402E2E5C2E2E5C2E2E5C647269CB
:10285000766572735C686333325F6C6C5F64726957
:102860007665725C7372635C686333325F6C6C5F55
:1028700075736172742E63002DE9FF4F2DED088B87
:1028800085B005469B46474B0FCB01AC0FC46FF09C
:102890000200009000BF4448854208D0434885426A
:1028A00005D04348854202D04248854200D104E029
:1028B0004FF4D97140A0FDF79FFD00BFDDF83880CF
:1028C0000F9EBBF1000F65D0B8F1000F62D0002E53
:1028D00060D0686900F4600400BF5CB1B4F5001F0B
:1028E00008D0B4F5800F05D0B4F5C00F02D0B4F510
:1028F000400F00D104E040F2BD112FA0FDF77CFD98
:1029000000BF600D01A931F8104008EB88004100BC
:1029100006FB04F04000B1FBF0F0401D0A21B0FBC3
:10292000F1F0471EFF2F35D8CBF800701A9878B316
:102930000220A0FB041200204FF0010C17EB0C0C3E
:1029400040EB0003A1FB0C0E02FB0CE201FB032297
:1029500000210346A3FB069C02FB06C200FB012AE2
:1029600048465146FDF709FE41EC1A0B4046FDF77B
:10297000F7FD53EC1A2BFDF784FDFDF70AFE00EE80
:10298000100AF7EE000A30EE608A1A9880ED008A8D
:1029900000200090009805B0BDEC088B04B0BDE8A5
:1029A000F08F0000E45C000000D0014000D4014042
:1029B00000100240001402402E2E5C2E2E5C2E2EA3
:1029C0005C647269766572735C686333325F6C6CE9
:1029D0005F6472697665725C7372635C68633332DC
:1029E0005F6C6C5F75736172742E630070B52B4DF4
:1029F0002D6805F001051DB1294D2A4E356002E014
:102A0000294D284E3560294D2D7805F00700062800
:102A100040D2DFE800F003080C11151A214D2D6893
:102A2000234E356037E0234D214E356033E04FF4BF
:102A300000451F4E35602EE01E4D1D4E35602AE0CC
:102A40004FF400451A4E356025E0184DDA352D68F3
:102A5000C5F30822154D263DD5F800512B0F134D17
:102A6000DA352D6805F01F04104D263DD5F80051CC
:102A700005F080050DB90F4901E00A4D2968651C74
:102A8000B1FBF5F5561C75435E1CB5FBF6F5084E1B
:102A9000356000E000BF00BF70BD0000840601404B
:102AA0000024F400ECB20020002D31012640054046
:102AB000E8B2002000127A0000B50648006840F431
:102AC000700004490860FFF791FF00200149803938
:102AD000086000BD88ED00E0012415E04FF47A7134
:102AE0000A48006802F0FAFC0446012C08D101F003
:102AF0001FFD00231A4619460448006802F0D6FA62
:102B00004FF4FA7001F04CFFE8E700000C80FF1F63
:102B1000012413E04FF47A710948006802F0DEFCEA
:102B20000446012C06D100231A46194604480068C1
:102B300002F0BCFA4FF4FA7001F032FFEAE700004D
:102B40000C80FF1F2DE9FC4704460F46904699462E
:102B5000DDE90AA54FF0FF361048844208D010483E
:102B6000844205D00F48844202D00F48844208D1E5
:102B70004B46424639462046CDE900A500F016F8FE
:102B800006463EB14B46424639462046009500F087
:102B9000F9F806463046BDE8FC87000000D0014049
:102BA00000D4014000100240001402402DE9FF4F04
:102BB0002DED088B87B080466FF00200039000BFB8
:102BC0005F48804508D05F48804505D05E48804515
:102BD00002D05E48804500D104E040F2F3115CA0D1
:102BE000FDF70AFC00BF109EDDF844901298002803
:102BF0007ED01C980028FBD0002EF9D0B9F1000F30
:102C0000F6D0D8F80C0000F4004008B1012000E034
:102C1000002083464FEAC900CBF102014843B6FBCE
:102C2000F0F0A0F1010ABAF1FF0F61D800210846C7
:102C30000B46DBF1020C60EB030008230022ACFB27
:102C4000031E00FB03E00CFB020300204FF0010C0D
:102C50001AEB0C0C4041A1FB0C2E03FB0CE301FB17
:102C600000310020A2FB094301FB093102FB0015E2
:102C7000280240EA146022020021D2F1FF32814191
:102C800013D24FF480710020A4FB012305FB013116
:102C900004FB0010CDE9002032460023DDE90001ED
:102CA000FDF7BEFB8021471A04E02002B0FBF6F0DE
:102CB000A0F180077F2F3BD81298C0F800A01C9885
:102CC00007601D9890B34FF4807100202246A2FB4C
:102CD00001CE05FB01E104FB001564468022BA1811
:102CE00040EB00030021A2FB060C03FB06C300E03F
:102CF0001EE002FB0131CDE9040120462946FDF723
:102D00003CFC41EC1A0BDDE90401FDF736FC53EC09
:102D10001A2BFDF7B6FBFDF73CFC00EE100AF7EEB0
:102D2000000A30EE608A1D9880ED008A0020039032
:102D3000039807B0BDEC088B04B0BDE8F08F00002D
:102D400000D0014000D401400010024000140240B5
:102D50002E2E5C2E2E5C2E2E5C647269766572734C
:102D60005C686333325F6C6C5F6472697665725C59
:102D70007372635C686333325F6C6C5F757361722E
:102D8000742E63002DE9FF4F2DED088B81B00446B2
:102D90009B466FF00200009000BF3F48844208D07D
:102DA0003E48844205D03E48844202D03D48844299
:102DB00000D104E040F23F113BA0FDF71DFB00BF36
:102DC0000A9F0B9DBBF1000F5ED0002F5CD0002D41
:102DD0005AD0E06800F4004008B1012000E0002073
:102DE0008046E800C8F10201484307EB870149002B
:102DF000B1FBF0F0401D0A21B0FBF1F0461EFF2EA2
:102E000042D8CBF800601698E0B300221046134673
:102E1000D8F1020260EB030008234FF0000CA2FB84
:102E2000031E00FB03E002FB0C0260464FF0010CA6
:102E300016EB0C0C40F100000B46A3FB0C1E02FB32
:102E40000CE203FB00220023A1FB059C02FB05C250
:102E500001FB032A48465146FDF78FFB41EC1A0B54
:102E60003846FDF77DFB53EC1A2BFDF70AFBFDF707
:102E700090FB00EE100AF7EE000A30EE608A16981A
:102E800080ED008A00200090009801B0BDEC088B16
:102E900004B0BDE8F08F000000D0014000D4014034
:102EA00000100240001402402E2E5C2E2E5C2E2EAE
:102EB0005C647269766572735C686333325F6C6CF4
:102EC0005F6472697665725C7372635C68633332E7
:102ED0005F6C6C5F75736172742E630070B504462D
:102EE0000D4600BF1848844208D01848844205D0D7
:102EF0001748844202D01748844200D104E040F2CF
:102F0000D44115A0FDF778FA00BF00BF2DB11F48CE
:102F100028431E49884200D104E040F2D5410EA06A
:102F2000FDF76AFA00BF05F00B0028B1E06805F074
:102F30000B0140EA0140E06005F4807018B1E068E0
:102F400040F48010E06070BD00D0014000D401402A
:102F500000100240001402402E2E5C2E2E5C2E2EFD
:102F60005C647269766572735C686333325F6C6C43
:102F70005F6472697665725C7372635C6863333236
:102F80005F6C6C5F75736172742E6300EB010100FE
:102F90002DE9F04104460D46164600BF1B48844209
:102FA00008D01B48844205D01A48844202D01A48EF
:102FB000844200D104E040F2AD4118A0FDF71CFAB4
:102FC00000BF00BF0EB1012E00D104E040F2AE41BF
:102FD00012A0FDF711FA00BF00BF25B145F0EF00C8
:102FE000EF2800D104E040F2AF410CA0FDF704FA55
:102FF00000BFAFB247B1012E03D1E0683843E060B3
:1030000002E0E068B843E060BDE8F08100D0014034
:1030100000D4014000100240001402402E2E5C2E0D
:103020002E5C2E2E5C647269766572735C68633305
:10303000325F6C6C5F6472697665725C7372635C3C
:10304000686333325F6C6C5F75736172742E6300FA
:103050000146044A126AC2F30213034A126822FAB2
:1030600003F0704700400540E8B2002010B5044668
:1030700000BF0B48844208D00A48844205D00A4861
:10308000844202D00948844200D104E040F28351D6
:1030900007A0FDF7B1F900BFA06900F0030010BD63
:1030A00000D0014000D40140001002400014024052
:1030B0002E2E5C2E2E5C2E2E5C64726976657273E9
:1030C0005C686333325F6C6C5F6472697665725CF6
:1030D0007372635C686333325F6C6C5F75736172CB
:1030E000742E630070B504460D4600BF1348844239
:1030F00008D01348844205D01248844202D01248B6
:10310000844200D104E040F2C34110A0FDF774F9FD
:1031100000BF00BF2DB11A4828431949884200D189
:1031200004E040F2C44109A0FDF766F900BF206841
:10313000284008B1012070BD0020FCE700D001400C
:1031400000D4014000100240001402402E2E5C2EDC
:103150002E5C2E2E5C647269766572735C686333D4
:10316000325F6C6C5F6472697665725C7372635C0B
:10317000686333325F6C6C5F75736172742E6300C9
:10318000EB01010070B504462046FFF76FFF4100D8
:10319000012000FA01F5284670BD00002DE9F0413C
:1031A000044600BF0F48844208D00F48844205D02F
:1031B0000E48844202D00E48844200D104E040F21E
:1031C00041310CA0FDF718F900BF2046FFF740FF82
:1031D00007462046FFF7D6FF0546B7FBF5F6304613
:1031E000BDE8F08100D0014000D401400010024051
:1031F000001402402E2E5C2E2E5C2E2E5C64726912
:10320000766572735C686333325F6C6C5F6472699D
:103210007665725C7372635C686333325F6C6C5F9B
:1032200075736172742E630010B5044600BF0A48BE
:10323000844208D00948844205D00948844202D01B
:103240000848844200D104E040F2F15106A0FDF7A5
:10325000D3F800BFE08810BD00D0014000D4014089
:1032600000100240001402402E2E5C2E2E5C2E2EEA
:103270005C647269766572735C686333325F6C6C30
:103280005F6472697665725C7372635C6863333223
:103290005F6C6C5F75736172742E630010B50321EF
:1032A0000648FFF71FFF012802D10448FFF7BCFFC3
:1032B0000B210248FFF712FE10BD00000010024073
:1032C00010B50348FFF7B0FFC4B200BF10BD000047
:1032D00000D001402DE9FF4704460F461646002066
:1032E00003904FF6FF70029000BF07B104E040F278
:1032F0002E612FA0FDF780F800BF00BF394884423F
:1033000008D03948844205D03848844202D0384831
:10331000844200D104E040F22F6125A0FDF76CF853
:1033200000BF2046FFF73AFF8146E06800F0807852
:10333000B8F1000F1BD1606900F02008B8F1000F50
:103340000AD102A803AB3A464946CDE90006204619
:10335000FFF7F8FB054614E002A803AB3A464946DE
:10336000CDE900062046FFF76BF9054609E002A803
:1033700003AB3A464946CDE900062046FDF708FE74
:10338000054685B90399A06861F30F20A0600298F3
:103390007F2808D8E06840F00050E0600299A068FB
:1033A00061F30600A060284604B0BDE8F087000085
:1033B0002E2E5C2E2E5C2E2E5C64726976657273E6
:1033C0005C686333325F6C6C5F6472697665725CF3
:1033D0007372635C686333325F6C6C5F75736172C8
:1033E000742E630000D0014000D401400010024060
:1033F000001402402DE9F04705460C4690466FF058
:10340000020A002C73D000BF6748854208D0674885
:10341000854205D06648854202D06648854200D183
:1034200004E040F2244164A0FCF7E6FF00BF00BFC7
:103430002068B0F5805F01D0206800B904E040F258
:1034400025415DA0FCF7D8FF00BF00BFA068B0F524
:10345000006F01D0A06800B904E040F2264156A0F8
:10346000FCF7CAFF00BF00BFA069B0F5C06F05D070
:10347000A069B0F5806F01D0A06900B904E040F206
:1034800027414DA0FCF7B8FF00BF00BF206918B16D
:103490002069B0F5805F00D104E04FF4856146A05B
:1034A000FCF7AAFF00BF00BF606918B16069B0F502
:1034B000005F00D104E040F229413FA0FCF79CFFEF
:1034C00000BF00BFE069B0F5004F01D0E06900B96E
:1034D00004E040F22A4138A0FCF78EFF00BF00BF95
:1034E000206AB0F1805F01D0206A08B905E058E099
:1034F00040F22B4130A0FCF77FFF00BF00BF606AA5
:1035000018B1606AB0F1004F00D104E040F22C41E4
:1035100029A0FCF771FF00BF00BFA06AB0F5007FD3
:1035200003D0A06AB0F5807F00D104E040F22D41C5
:1035300021A0FCF761FF00BF2169A0690843216A4F
:103540000843E1690843616A40EA0106A16820680E
:103550000843616940EA0107A06AB0F5007F02D123
:103560004FF4007000E000208146EE602F61C5F846
:103570001490206898B900BF6068032800D804E060
:1035800040F23B410CA0FCF737FF00BF6068A86128
:1035900042462846E168FFF79DFE824601E04FF073
:1035A000000A5046BDE8F08700D0014000D4014039
:1035B00000100240001402402E2E5C2E2E5C2E2E97
:1035C0005C647269766572735C686333325F6C6CDD
:1035D0005F6472697665725C7372635C68633332D0
:1035E0005F6C6C5F75736172742E630001466FF0DF
:1035F000020089B100220A604A608A604FF41652C4
:10360000CA6000220A614A618A61CA610A62C2070D
:103610004A62D20D8A6200207047000070B50446ED
:103620000D46261D00BF1048844208D00F48844232
:1036300005D00F48844202D00E48844200D104E0F5
:1036400040F202610CA0FCF7D7FE00BF00BFB5F549
:10365000007F00D204E040F2036107A0FCF7CCFE3B
:1036600000BF358070BD000000D0014000D4014093
:1036700000100240001402402E2E5C2E2E5C2E2ED6
:103680005C647269766572735C686333325F6C6C1C
:103690005F6472697665725C7372635C686333320F
:1036A0005F6C6C5F75736172742E630030B58DB0A2
:1036B00005460C4621224FF400510220FDF7C6FEBC
:1036C000202204210520FDF7C1FE01218806FDF717
:1036D00077FE02A8FFF78AFF0320039005944FF4BA
:1036E00000400990002202A92846FFF783FE08B196
:1036F00000BFFEE70020ADF802004FF49070ADF877
:1037000000000D4801900F216846FDF757FF01208A
:10371000ADF8020040F22110ADF80000074801901A
:103720000F216846FDF74AFF01222C212846FFF7AA
:103730002FFC0DB030BD00009D320000C1320000F2
:103740000FB4054B10B503A9044A029800F016F80F
:1037500010BC5DF814FB0000353900000881FF1F24
:1037600002E008C8121F08C1002AFAD170470020E1
:1037700001E001C1121F002AFBD170472DE9FF4F64
:103780008BB09A460F460546002606E025280BD04A
:1037900052460D9990476D1C761C28780028F5D16B
:1037A0000FB03046BDE8F08F0024A04601226049EA
:1037B00000E0044315F8013F203B02FA03F0084201
:1037C000F7D128782E2817D115F8010F44F00404FA
:1037D0002A280ED06FF02F022878A0F13001092995
:1037E0000AD808EB880102EB410100EB01086D1CCF
:1037F000F2E757F8048B6D1C287869283ED006DC68
:103800000028CDD063280BD0642804D136E073287B
:1038100010D075284BD052460D999047761C85E004
:1038200017F8040B8DF8000000208DF80100E94620
:10383000012003E057F8049B4FF0FF3061074FF081
:10384000000401D40AE0641C44450DDA8442FADB2A
:1038500019F804100029F6D106E0641C8442FCDB50
:1038600019F804100029F8D1264404E019F8010BD6
:1038700052460D999047641EF8D257E001CF4FF0A1
:103880000A0B002802DA40422D2102E0210504D56E
:103890002B218DF82410012103E0E10705D0202120
:1038A000F7E70DF1200908910CE00021F9E701CFBD
:1038B0004FF00A0BF9E75946FCF787FE01F1300299
:1038C00009F8012D0028F6D1ADEB090000F1200B1D
:1038D000600701D44FF00108D84502DDA8EB0B00CA
:1038E00000E000208046002406E009A85246005D62
:1038F0000D999047641C761C08988442F5DB04E01F
:10390000302052460D999047761CB8F10001A8F17D
:103910000108F5DC05E019F8010B52460D999047B6
:10392000761CBBF10001ABF1010BF4DC6D1C34E73C
:103930000928010070B504460D46E0B2FDF7B6FC5B
:1039400008B9204670BD4FF0FF30FBE71CB5FF20E3
:10395000FEF7ECFAFCF754FFFDF79EFCFF20FEF7A4
:103960002DFB0CA0FFF7ECFE01240F4801210023E2
:103970008022CDE900100DA1104801F0D3FE0446CD
:10398000012C02D101F074F902E04FF0FF301CBDB0
:1039900000BFFEE70A53797374656E20426567695C
:1039A0006E200D0A000000000080FF1F417070545F
:1039B00061736B43726561746500000081070000EC
:1039C0002DE9F04105460E461C4807681C48006872
:1039D000001D00F075FE50B91948006890F82C10D1
:1039E0000120884017490968814316480160681C16
:1039F00038B936B112480168091D134800F09EFE1F
:103A00001AE07C190E4800684460BC4207D20C489A
:103A10000168091D0D48006800F076FE0CE00848BA
:103A20000168091D0A48006800F06EFE0948006838
:103A3000844201D207480460BDE8F081A080FF1FE6
:103A40008C80FF1FA480FF1FAC86FF1F9480FF1F88
:103A50009080FF1FBC80FF1F10B5044600F07AFE67
:103A600024480068401C234908602348006840B986
:103A7000214804600846006801280DD100F0E0F9F3
:103A80000AE01E48006838B91B480068C06AE16A4D
:103A9000884201D81848046019480068401C184939
:103AA000086008460068206494F82C1001208840C3
:103AB00014490968084313490860E16A01EB810170
:103AC000114A02EB8100211D00F038FE00F06CFE6F
:103AD0000A48006868B108480068C06AE16A88421C
:103AE00007D24FF0805009490860BFF34F8FBFF3F2
:103AF0006F8F10BD9C80FF1F8C80FF1FA880FF1F51
:103B0000B880FF1FA480FF1FF885FF1F04ED00E0B1
:103B100010B500F01FFE10480068D0B90F4800F043
:103B2000E3FD0F4800F0E0FD0C480E4908600C482A
:103B30000D49086000220C210A2001F02DFA0649E7
:103B400008600846006820B108A10348006800F03A
:103B5000EBFE00F029FE10BDD080FF1FC086FF1FC6
:103B6000D486FF1FC880FF1FCC80FF1F546D725189
:103B70000000000010B516E000F0ECFD0C48C06835
:103B8000C468201D00F09CFD0A480068401E0949D9
:103B9000086009480068401E0749086000F004FEFC
:103BA000204600F05FF8044800680028E4D110BD0A
:103BB0009886FF1F9C80FF1F9880FF1F70B50446EA
:103BC0000D46206C70B1216CE0680144E160D4E9DD
:103BD0000210884201D32168E1602846226CE16826
:103BE000FCF7E6FB70BD2DE9F04104460F46154693
:103BF0004FF00008A66B206C48B9206800282CD133
:103C0000A06801F079FE80460020A06025E07DB923
:103C10003946226C6068FCF7CBFB216C6068084475
:103C20006060D4E90101884217D32068606014E025
:103C30003946226CE068FCF7BBFB216CE068411A56
:103C4000E1602168E068884203D2216CA068411AD3
:103C5000E160022D01D106B1761E701CA0634046C2
:103C6000BDE8F08110B50446206B00F0BBFD204696
:103C700000F0B8FD10BD01464A6A22B10A6B126815
:103C8000C2F1050000E00020704700000146084A2C
:103C9000126812680AB9012200E000220A600A686C
:103CA00022B9034A1268D268106800E00020704709
:103CB000C880FF1F30B54FF49633174800F0070453
:103CC0002CB1C01D20F00700134C041B1B1B024627
:103CD000124C22600024114D6C60D018083820F07E
:103CE00007000F4C206000240D4D2D686C600C4DBA
:103CF0002D682C601146441A4C60094C24680C60F5
:103D0000084D4C682C60084D4C682C604FF0004406
:103D1000064D2C6030BD0000E886FF1FDC80FF1FD1
:103D2000E480FF1FEC80FF1FE880FF1FF880FF1F6B
:103D300000BFFFF71FFF064800680128F9D94FF0C0
:103D4000805004490860BFF34F8FBFF36F8FF0E7D7
:103D5000F885FF1F04ED00E02DE9F04106460D4611
:103D600017469846069C0DB9246000E02760E6637C
:103D700025640121204601F04DF984F84C80BDE80E
:103D8000F0812DE9F05F82460E4690469B460A9FE1
:103D90000C9C4FEA8801A522206BFCF71BFBA8F1C5
:103DA0000100216B01EB800929F0070909F00700E8
:103DB00008B9012000E0002050B900BF502080F376
:103DC0001188BFF34F8FBFF36F8F00BF00BFFEE7B7
:103DD00086B1002507E0715D04F134004155705D46
:103DE00000B902E06D1C0A2DF5D300BF00213D2073
:103DF000015502E0002084F83400052F00D3042789
:103E0000E762A7640020E064201D00F07AFC04F162
:103E1000180000F076FC2461C7F10500A06164621F
:103E20000020206584F854005A465146484600F068
:103E300069FB20600B9808B10B980460BDE8F09F07
:103E400010B5002407E004EB84010F4A02EB810067
:103E500000F04AFC641C052CF5D30C4800F044FC2F
:103E60000B4800F041FC0B4800F03EFC0A4800F013
:103E70003BFC0A4800F038FC044809490860044843
:103E80000849086010BD0000F885FF1F5C86FF1F11
:103E90007086FF1F8486FF1F9886FF1FAC86FF1F5A
:103EA0009080FF1F9480FF1F10B50146164800E068
:103EB000006803688B42FBD30246436813448B427D
:103EC00004D143684C682344436001460A464B686A
:103ED00013440468A34211D10C4C03682468A34224
:103EE00008D04B680468646823444B6003681B680F
:103EF0000B6005E0054B1B680B6001E003680B607D
:103F0000884200D0016010BDDC80FF1FE480FF1FED
:103F10002DE9F04104460D4616461F464FF00008B5
:103F200065602461B5420CD8F01BA169884202D3B8
:103F30004FF0010811E0211D0948006800F0E4FB82
:103F40000BE0BE4204D2BD4202D34FF0010804E0B0
:103F5000211D0448006800F0D7FB4046BDE8F08111
:103F6000CC80FF1FC880FF1F70B5054600F0F2FB34
:103F7000A86B08B9012400E0002400F015FC2046DD
:103F800070BD70B5054600F0E5FBA86BE96B884293
:103F900001D1012400E0002400F006FC204670BDA1
:103FA000F8B505460F461A480068C068C468201D69
:103FB00000F086FB94F8280000F00400E8B1A06946
:103FC00041192B463A462046FFF7A2FFD8B1002000
:103FD00003462A4601460090204601F041FE06466F
:103FE00056B900BF502080F31188BFF34F8FBFF345
:103FF0006F8F00BF00BFFEE705E094F8280020F0B7
:10400000010084F828002046216A8847F8BD000096
:10401000C880FF1F70B586B08BE003980028FBDBDB
:10402000059C606908B9012000E0002010B9201D3E
:1040300000F046FB02A800F0DBF8054603980A28CA
:1040400075D2DFE800F009050739416306083A42F6
:1040500000BF00BF00BF00BF94F8280040F001007F
:1040600084F828000498A269811803462A4620464D
:10407000FFF74EFFF8B12046216A884794F82800E0
:1040800000F00400B8B1002000900498A169421823
:1040900000231946204601F0E3FD064656B900BF4D
:1040A000502080F31188BFF34F8FBFF36F8F00BF95
:1040B00000BFFEE700BF3BE000BF94F8280020F0FF
:1040C000010084F8280033E000BF94F8280040F095
:1040D000010084F828000498A061A06908B10120BB
:1040E00000E0002050B900BF502080F31188BFF3DA
:1040F0004F8FBFF36F8F00BF00BFFEE7A06941196C
:104100002B462A462046FFF703FF11E094F82800CB
:1041100000F0020018B9204600F064FB05E094F8B6
:10412000280020F0010084F8280001E0FFE700BF2C
:1041300000BF002203A90448006801F01BF9002811
:104140007FF46BAF06B070BDD080FF1FF8B5054699
:104150000C4600F0D7FD684600F04AF80646009885
:1041600020BB44B9B54206D801F0CCFC3146284604
:10417000FFF716FF1CE03CB10E480068006808B964
:10418000012000E000200446A91B22460A480068DE
:1041900000F0E0FB01F0B6FC50B94FF08050074949
:1041A0000860BFF34F8FBFF36F8F01E001F0AAFCEF
:1041B000F8BD0000CC80FF1FD080FF1F04ED00E0A1
:1041C00009480068006808B9012000E0002020B11B
:1041D0004FF0FF300549086005E003480068C068FB
:1041E00000680249086070479080FF1FBC80FF1F75
:1041F00070B5044601F0D6FA0546074800688542C6
:1042000004D200F00BF80120206001E000202060C3
:1042100001480560284670BDD880FF1F2DE9F8438E
:1042200034E025480068C068056823480068C06815
:10423000C468201D00F044FA2046216A884794F89B
:10424000280000F0040008B3A0694619AE4207D95F
:1042500066602461211D1848006800F055FA15E0D9
:10426000002003462A4601460090204601F0F8FC53
:10427000074657B900BF502080F31188BFF34F8F16
:10428000BFF36F8F00BF00BFFEE700BF0A480068A2
:10429000006808B9012000E000200028C1D00648CD
:1042A000D0F8008005480068034908600348C0F85A
:1042B0000080BDE8F8830000C880FF1FCC80FF1F8E
:1042C0000E480068401C08B9012000E0002050B9E9
:1042D00000BF502080F31188BFF34F8FBFF36F8F63
:1042E00000BF00BFFEE700BF502080F31188BFF37E
:1042F0004F8FBFF36F8F00BF00BFFEE7FC80FF1F33
:1043000008B500BF6846FFF7C1FC04462046009987
:10431000FFF71CFFFFF77EFEF4E770B5044600F0E0
:1043200019FA94F9455010E0606A08B9012000E0DC
:10433000002038B904F1240001F098FB18B100F016
:10434000E3FB00E003E0681E45B2002DECDC00BF9B
:10435000FF2084F8450000F027FA00F0FBF994F9FB
:10436000445010E0206908B9012000E0002048B95D
:1043700004F1100001F07AFB08B100F0C5FB681EE3
:1043800045B200E001E0002DECDC00BFFF2084F826
:10439000440000F009FA70BD2DE9F04104464FF0E9
:1043A000000800F0AFFC4948006808B9FFF782FC3C
:1043B000474800682040002870D1D4B1083404F088
:1043C0000700B0B104F00700C0F10800044404F095
:1043D000070008B9012000E0002050B900BF5020BC
:1043E00080F31188BFF34F8FBFF36F8F00BF00BF03
:1043F000FEE7002C52D03748006884424ED8364E33
:104400003046056801E02E462D686868A04202D259
:1044100028680028F7D12D48006885423ED03068D2
:1044200000F10808286830606868001B102819D956
:104430002F1907F0070008B9012000E0002050B94B
:1044400000BF502080F31188BFF34F8FBFF36F8FF1
:1044500000BF00BFFEE76868001B78606C603846EC
:10446000FFF722FD1B4968680968081A19490860A6
:104470000846006819490968884203D2154800684F
:104480001649086012496868096808436860002096
:10449000286013480068401C1149086001F032FB95
:1044A00008F0070008B9012000E0002050B900BF63
:1044B000502080F31188BFF34F8FBFF36F8F00BF81
:1044C00000BFFEE74046BDE8F0810000E480FF1F2A
:1044D000F880FF1FE880FF1FDC80FF1FEC80FF1FBC
:1044E000F080FF1F0648006830B10549096801F1F6
:1044F0004C00C96C491C016001480068704700000D
:104500008C80FF1F001F4FF080730360001F21F09D
:1045100001030360001F054B036014380260001F95
:104520006FF002030360203870470000C1420000B2
:104530003EB558A00068029057A103C9CDE900011B
:104540004FF41C715648FBF74CFF0020554908609A
:1045500013E0554800785449097801EB810202EBD9
:10456000C1014F4A02EBC1014E4A126841F82200D4
:104570004C480068401C4B4908604A4800681A28AB
:10458000E7DB49480078401E4649086045E00020C6
:104590004649086038E0434909681DF8011043485E
:1045A0000068613081420FD13E4800683D4909688A
:1045B00001EB810202EBC101394A02EBC1013B4A26
:1045C000126841F822001AE036480068401C00EBEF
:1045D000800101EBC000324901EBC000334909689A
:1045E00050F821002F49096801EB810202EBC1015B
:1045F0002B4A02EBC1012D4A126841F822002B48D8
:104600000068401C29490860284800681A28C2DB55
:1046100024480068401E234908602248006800289A
:10462000B5DA002400201F49086026E004EB84006E
:1046300000EBC4001A4901EBC00102A8194A126834
:10464000805C613851F8200017490978884200D110
:10465000002504EB840000EBC400114901EBC0010C
:1046600002A8104A1268805C613851F82000441C8E
:104670000C480068401C0B4908600A4800680C4957
:1046800009788842D2DB012529460AA0FFF758F8AD
:104690003EBD000061620000616862676400000066
:1046A0004881FF1F8480FF1F8380FF1F8880FF1FBA
:1046B0008280FF1F6A756465673D2025640D0A00CE
:1046C00001460A69D1E901309860D1E901035860D7
:1046D0005068884201D188685060002008611068E5
:1046E000401E10601068704700F1080141604FF0F3
:1046F000FF31816000F10801C160016100210160AA
:10470000704700210161704710B502460B685C1CC0
:104710000CB9106907E002F1080000E04068446845
:1047200024689C42FAD944684C604C68A160886057
:1047300041600A611468641C146010BD42684A60DC
:1047400093688B60936859609160086103685B1C93
:104750000360704700BF502080F31188BFF34F8F74
:10476000BFF36F8F00BF0E480068401C0C49086003
:1047700008460068012812D10A480068C0B208B98A
:10478000012000E0002050B900BF502080F31188C4
:10479000BFF34F8FBFF36F8F00BF00BFFEE77047BF
:1047A000FC80FF1F04ED00E00D48006850B900BF19
:1047B000502080F31188BFF34F8FBFF36F8F00BF7E
:1047C00000BFFEE706480068401E0549086008462D
:1047D000006820B9002080F3118800BF00BF704737
:1047E000FC80FF1F70B506463546002E44D0083DBC
:1047F0002C46224960680968084008B1012000E0A1
:10480000002050B900BF502080F31188BFF34F8FB4
:10481000BFF36F8F00BF00BFFEE7206808B901201B
:1048200000E0002050B900BF502080F31188BFF392
:104830004F8FBFF36F8F00BF00BFFEE70F49606867
:1048400009680840C0B12068B0B90C4960680968BF
:104850008843606000F056FA0949606809680844B6
:10486000074908602046FFF71FFB06480068401C08
:104870000449086001F046F970BD0000F880FF1F90
:10488000E880FF1FF480FF1F00204FF0E021086147
:104890008861064800684FF47A71B0FBF1F0401E61
:1048A0004FF0E0214861072008617047E8B200201E
:1048B00070B5FBF74DFD0446102C16D304F1E02033
:1048C00090F8F05315480078854201DB012000E0A4
:1048D000002050B900BF502080F31188BFF34F8FE4
:1048E000BFF36F8F00BF00BFFEE70D48006800F404
:1048F000E0600C490968884201D8012000E00020EE
:1049000050B900BF502080F31188BFF34F8FBFF321
:104910006F8F00BF00BFFEE770BD00000081FF1F6A
:104920000CED00E00481FF1F024600200BE0084B65
:1049300053F8303033B9064B43F8301003EBC00363
:104940005A6002E0401C0828F1D300BF7047000005
:10495000B885FF1F2DE9F04105460E4617462C4647
:10496000FFF7F8FE94F94400401C10B9002084F8C9
:10497000440094F94500401C10B9002084F845001B
:10498000FFF712FFA06B28B93A46314604F1240024
:1049900000F0DCF82046FFF7C0FCBDE8F081000025
:1049A00070B504460025D4B11248006808B901204A
:1049B00000E0002050B900BF502080F31188BFF301
:1049C0004F8FBFF36F8F00BF00BFFEE700F09AF973
:1049D00000212046FEF7F4FF01F094F805463DB9AA
:1049E0004FF0805004490860BFF34F8FBFF36F8FC3
:1049F00070BD0000C480FF1F04ED00E070B50546E7
:104A0000FFF7A8FE15B93048006800E028460446C4
:104A1000201DFFF755FE78B9E06A00EB80002B49B6
:104A200051F8200040B994F82C1001208840284902
:104A30000968814326480160A06A18B104F1180092
:104A4000FFF73EFE23480068401C224908601E48CC
:104A50000068844209D1211D1F48FFF76FFE1F48DF
:104A60000068401C1D49086009E01D480068401EA0
:104A70001B4908602046FFF7F5F8FFF7A1FBFFF799
:104A800093FE18480068E8B10F480068844219D1C5
:104A90001548006808B9012000E0002050B900BFA7
:104AA000502080F31188BFF34F8FBFF36F8F00BF8B
:104AB00000BFFEE74FF080500C490860BFF34F8FF6
:104AC000BFF36F8F70BD00008C80FF1FF885FF1F44
:104AD000A480FF1FB880FF1F9886FF1F9880FF1FCC
:104AE0009C80FF1FA880FF1FC480FF1F04ED00E013
:104AF0000349096801600349096841607047000083
:104B0000B480FF1FA080FF1F01200149086070478B
:104B1000B080FF1F70B504460D4654B900BF502049
:104B200080F31188BFF34F8FBFF36F8F00BF00BFBB
:104B3000FEE70548016818312046FFF7E5FD012131
:104B40002846FEF73DFF70BD8C80FF1F70B50546FF
:104B50000E46144655B900BF502080F31188BFF3AC
:104B60004F8FBFF36F8F00BF00BFFEE7064801689D
:104B700018312846FFF7E2FD0CB14FF0FF36214611
:104B80003046FEF71DFF70BD8C80FF1F2DE9F047FA
:104B900006460F4634464FF00109002E60D0E06C07
:104BA00050B900BF502080F31188BFF34F8FBFF37F
:104BB0006F8F00BF00BFFEE7A06CB84201D23D4638
:104BC00000E0A56CE06AA8424AD0E06C012847D119
:104BD00024480068844201D0012000E0002050B940
:104BE00000BF502080F31188BFF34F8FBFF36F8F4A
:104BF00000BF00BFFEE7D4F82C80E562A06900F09A
:104C0000004010B9C5F10500A06108EB8801164A03
:104C100002EB81016069884201D1012000E000209F
:104C2000F0B1201DFFF74CFD40B994F82C10012085
:104C300088400E49096881430C48016094F82C10A3
:104C40000120884009490968084308490860E16A69
:104C500001EB8101044A02EB8100211DFFF76EFD8B
:104C6000BDE8F0878C80FF1FF885FF1FA480FF1F21
:104C70001CB51D4800210B468222CDE900101BA166
:104C80001C4800F04FFD0446012C02D100F0BCFF8F
:104C90000446012C15D100BF502080F31188BFF3CA
:104CA0004F8FBFF36F8F00BF4FF0FF301249086086
:104CB00001201249086000201149086000F070F8D6
:104CC00010E0601C08B1012000E0002050B900BFD6
:104CD000502080F31188BFF34F8FBFF36F8F00BF59
:104CE00000BFFEE71CBD0000C080FF1F49444C45CB
:104CF00000000000313D0000BC80FF1FA880FF1FA6
:104D0000A080FF1F02480068401C014908607047EE
:104D1000C480FF1F1D48006818B101201C490860AD
:104D200032E000201A4908601A480068B0FA80F0A2
:104D3000C0F11F0101EB8100174A52F8200008B1B1
:104D4000012000E0002050B900BF502080F31188FE
:104D5000BFF34F8FBFF36F8F00BF00BFFEE701EBC4
:104D600081020D4B03EB820042685268426000F101
:104D700008024368934202D1426852684260426826
:104D8000D268064B1A6000BF70470000C480FF1F46
:104D9000B080FF1FA480FF1FF885FF1F8C80FF1FBE
:104DA0001CB5524800685249884201D0012000E0F9
:104DB000002050B900BF502080F31188BFF34F8FFF
:104DC000BFF36F8F00BF00BFFEE748480068484947
:104DD000491E884201D0012000E0002050B900BFE8
:104DE000502080F31188BFF34F8FBFF36F8F00BF48
:104DF00000BFFEE73F49084600780190FF200A46C1
:104E000010700846007800909DF8000000F0F00057
:104E10009DF80020904201D1012000E0002050B90F
:104E200000BF502080F31188BFF34F8FBFF36F8F07
:104E300000BF00BFFEE79DF8000000F050002E4AC2
:104E4000107007202D4A106009E02C480068401EB1
:104E50002A4A10609DF800004006000E00909DF860
:104E6000000000F080008028EFD024480068C0F1E6
:104E70000700042801D1012000E0002050B900BF44
:104E8000502080F31188BFF34F8FBFF36F8F00BFA7
:104E900000BFFEE7194800680002184A106010467B
:104EA000008800F4E0601060124A019810700F480A
:104EB0002030006840F470000C492031086008463A
:104EC000006840F070400860FFF7DEFC00200C49ED
:104ED0000860FBF705FA0B48006840F040400949BC
:104EE0000860FBF7E9F900201CBD000000ED00E0C0
:104EF00071C20F4100E400E00081FF1F0481FF1F29
:104F0000FC80FF1F34EF00E010B500BF502080F39D
:104F10001188BFF34F8FBFF36F8F00BF00F048FCC5
:104F200018B14FF080500449086000BF002080F3A2
:104F3000118800BF10BD000004ED00E070B505460B
:104F40000E460DB1012000E0002050B900BF5020F6
:104F500080F31188BFF34F8FBFF36F8F00BF00BF87
:104F6000FEE7AE4201D8012000E0002050B900BFAA
:104F7000502080F31188BFF34F8FBFF36F8F00BFB6
:104F800000BFFEE702220021284600F005F8044693
:104F900004B1A663204670BD2DE9F84305460E46D0
:104FA00090460DB1012000E0002050B900BF502014
:104FB00080F31188BFF34F8FBFF36F8F00BF00BF27
:104FC000FEE705FB06F71EB1B7FBF6F0A84201D1DC
:104FD000012000E0002050B900BF502080F311886C
:104FE000BFF34F8FBFF36F8F00BF00BFFEE707F126
:104FF0005000FFF7D1F904464CB1A14609F1500920
:1050000043464A46314628460094FEF7A5FE204610
:10501000BDE8F88370B505460E462C4654B900BF6E
:10502000502080F31188BFF34F8FBFF36F8F00BF05
:1050300000BFFEE7FFF78EFBD4E90F12206801FBEB
:105040000200A0600020A06320686060E06B401E4A
:10505000226C216800FB0211E160FF2084F844000B
:1050600084F845009EB9206908B9012000E00020BD
:10507000A8B904F1100000F0F9FC80B14FF08050A5
:1050800009490860BFF34F8FBFF36F8F07E004F14A
:105090001000FFF729FB04F12400FFF725FBFFF7C1
:1050A00083FB012070BD000004ED00E02DE9FF430B
:1050B00083B0064688461D464FF00009344654B971
:1050C00000BF502080F31188BFF34F8FBFF36F8F65
:1050D00000BF00BFFEE7B8F1000F01D1206C08B996
:1050E000012000E0002050B900BF502080F311885B
:1050F000BFF34F8FBFF36F8F00BF00BFFEE7022DDE
:1051000002D1E06B012801D1012000E0002050B95C
:1051100000BF502080F31188BFF34F8FBFF36F8F14
:1051200000BF00BFFEE700F02DFB08B9059808B9E5
:10513000012000E0002050B900BF502080F311880A
:10514000BFF34F8FBFF36F8F00BF00BFFEE700BFFD
:10515000FFF700FBA06BE16B884201D3022D28D141
:105160002A4641462046FEF73EFD0746606A08B9DA
:10517000012000E0002068B904F1240000F076FC72
:1051800088B14FF0805032490860BFF34F8FBFF3B2
:105190006F8F08E03FB14FF080502D490860BFF39A
:1051A0004F8FBFF36F8FFFF7FFFA012007B0BDE805
:1051B000F083059818B9FFF7F7FA0020F6E7B9F180
:1051C000000F04D101A8FFF793FC4FF00109FFF78E
:1051D000EBFAFFF797FDFFF7BDFA94F94400401C86
:1051E00010B9002084F8440094F94500401C10B91F
:1051F000002084F84500FFF7D7FA05A901A800F0C0
:1052000049FAF0B92046FEF7BCFEA0B104F1100047
:105210000599FFF77FFC2046FFF77FF800F072FC4E
:10522000002895D14FF0805009490860BFF34F8F97
:10523000BFF36F8F8CE72046FFF76FF800F062FC3A
:1052400086E72046FFF769F800F05CFC0020ADE738
:1052500004ED00E02DE9F84F07468B4690461E46C8
:105260003C4654B900BF502080F31188BFF34F8FE4
:10527000BFF36F8F00BF00BFFEE7BBF1000F01D18E
:10528000206C08B9012000E0002050B900BF502078
:1052900080F31188BFF34F8FBFF36F8F00BF00BF44
:1052A000FEE7022E02D1E06B012801D1012000E0CF
:1052B000002050B900BF502080F31188BFF34F8FFA
:1052C000BFF36F8F00BF00BFFEE7FFF7F1FA00BF2B
:1052D0005021EFF3118081F31188BFF34F8FBFF39B
:1052E0006F8F00BF0546A06BE16B884201D3022E91
:1052F00037D194F945A0A06B00903246594620461C
:10530000FEF771FC0AF1010088B9606A08B9012052
:1053100000E0002050B904F1240000F0A7FB28B100
:10532000B8F1000F02D00120C8F8000016E0BAF171
:105330007F0F01D0012000E0002050B900BF5020B5
:1053400080F31188BFF34F8FBFF36F8F00BF00BF93
:10535000FEE70AF1010040B284F845004FF0010970
:1053600001E04FF0000900BF85F3118800BF4846F7
:10537000BDE8F88F2DE9F74183B005460E464FF0A2
:1053800000082C4654B900BF502080F31188BFF3A9
:105390004F8FBFF36F8F00BF00BFFEE70EB9206CC9
:1053A00008B9012000E0002050B900BF502080F370
:1053B0001188BFF34F8FBFF36F8F00BF00BFFEE7B1
:1053C00000F0E0F908B9059808B9012000E00020D4
:1053D00050B900BF502080F31188BFF34F8FBFF347
:1053E0006F8F00BF00BFFEE700BFFFF7B3F9A76BE9
:1053F000F7B131462046FEF7E1FB781EA063206935
:1054000008B9012000E0002060B904F1100000F0AC
:105410002DFB38B14FF080502F490860BFF34F8FFC
:10542000BFF36F8FFFF7C0F9012006B0BDE8F08130
:10543000059818B9FFF7B8F90020F6E7B8F1000FA2
:1054400004D101A8FFF754FB4FF00108FFF7ACF9B6
:10545000FFF758FCFFF77EF994F94400401C10B99F
:10546000002084F8440094F94500401C10B9002045
:1054700084F84500FFF798F905A901A800F00AF99A
:10548000F0B92046FEF770FDA0B104F124000599A3
:10549000FFF740FB2046FEF740FF00F033FB0028FB
:1054A000A3D14FF080500C490860BFF34F8FBFF37A
:1054B0006F8F9AE72046FEF730FF00F023FB94E75A
:1054C0002046FEF72AFF00F01DFB2046FEF74CFDAC
:1054D00000288AD00020A8E704ED00E02DE9F34180
:1054E00082B005464FF000082C46002654B900BF94
:1054F000502080F31188BFF34F8FBFF36F8F00BF31
:1055000000BFFEE7206C08B9012000E0002050B980
:1055100000BF502080F31188BFF34F8FBFF36F8F10
:1055200000BF00BFFEE700F02DF908B9039808B9E5
:10553000012000E0002050B900BF502080F3118806
:10554000BFF34F8FBFF36F8F00BF00BFFEE700BFF9
:10555000FFF700F9A76BFFB1781EA063206810B9B0
:10556000FEF7C0FFA060206908B9012000E000201C
:1055700060B904F1100000F079FA38B14FF08050B2
:1055800043490860BFF34F8FBFF36F8FFFF70CF9EC
:10559000012004B0BDE8F081039898B90EB901204C
:1055A00000E0002050B900BF502080F31188BFF305
:1055B0004F8FBFF36F8F00BF00BFFEE7FFF7F4F818
:1055C0000020E6E7B8F1000F04D16846FFF790FA33
:1055D0004FF00108FFF7E8F8FFF794FBFFF7BAF880
:1055E00094F94400401C10B9002084F8440094F958
:1055F0004500401C10B9002084F84500FFF7D4F89E
:1056000003A9684600F046F840BB2046FEF7ACFC14
:10561000F0B1206838B9FFF79DF8A06800F0CAF92A
:105620000646FFF7C1F804F124000399FFF772FA68
:105630002046FEF772FE00F065FA002888D14FF090
:10564000805013490860BFF34F8FBFF36F8F7FE720
:105650002046FEF762FE00F055FA79E72046FEF795
:105660005CFE00F04FFA2046FEF77EFC0028EED0EC
:105670005EB1FFF76FF82046FEF7FDFA07463946A0
:10568000A068FFF783FAFFF78FF8002081E700009A
:1056900004ED00E070B505460C4655B900BF50203A
:1056A00080F31188BFF34F8FBFF36F8F00BF00BF30
:1056B000FEE754B900BF502080F31188BFF34F8F2D
:1056C000BFF36F8F00BF00BFFEE7FFF743F813483B
:1056D00002686868131A2068401C08B9002619E09F
:1056E0000F4928680968884206D06868904203D844
:1056F0000126002020600DE02068984207D920682C
:10570000C01A20602846FFF7F3F9002602E00020C7
:1057100020600126FFF748F8304670BDA080FF1FCB
:10572000B480FF1F2DE9FF4F85B08046894617469C
:10573000DDE912ABB800FEF72FFE064656B1582041
:10574000FEF72AFE04460CB1266304E03046FFF75C
:1057500049F800E000247CB10020CDE900ABCDE9A0
:1057600002403A4649464046089BFEF70AFB20465F
:10577000FEF772F9012501E04FF0FF35284609B028
:10578000BDE8F08F0549096809B9012005E0044921
:10579000096809B9022000E000207047A880FF1FB7
:1057A000C480FF1F0149086870470000A080FF1FE8
:1057B0002DE9F0414FF000084448006800287CD1F2
:1057C00043480068451C4248056015BB41480068D5
:1057D000006808B9012000E0002050B900BF502047
:1057E00080F31188BFF34F8FBFF36F8F00BF00BFEF
:1057F000FEE7384807683848006836490860364888
:10580000076036480068401C34490860FEF7D8FC41
:1058100000BF3348006885423CD300BF2D48006874
:10582000006808B9012000E0002020B14FF0FF30EF
:105830002B4908602DE027480068C068C468666886
:10584000B54202D22648066023E0201DFEF738FF4D
:10585000A06A18B104F11800FEF732FF94F82C107A
:10586000012088401F49096808431E490860E16A11
:1058700001EB81011C4A02EB8100211DFEF75EFF56
:105880001A49E06A0968C96A8842C7D34FF001081B
:10589000C4E700BF15480068C06A00EB80001249E9
:1058A00051F82000012801D94FF001081048006884
:1058B00008B14FF0010805E0FFE70E480068401C02
:1058C0000C4908604046BDE8F0810000C480FF1F1D
:1058D000A080FF1F9080FF1F9480FF1FB480FF1FD8
:1058E000BC80FF1FA480FF1FF885FF1F8C80FF1F57
:1058F000B080FF1FAC80FF1F70B505462C46002608
:10590000002D4ED028480068844201D1012000E0DB
:10591000002050B900BF502080F31188BFF34F8F93
:10592000BFF36F8F00BF00BFFEE7E06C50B900BF50
:10593000502080F31188BFF34F8FBFF36F8F00BFEC
:1059400000BFFEE7E06C401EE064A16CE06A8842A4
:1059500027D0E06C28BB201DFEF7B2FE40B994F8BA
:105960002C10012088401149096881430F480160CB
:10597000A06CE062E06AC0F10500A06194F82C1010
:105980000120884009490968084308490860E16A1C
:1059900001EB8101064A02EB8100211DFEF7CEFEDC
:1059A0000126304670BD00008C80FF1FA480FF1FC1
:1059B000F885FF1F70B505462C460026002D4DD0FA
:1059C0002749E06A0968C96A884240D2A06900F0A4
:1059D000004028B922480068C06AC0F10500A061F3
:1059E000E16A01EB81011F4A02EB81016069884293
:1059F00001D1012000E0002018B3201DFEF760FE59
:105A000040B994F82C100120884017490968814357
:105A10001548016012480068C06AE06294F82C10D2
:105A2000012088401049096808430F490860E16A6D
:105A300001EB81010B4A02EB8100211DFEF77EFE86
:105A400003E007480068C06AE062012606E00449F6
:105A5000A06C0968C96A884200D20126304670BD30
:105A60008C80FF1FF885FF1FA480FF1F70B50646BE
:105A7000F068C46854B900BF502080F31188BFF3A8
:105A80004F8FBFF36F8F00BF00BFFEE704F1180018
:105A9000FEF716FE15480068A8B9201DFEF710FE97
:105AA00094F82C10012088401149096808431049D6
:105AB0000860E16A01EB81010E4A02EB8100211DC1
:105AC000FEF73CFE04E004F118010B48FEF736FE39
:105AD0000A49E06A0968C96A884204D90125012097
:105AE0000749086000E00025284670BDC480FF1FFC
:105AF000A480FF1FF885FF1F8486FF1F8C80FF1F77
:105B0000B080FF1F70B5002400263648006850B9E9
:105B100000BF502080F31188BFF34F8FBFF36F8F0A
:105B200000BF00BFFEE7FEF715FE2E480068401ECE
:105B30002C4908600846006800284FD12A480068B0
:105B400000284BD024E02948C068C46804F118003C
:105B5000FEF7B6FD201DFEF7B3FD94F82C100120D2
:105B6000884023490968084321490860E16A01EB3C
:105B70008101204A02EB8100211DFEF7DFFD1E4955
:105B8000E06A0968C96A884202D301201B4908609B
:105B90001648006808B9012000E000200028D2D093
:105BA0000CB1FEF70DFB1648056865B100BFFFF7A5
:105BB000FFFD10B10120114908606D1E002DF6D1C6
:105BC00000200F4908600D48006838B101263007F1
:105BD0000C490860BFF34F8FBFF36F8FFEF7E4FDF2
:105BE000304670BDC480FF1F9C80FF1F8486FF1F4E
:105BF000A480FF1FF885FF1F8C80FF1FB080FF1F50
:105C0000AC80FF1F04ED00E01CB50024FDF780FF11
:105C10000E48006858B10E48022100234FF48272EA
:105C2000CDE900100BA10D48FFF77CFD044654B9E7
:105C300000BF502080F31188BFF34F8FBFF36F8FE9
:105C400000BF00BFFEE720461CBD0000D080FF1F44
:105C5000D480FF1F546D722053766300014300000F
:105C60002DE9FE4304460D4616461F46DDF8288002
:105C70004FF0000954B900BF502080F31188BFF3E2
:105C80004F8FBFF36F8F00BF00BFFEE7144800685F
:105C900010B3009501960294062D15DAFFF772FDF8
:105CA000022808D10023424669460D480068FFF7E4
:105CB000FDF9814610E000231A466946084800684D
:105CC000FFF7F4F9814607E000233A4669460448A5
:105CD0000068FFF7BFFA81464846BDE8FE83000032
:105CE000D080FF1F200040005D008000BA0000014E
:105CF00074010002200040005D008000BA00000135
:105D000074010002245D00000080FF1F0C010000F0
:105D100060370000305E00000C81FF1FE45101007D
:105D20006E370000000000000000000000000000CE
:105D30000000000061626361626300000000000017
:105D40000000000000000000000000000000000053
:105D50000000000000000000000000000000000043
:105D6000000000000000616263000000000000000D
:105D70000000000000000000000000000000000023
:105D80000000000000000000000000000000000013
:105D90000000000000000000000000006165696F65
:105DA000754145494F550205000000000000000004
:105DB00000000000000000000000000000000000E3
:105DC00000000000000000000000000000000000D3
:105DD00000000000000000000000000000000000C3
:105DE00000000000000000000000000000000000B3
:105DF00000000000000000000000000000000000A3
:105E00000000000000000000000000000000000092
:105E10000000000000000000000000000000000082
:105E2000AAAAAAAA000000000000000000000000CA
:040000050000028174
:00000001FF
