Component: ARM Compiler 5.06 update 7 (build 960) Tool: armlink [4d3601]

==============================================================================

Section Cross References

    startup_hc32f460.o(RESET) refers to startup_hc32f460.o(STACK) for __initial_sp
    startup_hc32f460.o(RESET) refers to startup_hc32f460.o(.text) for Reset_Handler
    startup_hc32f460.o(RESET) refers to port.o(.emb_text) for vPortSVCHandler
    startup_hc32f460.o(RESET) refers to port.o(i.xPortSysTickHandler) for xPortSysTickHandler
    startup_hc32f460.o(RESET) refers to hc32_ll_interrupts.o(i.IRQ000_Handler) for IRQ000_Handler
    startup_hc32f460.o(RESET) refers to hc32_ll_interrupts.o(i.IRQ001_Handler) for IRQ001_Handler
    startup_hc32f460.o(RESET) refers to hc32_ll_interrupts.o(i.IRQ002_Handler) for IRQ002_Handler
    startup_hc32f460.o(RESET) refers to hc32_ll_interrupts.o(i.IRQ003_Handler) for IRQ003_Handler
    startup_hc32f460.o(RESET) refers to hc32_ll_interrupts.o(i.IRQ004_Handler) for IRQ004_Handler
    startup_hc32f460.o(RESET) refers to hc32_ll_interrupts.o(i.IRQ005_Handler) for IRQ005_Handler
    startup_hc32f460.o(RESET) refers to hc32_ll_interrupts.o(i.IRQ006_Handler) for IRQ006_Handler
    startup_hc32f460.o(RESET) refers to hc32_ll_interrupts.o(i.IRQ007_Handler) for IRQ007_Handler
    startup_hc32f460.o(RESET) refers to hc32_ll_interrupts.o(i.IRQ008_Handler) for IRQ008_Handler
    startup_hc32f460.o(RESET) refers to hc32_ll_interrupts.o(i.IRQ009_Handler) for IRQ009_Handler
    startup_hc32f460.o(RESET) refers to hc32_ll_interrupts.o(i.IRQ010_Handler) for IRQ010_Handler
    startup_hc32f460.o(RESET) refers to hc32_ll_interrupts.o(i.IRQ011_Handler) for IRQ011_Handler
    startup_hc32f460.o(RESET) refers to hc32_ll_interrupts.o(i.IRQ012_Handler) for IRQ012_Handler
    startup_hc32f460.o(RESET) refers to hc32_ll_interrupts.o(i.IRQ013_Handler) for IRQ013_Handler
==============================================================================

Removing Unused input sections from the image.

    Removing startup_hc32f460.o(HEAP), (8192 bytes).
    Removing system_hc32f460.o(.rev16_text), (4 bytes).
    Removing system_hc32f460.o(.revsh_text), (4 bytes).
    Removing system_hc32f460.o(.rrx_text), (6 bytes).
    Removing main.o(.rev16_text), (4 bytes).
    Removing main.o(.revsh_text), (4 bytes).
    Removing main.o(.rrx_text), (6 bytes).
    Removing app_tast.o(.rev16_text), (4 bytes).
    Removing app_tast.o(.revsh_text), (4 bytes).
    Removing app_tast.o(.rrx_text), (6 bytes).
    Removing bsp_init.o(.rev16_text), (4 bytes).
    Removing bsp_init.o(.revsh_text), (4 bytes).
    Removing bsp_init.o(.rrx_text), (6 bytes).
    Removing test.o(.rev16_text), (4 bytes).
    Removing test.o(.revsh_text), (4 bytes).
    Removing test.o(.rrx_text), (6 bytes).
    Removing test.o(i.LED_Init), (36 bytes).
    Removing test.o(i.addTwoNumbers), (158 bytes).
==============================================================================

Image Symbol Table

    Local Symbols

    Symbol Name                              Value     Ov Type        Size  Object(Section)

    RESET                                    0x00000000   Section      640  startup_hc32f460.o(RESET)
    ../clib/microlib/division.c              0x00000000   Number         0  uldiv.o ABSOLUTE
    ../clib/microlib/division.c              0x00000000   Number         0  uidiv.o ABSOLUTE
    ../clib/microlib/init/entry.s            0x00000000   Number         0  entry10b.o ABSOLUTE
    ../clib/microlib/init/entry.s            0x00000000   Number         0  entry.o ABSOLUTE
    ../clib/microlib/init/entry.s            0x00000000   Number         0  entry11a.o ABSOLUTE
    ../clib/microlib/init/entry.s            0x00000000   Number         0  entry9b.o ABSOLUTE
    ../clib/microlib/init/entry.s            0x00000000   Number         0  entry11b.o ABSOLUTE
    ../clib/microlib/init/entry.s            0x00000000   Number         0  entry12a.o ABSOLUTE
    ../clib/microlib/init/entry.s            0x00000000   Number         0  entry2.o ABSOLUTE
    ../clib/microlib/init/entry.s            0x00000000   Number         0  entry9a.o ABSOLUTE
    ../clib/microlib/init/entry.s            0x00000000   Number         0  entry7a.o ABSOLUTE
    ../clib/microlib/init/entry.s            0x00000000   Number         0  entry8b.o ABSOLUTE
    ../clib/microlib/init/entry.s            0x00000000   Number         0  entry8a.o ABSOLUTE
    ../clib/microlib/init/entry.s            0x00000000   Number         0  entry12b.o ABSOLUTE
    ../clib/microlib/init/entry.s            0x00000000   Number         0  entry5.o ABSOLUTE
    ../clib/microlib/init/entry.s            0x00000000   Number         0  entry7b.o ABSOLUTE
    ../clib/microlib/init/entry.s            0x00000000   Number         0  entry10a.o ABSOLUTE
    ../clib/microlib/longlong.c              0x00000000   Number         0  llshl.o ABSOLUTE
    ../clib/microlib/longlong.c              0x00000000   Number         0  llushr.o ABSOLUTE
    ../clib/microlib/longlong.c              0x00000000   Number         0  llsshr.o ABSOLUTE
    ../clib/microlib/malloc/malloc.c         0x00000000   Number         0  malloc.o ABSOLUTE
    ../clib/microlib/malloc/malloc.c         0x00000000   Number         0  malloca.o ABSOLUTE
    ../clib/microlib/malloc/malloc.c         0x00000000   Number         0  mallocr.o ABSOLUTE
    ../clib/microlib/malloc/malloc.c         0x00000000   Number         0  mallocra.o ABSOLUTE
    ../clib/microlib/malloc/mvars.c          0x00000000   Number         0  mvars.o ABSOLUTE
    ../clib/microlib/printf/printf.c         0x00000000   Number         0  printf3.o ABSOLUTE
    ../clib/microlib/printf/printf.c         0x00000000   Number         0  printf4.o ABSOLUTE
    ../clib/microlib/printf/printf.c         0x00000000   Number         0  printf2.o ABSOLUTE
    ../clib/microlib/printf/printf.c         0x00000000   Number         0  printf5.o ABSOLUTE
    ../clib/microlib/printf/printf.c         0x00000000   Number         0  printf8.o ABSOLUTE
    ../clib/microlib/printf/printf.c         0x00000000   Number         0  printfa.o ABSOLUTE
    ../clib/microlib/printf/printf.c         0x00000000   Number         0  printfb.o ABSOLUTE
    ../clib/microlib/printf/printf.c         0x00000000   Number         0  printf6.o ABSOLUTE
    ../clib/microlib/printf/printf.c         0x00000000   Number         0  printf7.o ABSOLUTE
    ../clib/microlib/printf/printf.c         0x00000000   Number         0  printf1.o ABSOLUTE
    ../clib/microlib/printf/printf.c         0x00000000   Number         0  printf0.o ABSOLUTE
    ../clib/microlib/printf/stubs.s          0x00000000   Number         0  stubs.o ABSOLUTE
    ../clib/microlib/stdio/streams.c         0x00000000   Number         0  stdout.o ABSOLUTE
    ../clib/microlib/string/memcpy.c         0x00000000   Number         0  memcpyb.o ABSOLUTE
    ../clib/microlib/string/memcpy.c         0x00000000   Number         0  memcpya.o ABSOLUTE
    ../clib/microlib/string/memset.c         0x00000000   Number         0  memseta.o ABSOLUTE
    ../clib/microlib/string/memset.c         0x00000000   Number         0  memset.o ABSOLUTE
    ../clib/microlib/string/strcmp.c         0x00000000   Number         0  strcmp.o ABSOLUTE
    ../clib/microlib/string/strlen.c         0x00000000   Number         0  strlen.o ABSOLUTE
    ../clib/microlib/string/strncmp.c        0x00000000   Number         0  strncmp.o ABSOLUTE
    ../clib/microlib/stubs.s                 0x00000000   Number         0  iusefp.o ABSOLUTE
    ../fplib/microlib/d2f.c                  0x00000000   Number         0  d2f.o ABSOLUTE
    ../fplib/microlib/fpadd.c                0x00000000   Number         0  dadd.o ABSOLUTE
    ../fplib/microlib/fpdiv.c                0x00000000   Number         0  ddiv.o ABSOLUTE
    ../fplib/microlib/fpepilogue.c           0x00000000   Number         0  depilogue.o ABSOLUTE
    ../fplib/microlib/fpepilogue.c           0x00000000   Number         0  fepilogue.o ABSOLUTE
    ../fplib/microlib/fpfix.c                0x00000000   Number         0  dfixul.o ABSOLUTE
    ../fplib/microlib/fpflt.c                0x00000000   Number         0  dfltul.o ABSOLUTE
    ../fplib/microlib/fpflt.c                0x00000000   Number         0  dfltui.o ABSOLUTE
    ../fplib/microlib/fpmul.c                0x00000000   Number         0  dmul.o ABSOLUTE
    ..\..\..\drivers\cmsis\Device\HDSC\hc32f4xx\Source\system_hc32f460.c 0x00000000   Number         0  system_hc32f460.o ABSOLUTE
    ..\..\..\drivers\hc32_ll_driver\src\hc32_ll.c 0x00000000   Number         0  hc32_ll.o ABSOLUTE
    ..\..\..\drivers\hc32_ll_driver\src\hc32_ll_clk.c 0x00000000   Number         0  hc32_ll_clk.o ABSOLUTE
    ..\..\..\drivers\hc32_ll_driver\src\hc32_ll_efm.c 0x00000000   Number         0  hc32_ll_efm.o ABSOLUTE
    ..\..\..\drivers\hc32_ll_driver\src\hc32_ll_fcg.c 0x00000000   Number         0  hc32_ll_fcg.o ABSOLUTE
    ..\..\..\drivers\hc32_ll_driver\src\hc32_ll_gpio.c 0x00000000   Number         0  hc32_ll_gpio.o ABSOLUTE
    ..\..\..\drivers\hc32_ll_driver\src\hc32_ll_icg.c 0x00000000   Number         0  hc32_ll_icg.o ABSOLUTE
    ..\..\..\drivers\hc32_ll_driver\src\hc32_ll_interrupts.c 0x00000000   Number         0  hc32_ll_interrupts.o ABSOLUTE
    ..\..\..\drivers\hc32_ll_driver\src\hc32_ll_sram.c 0x00000000   Number         0  hc32_ll_sram.o ABSOLUTE
    ..\..\..\drivers\hc32_ll_driver\src\hc32_ll_usart.c 0x00000000   Number         0  hc32_ll_usart.o ABSOLUTE
    ..\..\..\drivers\hc32_ll_driver\src\hc32_ll_utility.c 0x00000000   Number         0  hc32_ll_utility.o ABSOLUTE
    ..\..\..\rtos_source\freertos\MemMang\heap_4.c 0x00000000   Number         0  heap_4.o ABSOLUTE
    ..\..\..\rtos_source\freertos\RVDS\ARM_CM4F\port.c 0x00000000   Number         0  port.o ABSOLUTE
    ..\..\..\rtos_source\freertos\croutine.c 0x00000000   Number         0  croutine.o ABSOLUTE
    ..\..\..\rtos_source\freertos\event_groups.c 0x00000000   Number         0  event_groups.o ABSOLUTE
    ..\..\..\rtos_source\freertos\list.c     0x00000000   Number         0  list.o ABSOLUTE
    ..\..\..\rtos_source\freertos\queue.c    0x00000000   Number         0  queue.o ABSOLUTE
    ..\..\..\rtos_source\freertos\stream_buffer.c 0x00000000   Number         0  stream_buffer.o ABSOLUTE
    ..\..\..\rtos_source\freertos\tasks.c    0x00000000   Number         0  tasks.o ABSOLUTE
    ..\..\..\rtos_source\freertos\timers.c   0x00000000   Number         0  timers.o ABSOLUTE
    ..\\..\\..\\drivers\\cmsis\\Device\\HDSC\\hc32f4xx\\Source\\system_hc32f460.c 0x00000000   Number         0  system_hc32f460.o ABSOLUTE
    ..\\..\\..\\drivers\\hc32_ll_driver\\src\\hc32_ll.c 0x00000000   Number         0  hc32_ll.o ABSOLUTE
    ..\\..\\..\\drivers\\hc32_ll_driver\\src\\hc32_ll_clk.c 0x00000000   Number         0  hc32_ll_clk.o ABSOLUTE
    ..\\..\\..\\drivers\\hc32_ll_driver\\src\\hc32_ll_efm.c 0x00000000   Number         0  hc32_ll_efm.o ABSOLUTE
    ..\\..\\..\\drivers\\hc32_ll_driver\\src\\hc32_ll_fcg.c 0x00000000   Number         0  hc32_ll_fcg.o ABSOLUTE
    ..\\..\\..\\drivers\\hc32_ll_driver\\src\\hc32_ll_gpio.c 0x00000000   Number         0  hc32_ll_gpio.o ABSOLUTE
    ..\\..\\..\\drivers\\hc32_ll_driver\\src\\hc32_ll_icg.c 0x00000000   Number         0  hc32_ll_icg.o ABSOLUTE
    ..\\..\\..\\drivers\\hc32_ll_driver\\src\\hc32_ll_interrupts.c 0x00000000   Number         0  hc32_ll_interrupts.o ABSOLUTE
    ..\\..\\..\\drivers\\hc32_ll_driver\\src\\hc32_ll_sram.c 0x00000000   Number         0  hc32_ll_sram.o ABSOLUTE
    ..\\..\\..\\drivers\\hc32_ll_driver\\src\\hc32_ll_usart.c 0x00000000   Number         0  hc32_ll_usart.o ABSOLUTE
    ..\\..\\..\\drivers\\hc32_ll_driver\\src\\hc32_ll_utility.c 0x00000000   Number         0  hc32_ll_utility.o ABSOLUTE
    ..\\..\\..\\rtos_source\\freertos\\RVDS\\ARM_CM4F\\port.c 0x00000000   Number         0  port.o ABSOLUTE
    ..\\source\\app_tast.c                   0x00000000   Number         0  app_tast.o ABSOLUTE
    ..\\source\\bsp_init.c                   0x00000000   Number         0  bsp_init.o ABSOLUTE
    ..\\source\\main.c                       0x00000000   Number         0  main.o ABSOLUTE
    ..\\source\\test.c                       0x00000000   Number         0  test.o ABSOLUTE
    ..\source\app_tast.c                     0x00000000   Number         0  app_tast.o ABSOLUTE
    ..\source\bsp_init.c                     0x00000000   Number         0  bsp_init.o ABSOLUTE
    ..\source\main.c                         0x00000000   Number         0  main.o ABSOLUTE
    ..\source\test.c                         0x00000000   Number         0  test.o ABSOLUTE
    cdrcmple.s                               0x00000000   Number         0  cdrcmple.o ABSOLUTE
    dc.s                                     0x00000000   Number         0  dc.o ABSOLUTE
    handlers.s                               0x00000000   Number         0  handlers.o ABSOLUTE
    init.s                                   0x00000000   Number         0  init.o ABSOLUTE
    startup_hc32f460.s                       0x00000000   Number         0  startup_hc32f460.o ABSOLUTE
    .ARM.Collect$$$$00000000                 0x00000280   Section        0  entry.o(.ARM.Collect$$$$00000000)
    .ARM.Collect$$$$00000001                 0x00000280   Section        4  entry2.o(.ARM.Collect$$$$00000001)
    .ARM.Collect$$$$00000004                 0x00000284   Section        4  entry5.o(.ARM.Collect$$$$00000004)
    .ARM.Collect$$$$00000008                 0x00000288   Section        0  entry7b.o(.ARM.Collect$$$$00000008)
    .ARM.Collect$$$$0000000A                 0x00000288   Section        0  entry8b.o(.ARM.Collect$$$$0000000A)
    .ARM.Collect$$$$0000000B                 0x00000288   Section        8  entry9a.o(.ARM.Collect$$$$0000000B)
    .ARM.Collect$$$$0000000E                 0x00000290   Section        4  entry12b.o(.ARM.Collect$$$$0000000E)
    .ARM.Collect$$$$0000000F                 0x00000294   Section        0  entry10a.o(.ARM.Collect$$$$0000000F)
    .ARM.Collect$$$$00000011                 0x00000294   Section        0  entry11a.o(.ARM.Collect$$$$00000011)
    .ARM.Collect$$$$00002712                 0x00000294   Section        4  entry2.o(.ARM.Collect$$$$00002712)
    __lit__00000000                          0x00000294   Data           4  entry2.o(.ARM.Collect$$$$00002712)
    .emb_text                                0x00000298   Section      190  port.o(.emb_text)
    $v0                                      0x00000298   Number         0  port.o(.emb_text)
    .text                                    0x00000358   Section       88  startup_hc32f460.o(.text)
    $v0                                      0x00000358   Number         0  startup_hc32f460.o(.text)
    .text                                    0x000003b0   Section        0  memcpya.o(.text)
    .text                                    0x000003d4   Section        0  memseta.o(.text)
    .text                                    0x000003f8   Section        0  iusefp.o(.text)
    i.DDL_AssertHandler                      0x000003f8   Section        0  hc32_ll_utility.o(i.DDL_AssertHandler)
    i.__scatterload_null                     0x000003fc   Section        2  handlers.o(i.__scatterload_null)
    .ARM.__AT_0x00000400                     0x00000400   Section       32  hc32_ll_icg.o(.ARM.__AT_0x00000400)
    .text                                    0x00000420   Section        0  uldiv.o(.text)
    .text                                    0x00000482   Section        0  ddiv.o(.text)
    .text                                    0x00000560   Section        0  dfltui.o(.text)
    .text                                    0x0000057a   Section        0  dfltul.o(.text)
    .text                                    0x00000592   Section        0  d2f.o(.text)
    .text                                    0x000005ca   Section        0  uidiv.o(.text)
    .text                                    0x000005f6   Section        0  llshl.o(.text)
    .text                                    0x00000614   Section        0  llushr.o(.text)
    .text                                    0x00000634   Section        0  fepilogue.o(.text)
    .text                                    0x000006a2   Section        0  depilogue.o(.text)
    .text                                    0x0000075c   Section       36  init.o(.text)
    i.AppTaskCreate                          0x00000780   Section        0  app_tast.o(i.AppTaskCreate)
    i.BSP_CLK_Init                           0x00000800   Section        0  bsp_init.o(i.BSP_CLK_Init)
    i.CLK_Delay                              0x000008b4   Section        0  hc32_ll_clk.o(i.CLK_Delay)
    CLK_Delay                                0x000008b5   Thumb Code    22  hc32_ll_clk.o(i.CLK_Delay)
    i.CLK_GetStableStatus                    0x000008cc   Section        0  hc32_ll_clk.o(i.CLK_GetStableStatus)
    i.CLK_PLLCmd                             0x00000934   Section        0  hc32_ll_clk.o(i.CLK_PLLCmd)
    i.CLK_PLLInit                            0x00000a04   Section        0  hc32_ll_clk.o(i.CLK_PLLInit)
    i.CLK_PLLStructInit                      0x00000cb0   Section        0  hc32_ll_clk.o(i.CLK_PLLStructInit)
    i.CLK_SetClockDiv                        0x00000d02   Section        0  hc32_ll_clk.o(i.CLK_SetClockDiv)
    i.CLK_SetSysClockSrc                     0x00000d16   Section        0  hc32_ll_clk.o(i.CLK_SetSysClockSrc)
    i.CLK_WaitStable                         0x00000d26   Section        0  hc32_ll_clk.o(i.CLK_WaitStable)
    CLK_WaitStable                           0x00000d27   Thumb Code    48  hc32_ll_clk.o(i.CLK_WaitStable)
    i.CLK_XtalCmd                            0x00000d58   Section        0  hc32_ll_clk.o(i.CLK_XtalCmd)
    i.CLK_XtalInit                           0x00000e24   Section        0  hc32_ll_clk.o(i.CLK_XtalInit)
    i.CLK_XtalStructInit                     0x00000f70   Section        0  hc32_ll_clk.o(i.CLK_XtalStructInit)
    i.ClockSync_CalculateDiv                 0x00000f90   Section        0  hc32_ll_usart.o(i.ClockSync_CalculateDiv)
    ClockSync_CalculateDiv                   0x00000f91   Thumb Code    86  hc32_ll_usart.o(i.ClockSync_CalculateDiv)
    i.ClockSync_CalculateDivFraction         0x00000ff8   Section        0  hc32_ll_usart.o(i.ClockSync_CalculateDivFraction)
    ClockSync_CalculateDivFraction           0x00000ff9   Thumb Code   306  hc32_ll_usart.o(i.ClockSync_CalculateDivFraction)
    i.ClockSync_CalculateDivInteger          0x00001170   Section        0  hc32_ll_usart.o(i.ClockSync_CalculateDivInteger)
    ClockSync_CalculateDivInteger            0x00001171   Thumb Code   226  hc32_ll_usart.o(i.ClockSync_CalculateDivInteger)
    i.Debug_Uart_Init                        0x00001298   Section        0  bsp_init.o(i.Debug_Uart_Init)
    i.Debug_Uart_SendDataPoll                0x000012ac   Section        0  bsp_init.o(i.Debug_Uart_SendDataPoll)
    i.EFM_SetWaitCycle                       0x00001300   Section        0  hc32_ll_efm.o(i.EFM_SetWaitCycle)
    i.FCG_Fcg1PeriphClockCmd                 0x000013c0   Section        0  hc32_ll_fcg.o(i.FCG_Fcg1PeriphClockCmd)
    i.GPIO_SetFunc                           0x0000144c   Section        0  hc32_ll_gpio.o(i.GPIO_SetFunc)
    i.GPIO_SetReadWaitCycle                  0x00001528   Section        0  hc32_ll_gpio.o(i.GPIO_SetReadWaitCycle)
    i.INTC_IrqInstalHandler                  0x000015bc   Section        0  bsp_init.o(i.INTC_IrqInstalHandler)
    INTC_IrqInstalHandler                    0x000015bd   Thumb Code   118  bsp_init.o(i.INTC_IrqInstalHandler)
    i.INTC_IrqSignIn                         0x00001640   Section        0  hc32_ll_interrupts.o(i.INTC_IrqSignIn)
    i.IRQ000_Handler                         0x0000172c   Section        0  hc32_ll_interrupts.o(i.IRQ000_Handler)
    i.IRQ001_Handler                         0x0000173c   Section        0  hc32_ll_interrupts.o(i.IRQ001_Handler)
    i.IRQ002_Handler                         0x0000174c   Section        0  hc32_ll_interrupts.o(i.IRQ002_Handler)
    i.IRQ003_Handler                         0x0000175c   Section        0  hc32_ll_interrupts.o(i.IRQ003_Handler)
    i.IRQ004_Handler                         0x0000176c   Section        0  hc32_ll_interrupts.o(i.IRQ004_Handler)
    i.IRQ005_Handler                         0x0000177c   Section        0  hc32_ll_interrupts.o(i.IRQ005_Handler)
    i.IRQ006_Handler                         0x0000178c   Section        0  hc32_ll_interrupts.o(i.IRQ006_Handler)
    i.IRQ007_Handler                         0x0000179c   Section        0  hc32_ll_interrupts.o(i.IRQ007_Handler)
    i.IRQ008_Handler                         0x000017ac   Section        0  hc32_ll_interrupts.o(i.IRQ008_Handler)
    i.IRQ009_Handler                         0x000017bc   Section        0  hc32_ll_interrupts.o(i.IRQ009_Handler)
    i.IRQ010_Handler                         0x000017cc   Section        0  hc32_ll_interrupts.o(i.IRQ010_Handler)
    i.IRQ011_Handler                         0x000017dc   Section        0  hc32_ll_interrupts.o(i.IRQ011_Handler)
    i.IRQ012_Handler                         0x000017ec   Section        0  hc32_ll_interrupts.o(i.IRQ012_Handler)
    i.IRQ013_Handler                         0x000017fc   Section        0  hc32_ll_interrupts.o(i.IRQ013_Handler)
    i.IRQ014_Handler                         0x0000180c   Section        0  hc32_ll_interrupts.o(i.IRQ014_Handler)
    i.IRQ015_Handler                         0x0000181c   Section        0  hc32_ll_interrupts.o(i.IRQ015_Handler)
    i.IRQ016_Handler                         0x0000182c   Section        0  hc32_ll_interrupts.o(i.IRQ016_Handler)
    i.IRQ017_Handler                         0x0000183c   Section        0  hc32_ll_interrupts.o(i.IRQ017_Handler)
    i.IRQ018_Handler                         0x0000184c   Section        0  hc32_ll_interrupts.o(i.IRQ018_Handler)
    i.IRQ019_Handler                         0x0000185c   Section        0  hc32_ll_interrupts.o(i.IRQ019_Handler)
    i.IRQ020_Handler                         0x0000186c   Section        0  hc32_ll_interrupts.o(i.IRQ020_Handler)
    i.IRQ021_Handler                         0x0000187c   Section        0  hc32_ll_interrupts.o(i.IRQ021_Handler)
    i.IRQ022_Handler                         0x0000188c   Section        0  hc32_ll_interrupts.o(i.IRQ022_Handler)
    i.IRQ023_Handler                         0x0000189c   Section        0  hc32_ll_interrupts.o(i.IRQ023_Handler)
    i.IRQ024_Handler                         0x000018ac   Section        0  hc32_ll_interrupts.o(i.IRQ024_Handler)
    i.IRQ025_Handler                         0x000018bc   Section        0  hc32_ll_interrupts.o(i.IRQ025_Handler)
    i.IRQ026_Handler                         0x000018cc   Section        0  hc32_ll_interrupts.o(i.IRQ026_Handler)
    i.IRQ027_Handler                         0x000018dc   Section        0  hc32_ll_interrupts.o(i.IRQ027_Handler)
    i.IRQ028_Handler                         0x000018ec   Section        0  hc32_ll_interrupts.o(i.IRQ028_Handler)
    i.IRQ029_Handler                         0x000018fc   Section        0  hc32_ll_interrupts.o(i.IRQ029_Handler)
    i.IRQ030_Handler                         0x0000190c   Section        0  hc32_ll_interrupts.o(i.IRQ030_Handler)
    i.IRQ031_Handler                         0x0000191c   Section        0  hc32_ll_interrupts.o(i.IRQ031_Handler)
    i.IRQ032_Handler                         0x0000192c   Section        0  hc32_ll_interrupts.o(i.IRQ032_Handler)
    i.IRQ033_Handler                         0x0000193c   Section        0  hc32_ll_interrupts.o(i.IRQ033_Handler)
    i.IRQ034_Handler                         0x0000194c   Section        0  hc32_ll_interrupts.o(i.IRQ034_Handler)
    i.IRQ035_Handler                         0x0000195c   Section        0  hc32_ll_interrupts.o(i.IRQ035_Handler)
    i.IRQ036_Handler                         0x0000196c   Section        0  hc32_ll_interrupts.o(i.IRQ036_Handler)
    i.IRQ037_Handler                         0x0000197c   Section        0  hc32_ll_interrupts.o(i.IRQ037_Handler)
    i.IRQ038_Handler                         0x0000198c   Section        0  hc32_ll_interrupts.o(i.IRQ038_Handler)
    i.IRQ039_Handler                         0x0000199c   Section        0  hc32_ll_interrupts.o(i.IRQ039_Handler)
    i.IRQ040_Handler                         0x000019ac   Section        0  hc32_ll_interrupts.o(i.IRQ040_Handler)
    i.IRQ041_Handler                         0x000019bc   Section        0  hc32_ll_interrupts.o(i.IRQ041_Handler)
    i.IRQ042_Handler                         0x000019cc   Section        0  hc32_ll_interrupts.o(i.IRQ042_Handler)
    i.IRQ043_Handler                         0x000019dc   Section        0  hc32_ll_interrupts.o(i.IRQ043_Handler)
    i.IRQ044_Handler                         0x000019ec   Section        0  hc32_ll_interrupts.o(i.IRQ044_Handler)
    i.IRQ045_Handler                         0x000019fc   Section        0  hc32_ll_interrupts.o(i.IRQ045_Handler)
    i.IRQ046_Handler                         0x00001a0c   Section        0  hc32_ll_interrupts.o(i.IRQ046_Handler)
    i.IRQ047_Handler                         0x00001a1c   Section        0  hc32_ll_interrupts.o(i.IRQ047_Handler)
    i.IRQ048_Handler                         0x00001a2c   Section        0  hc32_ll_interrupts.o(i.IRQ048_Handler)
    i.IRQ049_Handler                         0x00001a3c   Section        0  hc32_ll_interrupts.o(i.IRQ049_Handler)
    i.IRQ050_Handler                         0x00001a4c   Section        0  hc32_ll_interrupts.o(i.IRQ050_Handler)
    i.IRQ051_Handler                         0x00001a5c   Section        0  hc32_ll_interrupts.o(i.IRQ051_Handler)
    i.IRQ052_Handler                         0x00001a6c   Section        0  hc32_ll_interrupts.o(i.IRQ052_Handler)
    i.IRQ053_Handler                         0x00001a7c   Section        0  hc32_ll_interrupts.o(i.IRQ053_Handler)
    i.IRQ054_Handler                         0x00001a8c   Section        0  hc32_ll_interrupts.o(i.IRQ054_Handler)
    i.IRQ055_Handler                         0x00001a9c   Section        0  hc32_ll_interrupts.o(i.IRQ055_Handler)
    i.IRQ056_Handler                         0x00001aac   Section        0  hc32_ll_interrupts.o(i.IRQ056_Handler)
    i.IRQ057_Handler                         0x00001abc   Section        0  hc32_ll_interrupts.o(i.IRQ057_Handler)
    i.IRQ058_Handler                         0x00001acc   Section        0  hc32_ll_interrupts.o(i.IRQ058_Handler)
    i.IRQ059_Handler                         0x00001adc   Section        0  hc32_ll_interrupts.o(i.IRQ059_Handler)
    i.IRQ060_Handler                         0x00001aec   Section        0  hc32_ll_interrupts.o(i.IRQ060_Handler)
    i.IRQ061_Handler                         0x00001afc   Section        0  hc32_ll_interrupts.o(i.IRQ061_Handler)
    i.IRQ062_Handler                         0x00001b0c   Section        0  hc32_ll_interrupts.o(i.IRQ062_Handler)
    i.IRQ063_Handler                         0x00001b1c   Section        0  hc32_ll_interrupts.o(i.IRQ063_Handler)
    i.IRQ064_Handler                         0x00001b2c   Section        0  hc32_ll_interrupts.o(i.IRQ064_Handler)
    i.IRQ065_Handler                         0x00001b3c   Section        0  hc32_ll_interrupts.o(i.IRQ065_Handler)
    i.IRQ066_Handler                         0x00001b4c   Section        0  hc32_ll_interrupts.o(i.IRQ066_Handler)
    i.IRQ067_Handler                         0x00001b5c   Section        0  hc32_ll_interrupts.o(i.IRQ067_Handler)
    i.IRQ068_Handler                         0x00001b6c   Section        0  hc32_ll_interrupts.o(i.IRQ068_Handler)
    i.IRQ069_Handler                         0x00001b7c   Section        0  hc32_ll_interrupts.o(i.IRQ069_Handler)
    i.IRQ070_Handler                         0x00001b8c   Section        0  hc32_ll_interrupts.o(i.IRQ070_Handler)
    i.IRQ071_Handler                         0x00001b9c   Section        0  hc32_ll_interrupts.o(i.IRQ071_Handler)
    i.IRQ072_Handler                         0x00001bac   Section        0  hc32_ll_interrupts.o(i.IRQ072_Handler)
    i.IRQ073_Handler                         0x00001bbc   Section        0  hc32_ll_interrupts.o(i.IRQ073_Handler)
    i.IRQ074_Handler                         0x00001bcc   Section        0  hc32_ll_interrupts.o(i.IRQ074_Handler)
    i.IRQ075_Handler                         0x00001bdc   Section        0  hc32_ll_interrupts.o(i.IRQ075_Handler)
    i.IRQ076_Handler                         0x00001bec   Section        0  hc32_ll_interrupts.o(i.IRQ076_Handler)
    i.IRQ077_Handler                         0x00001bfc   Section        0  hc32_ll_interrupts.o(i.IRQ077_Handler)
    i.IRQ078_Handler                         0x00001c0c   Section        0  hc32_ll_interrupts.o(i.IRQ078_Handler)
    i.IRQ079_Handler                         0x00001c1c   Section        0  hc32_ll_interrupts.o(i.IRQ079_Handler)
    i.IRQ080_Handler                         0x00001c2c   Section        0  hc32_ll_interrupts.o(i.IRQ080_Handler)
    i.IRQ081_Handler                         0x00001c3c   Section        0  hc32_ll_interrupts.o(i.IRQ081_Handler)
    i.IRQ082_Handler                         0x00001c4c   Section        0  hc32_ll_interrupts.o(i.IRQ082_Handler)
    i.IRQ083_Handler                         0x00001c5c   Section        0  hc32_ll_interrupts.o(i.IRQ083_Handler)
    i.IRQ084_Handler                         0x00001c6c   Section        0  hc32_ll_interrupts.o(i.IRQ084_Handler)
    i.IRQ085_Handler                         0x00001c7c   Section        0  hc32_ll_interrupts.o(i.IRQ085_Handler)
    i.IRQ086_Handler                         0x00001c8c   Section        0  hc32_ll_interrupts.o(i.IRQ086_Handler)
    i.IRQ087_Handler                         0x00001c9c   Section        0  hc32_ll_interrupts.o(i.IRQ087_Handler)
    i.IRQ088_Handler                         0x00001cac   Section        0  hc32_ll_interrupts.o(i.IRQ088_Handler)
    i.IRQ089_Handler                         0x00001cbc   Section        0  hc32_ll_interrupts.o(i.IRQ089_Handler)
    i.IRQ090_Handler                         0x00001ccc   Section        0  hc32_ll_interrupts.o(i.IRQ090_Handler)
    i.IRQ091_Handler                         0x00001cdc   Section        0  hc32_ll_interrupts.o(i.IRQ091_Handler)
    i.IRQ092_Handler                         0x00001cec   Section        0  hc32_ll_interrupts.o(i.IRQ092_Handler)
    i.IRQ093_Handler                         0x00001cfc   Section        0  hc32_ll_interrupts.o(i.IRQ093_Handler)
    i.IRQ094_Handler                         0x00001d0c   Section        0  hc32_ll_interrupts.o(i.IRQ094_Handler)
    i.IRQ095_Handler                         0x00001d1c   Section        0  hc32_ll_interrupts.o(i.IRQ095_Handler)
    i.IRQ096_Handler                         0x00001d2c   Section        0  hc32_ll_interrupts.o(i.IRQ096_Handler)
    i.IRQ097_Handler                         0x00001d3c   Section        0  hc32_ll_interrupts.o(i.IRQ097_Handler)
    i.IRQ098_Handler                         0x00001d4c   Section        0  hc32_ll_interrupts.o(i.IRQ098_Handler)
    i.IRQ099_Handler                         0x00001d5c   Section        0  hc32_ll_interrupts.o(i.IRQ099_Handler)
    i.IRQ100_Handler                         0x00001d6c   Section        0  hc32_ll_interrupts.o(i.IRQ100_Handler)
    i.IRQ101_Handler                         0x00001d7c   Section        0  hc32_ll_interrupts.o(i.IRQ101_Handler)
    i.IRQ102_Handler                         0x00001d8c   Section        0  hc32_ll_interrupts.o(i.IRQ102_Handler)
    i.IRQ103_Handler                         0x00001d9c   Section        0  hc32_ll_interrupts.o(i.IRQ103_Handler)
    i.IRQ104_Handler                         0x00001dac   Section        0  hc32_ll_interrupts.o(i.IRQ104_Handler)
    i.IRQ105_Handler                         0x00001dbc   Section        0  hc32_ll_interrupts.o(i.IRQ105_Handler)
    i.IRQ106_Handler                         0x00001dcc   Section        0  hc32_ll_interrupts.o(i.IRQ106_Handler)
    i.IRQ107_Handler                         0x00001ddc   Section        0  hc32_ll_interrupts.o(i.IRQ107_Handler)
    i.IRQ108_Handler                         0x00001dec   Section        0  hc32_ll_interrupts.o(i.IRQ108_Handler)
    i.IRQ109_Handler                         0x00001dfc   Section        0  hc32_ll_interrupts.o(i.IRQ109_Handler)
    i.IRQ110_Handler                         0x00001e0c   Section        0  hc32_ll_interrupts.o(i.IRQ110_Handler)
    i.IRQ111_Handler                         0x00001e1c   Section        0  hc32_ll_interrupts.o(i.IRQ111_Handler)
    i.IRQ112_Handler                         0x00001e2c   Section        0  hc32_ll_interrupts.o(i.IRQ112_Handler)
    i.IRQ113_Handler                         0x00001e3c   Section        0  hc32_ll_interrupts.o(i.IRQ113_Handler)
    i.IRQ114_Handler                         0x00001e4c   Section        0  hc32_ll_interrupts.o(i.IRQ114_Handler)
    i.IRQ115_Handler                         0x00001e5c   Section        0  hc32_ll_interrupts.o(i.IRQ115_Handler)
    i.IRQ116_Handler                         0x00001e6c   Section        0  hc32_ll_interrupts.o(i.IRQ116_Handler)
    i.IRQ117_Handler                         0x00001e7c   Section        0  hc32_ll_interrupts.o(i.IRQ117_Handler)
    i.IRQ118_Handler                         0x00001e8c   Section        0  hc32_ll_interrupts.o(i.IRQ118_Handler)
    i.IRQ119_Handler                         0x00001e9c   Section        0  hc32_ll_interrupts.o(i.IRQ119_Handler)
    i.IRQ120_Handler                         0x00001eac   Section        0  hc32_ll_interrupts.o(i.IRQ120_Handler)
    i.IRQ121_Handler                         0x00001ebc   Section        0  hc32_ll_interrupts.o(i.IRQ121_Handler)
    i.IRQ122_Handler                         0x00001ecc   Section        0  hc32_ll_interrupts.o(i.IRQ122_Handler)
    i.IRQ123_Handler                         0x00001edc   Section        0  hc32_ll_interrupts.o(i.IRQ123_Handler)
    i.IRQ124_Handler                         0x00001eec   Section        0  hc32_ll_interrupts.o(i.IRQ124_Handler)
    i.IRQ125_Handler                         0x00001efc   Section        0  hc32_ll_interrupts.o(i.IRQ125_Handler)
    i.IRQ126_Handler                         0x00001f0c   Section        0  hc32_ll_interrupts.o(i.IRQ126_Handler)
    i.IRQ127_Handler                         0x00001f1c   Section        0  hc32_ll_interrupts.o(i.IRQ127_Handler)
    i.LL_PERIPH_WE                           0x00001f2c   Section        0  hc32_ll.o(i.LL_PERIPH_WE)
    i.LL_PERIPH_WP                           0x00001fbc   Section        0  hc32_ll.o(i.LL_PERIPH_WP)
    i.PWC_REG_Lock                           0x00002044   Section        0  hc32_ll.o(i.PWC_REG_Lock)
    PWC_REG_Lock                             0x00002045   Thumb Code    18  hc32_ll.o(i.PWC_REG_Lock)
    i.PWC_REG_Unlock                         0x00002060   Section        0  hc32_ll.o(i.PWC_REG_Unlock)
    PWC_REG_Unlock                           0x00002061   Thumb Code    14  hc32_ll.o(i.PWC_REG_Unlock)
    i.SRAM_SetWaitCycle                      0x00002078   Section        0  hc32_ll_sram.o(i.SRAM_SetWaitCycle)
    i.SetSysClockDiv                         0x00002168   Section        0  hc32_ll_clk.o(i.SetSysClockDiv)
    SetSysClockDiv                           0x00002169   Thumb Code   820  hc32_ll_clk.o(i.SetSysClockDiv)
    i.SetSysClockSrc                         0x000024e8   Section        0  hc32_ll_clk.o(i.SetSysClockSrc)
    SetSysClockSrc                           0x000024e9   Thumb Code   270  hc32_ll_clk.o(i.SetSysClockSrc)
    i.SmartCard_CalculateDiv                 0x00002640   Section        0  hc32_ll_usart.o(i.SmartCard_CalculateDiv)
    SmartCard_CalculateDiv                   0x00002641   Thumb Code    86  hc32_ll_usart.o(i.SmartCard_CalculateDiv)
    i.SmartCard_CalculateDivFraction         0x000026a8   Section        0  hc32_ll_usart.o(i.SmartCard_CalculateDivFraction)
    SmartCard_CalculateDivFraction           0x000026a9   Thumb Code   390  hc32_ll_usart.o(i.SmartCard_CalculateDivFraction)
    i.SmartCard_CalculateDivInteger          0x00002878   Section        0  hc32_ll_usart.o(i.SmartCard_CalculateDivInteger)
    SmartCard_CalculateDivInteger            0x00002879   Thumb Code   298  hc32_ll_usart.o(i.SmartCard_CalculateDivInteger)
    i.SystemCoreClockUpdate                  0x000029ec   Section        0  system_hc32f460.o(i.SystemCoreClockUpdate)
    i.SystemInit                             0x00002ab8   Section        0  system_hc32f460.o(i.SystemInit)
    i.Task_LED_Entry                         0x00002ad8   Section        0  app_tast.o(i.Task_LED_Entry)
    i.Task_Print_Entry                       0x00002b10   Section        0  app_tast.o(i.Task_Print_Entry)
    i.UART_CalculateDiv                      0x00002b44   Section        0  hc32_ll_usart.o(i.UART_CalculateDiv)
    UART_CalculateDiv                        0x00002b45   Thumb Code    86  hc32_ll_usart.o(i.UART_CalculateDiv)
    i.UART_CalculateDivFraction              0x00002bac   Section        0  hc32_ll_usart.o(i.UART_CalculateDivFraction)
    UART_CalculateDivFraction                0x00002bad   Thumb Code   402  hc32_ll_usart.o(i.UART_CalculateDivFraction)
    i.UART_CalculateDivInteger               0x00002d84   Section        0  hc32_ll_usart.o(i.UART_CalculateDivInteger)
    UART_CalculateDivInteger                 0x00002d85   Thumb Code   274  hc32_ll_usart.o(i.UART_CalculateDivInteger)
    i.USART_ClearStatus                      0x00002edc   Section        0  hc32_ll_usart.o(i.USART_ClearStatus)
    i.USART_FuncCmd                          0x00002f90   Section        0  hc32_ll_usart.o(i.USART_FuncCmd)
    i.USART_GetBusClockFreq                  0x00003050   Section        0  hc32_ll_usart.o(i.USART_GetBusClockFreq)
    USART_GetBusClockFreq                    0x00003051   Thumb Code    20  hc32_ll_usart.o(i.USART_GetBusClockFreq)
    i.USART_GetClockDiv                      0x0000306c   Section        0  hc32_ll_usart.o(i.USART_GetClockDiv)
    i.USART_GetStatus                        0x000030e4   Section        0  hc32_ll_usart.o(i.USART_GetStatus)
    i.USART_GetUsartClockDiv                 0x00003184   Section        0  hc32_ll_usart.o(i.USART_GetUsartClockDiv)
    USART_GetUsartClockDiv                   0x00003185   Thumb Code    22  hc32_ll_usart.o(i.USART_GetUsartClockDiv)
    i.USART_GetUsartClockFreq                0x0000319c   Section        0  hc32_ll_usart.o(i.USART_GetUsartClockFreq)
    USART_GetUsartClockFreq                  0x0000319d   Thumb Code    72  hc32_ll_usart.o(i.USART_GetUsartClockFreq)
    i.USART_ReadData                         0x00003228   Section        0  hc32_ll_usart.o(i.USART_ReadData)
    i.USART_RxError_IrqCallback              0x0000329c   Section        0  bsp_init.o(i.USART_RxError_IrqCallback)
    USART_RxError_IrqCallback                0x0000329d   Thumb Code    30  bsp_init.o(i.USART_RxError_IrqCallback)
    i.USART_RxFull_IrqCallback               0x000032c0   Section        0  bsp_init.o(i.USART_RxFull_IrqCallback)
    USART_RxFull_IrqCallback                 0x000032c1   Thumb Code    14  bsp_init.o(i.USART_RxFull_IrqCallback)
    i.USART_SetBaudrate                      0x000032d4   Section        0  hc32_ll_usart.o(i.USART_SetBaudrate)
    i.USART_UART_Init                        0x000033f4   Section        0  hc32_ll_usart.o(i.USART_UART_Init)
    i.USART_UART_StructInit                  0x000035ec   Section        0  hc32_ll_usart.o(i.USART_UART_StructInit)
    i.USART_WriteData                        0x0000361c   Section        0  hc32_ll_usart.o(i.USART_WriteData)
    i.Uart_Config                            0x000036ac   Section        0  bsp_init.o(i.Uart_Config)
    i.__0printf$3                            0x00003740   Section        0  printf3.o(i.__0printf$3)
    i.__scatterload_copy                     0x00003760   Section       14  handlers.o(i.__scatterload_copy)
    i.__scatterload_zeroinit                 0x0000376e   Section       14  handlers.o(i.__scatterload_zeroinit)
    i._printf_core                           0x0000377c   Section        0  printf3.o(i._printf_core)
    _printf_core                             0x0000377d   Thumb Code   436  printf3.o(i._printf_core)
    i.fputc                                  0x00003934   Section        0  bsp_init.o(i.fputc)
    i.main                                   0x0000394c   Section        0  main.o(i.main)
    i.prvAddCurrentTaskToDelayedList         0x000039c0   Section        0  tasks.o(i.prvAddCurrentTaskToDelayedList)
    prvAddCurrentTaskToDelayedList           0x000039c1   Thumb Code   124  tasks.o(i.prvAddCurrentTaskToDelayedList)
    i.prvAddNewTaskToReadyList               0x00003a58   Section        0  tasks.o(i.prvAddNewTaskToReadyList)
    prvAddNewTaskToReadyList                 0x00003a59   Thumb Code   156  tasks.o(i.prvAddNewTaskToReadyList)
    i.prvCheckForValidListAndQueue           0x00003b10   Section        0  timers.o(i.prvCheckForValidListAndQueue)
    prvCheckForValidListAndQueue             0x00003b11   Thumb Code    72  timers.o(i.prvCheckForValidListAndQueue)
    i.prvCheckTasksWaitingTermination        0x00003b74   Section        0  tasks.o(i.prvCheckTasksWaitingTermination)
    prvCheckTasksWaitingTermination          0x00003b75   Thumb Code    60  tasks.o(i.prvCheckTasksWaitingTermination)
    i.prvCopyDataFromQueue                   0x00003bbc   Section        0  queue.o(i.prvCopyDataFromQueue)
    prvCopyDataFromQueue                     0x00003bbd   Thumb Code    42  queue.o(i.prvCopyDataFromQueue)
    i.prvCopyDataToQueue                     0x00003be6   Section        0  queue.o(i.prvCopyDataToQueue)
    prvCopyDataToQueue                       0x00003be7   Thumb Code   126  queue.o(i.prvCopyDataToQueue)
    i.prvDeleteTCB                           0x00003c64   Section        0  tasks.o(i.prvDeleteTCB)
    prvDeleteTCB                             0x00003c65   Thumb Code    18  tasks.o(i.prvDeleteTCB)
    i.prvGetDisinheritPriorityAfterTimeout   0x00003c76   Section        0  queue.o(i.prvGetDisinheritPriorityAfterTimeout)
    prvGetDisinheritPriorityAfterTimeout     0x00003c77   Thumb Code    20  queue.o(i.prvGetDisinheritPriorityAfterTimeout)
    i.prvGetNextExpireTime                   0x00003c8c   Section        0  timers.o(i.prvGetNextExpireTime)
    prvGetNextExpireTime                     0x00003c8d   Thumb Code    36  timers.o(i.prvGetNextExpireTime)
    i.prvHeapInit                            0x00003cb4   Section        0  heap_4.o(i.prvHeapInit)
    prvHeapInit                              0x00003cb5   Thumb Code    98  heap_4.o(i.prvHeapInit)
    i.prvIdleTask                            0x00003d30   Section        0  tasks.o(i.prvIdleTask)
    prvIdleTask                              0x00003d31   Thumb Code    32  tasks.o(i.prvIdleTask)
    i.prvInitialiseNewQueue                  0x00003d58   Section        0  queue.o(i.prvInitialiseNewQueue)
    prvInitialiseNewQueue                    0x00003d59   Thumb Code    42  queue.o(i.prvInitialiseNewQueue)
    i.prvInitialiseNewTask                   0x00003d82   Section        0  tasks.o(i.prvInitialiseNewTask)
    prvInitialiseNewTask                     0x00003d83   Thumb Code   190  tasks.o(i.prvInitialiseNewTask)
    i.prvInitialiseTaskLists                 0x00003e40   Section        0  tasks.o(i.prvInitialiseTaskLists)
    prvInitialiseTaskLists                   0x00003e41   Thumb Code    70  tasks.o(i.prvInitialiseTaskLists)
    i.prvInsertBlockIntoFreeList             0x00003ea8   Section        0  heap_4.o(i.prvInsertBlockIntoFreeList)
    prvInsertBlockIntoFreeList               0x00003ea9   Thumb Code    96  heap_4.o(i.prvInsertBlockIntoFreeList)
    i.prvInsertTimerInActiveList             0x00003f10   Section        0  timers.o(i.prvInsertTimerInActiveList)
    prvInsertTimerInActiveList               0x00003f11   Thumb Code    80  timers.o(i.prvInsertTimerInActiveList)
    i.prvIsQueueEmpty                        0x00003f68   Section        0  queue.o(i.prvIsQueueEmpty)
    prvIsQueueEmpty                          0x00003f69   Thumb Code    26  queue.o(i.prvIsQueueEmpty)
    i.prvIsQueueFull                         0x00003f82   Section        0  queue.o(i.prvIsQueueFull)
    prvIsQueueFull                           0x00003f83   Thumb Code    30  queue.o(i.prvIsQueueFull)
    i.prvProcessExpiredTimer                 0x00003fa0   Section        0  timers.o(i.prvProcessExpiredTimer)
    prvProcessExpiredTimer                   0x00003fa1   Thumb Code   110  timers.o(i.prvProcessExpiredTimer)
    i.prvProcessReceivedCommands             0x00004014   Section        0  timers.o(i.prvProcessReceivedCommands)
    prvProcessReceivedCommands               0x00004015   Thumb Code   308  timers.o(i.prvProcessReceivedCommands)
    i.prvProcessTimerOrBlockTask             0x0000414c   Section        0  timers.o(i.prvProcessTimerOrBlockTask)
    prvProcessTimerOrBlockTask               0x0000414d   Thumb Code   102  timers.o(i.prvProcessTimerOrBlockTask)
    i.prvResetNextTaskUnblockTime            0x000041c0   Section        0  tasks.o(i.prvResetNextTaskUnblockTime)
    prvResetNextTaskUnblockTime              0x000041c1   Thumb Code    40  tasks.o(i.prvResetNextTaskUnblockTime)
    i.prvSampleTimeNow                       0x000041f0   Section        0  timers.o(i.prvSampleTimeNow)
    prvSampleTimeNow                         0x000041f1   Thumb Code    40  timers.o(i.prvSampleTimeNow)
    i.prvSwitchTimerLists                    0x0000421c   Section        0  timers.o(i.prvSwitchTimerLists)
    prvSwitchTimerLists                      0x0000421d   Thumb Code   154  timers.o(i.prvSwitchTimerLists)
    i.prvTaskExitError                       0x000042c0   Section        0  port.o(i.prvTaskExitError)
    prvTaskExitError                         0x000042c1   Thumb Code    60  port.o(i.prvTaskExitError)
    i.prvTimerTask                           0x00004300   Section        0  timers.o(i.prvTimerTask)
    prvTimerTask                             0x00004301   Thumb Code    26  timers.o(i.prvTimerTask)
    i.prvUnlockQueue                         0x0000431a   Section        0  queue.o(i.prvUnlockQueue)
    prvUnlockQueue                           0x0000431b   Thumb Code   126  queue.o(i.prvUnlockQueue)
    i.pvPortMalloc                           0x00004398   Section        0  heap_4.o(i.pvPortMalloc)
    i.pvTaskIncrementMutexHeldCount          0x000044e4   Section        0  tasks.o(i.pvTaskIncrementMutexHeldCount)
    i.pxPortInitialiseStack                  0x00004504   Section        0  port.o(i.pxPortInitialiseStack)
    i.test                                   0x00004530   Section        0  test.o(i.test)
    i.uxListRemove                           0x000046c0   Section        0  list.o(i.uxListRemove)
    i.vListInitialise                        0x000046e8   Section        0  list.o(i.vListInitialise)
    i.vListInitialiseItem                    0x00004702   Section        0  list.o(i.vListInitialiseItem)
    i.vListInsert                            0x00004708   Section        0  list.o(i.vListInsert)
    i.vListInsertEnd                         0x0000473c   Section        0  list.o(i.vListInsertEnd)
    i.vPortEnterCritical                     0x00004754   Section        0  port.o(i.vPortEnterCritical)
    i.vPortExitCritical                      0x000047a8   Section        0  port.o(i.vPortExitCritical)
    i.vPortFree                              0x000047e4   Section        0  heap_4.o(i.vPortFree)
    i.vPortSetupTimerInterrupt               0x00004888   Section        0  port.o(i.vPortSetupTimerInterrupt)
    i.vPortValidateInterruptPriority         0x000048b0   Section        0  port.o(i.vPortValidateInterruptPriority)
    i.vQueueAddToRegistry                    0x00004928   Section        0  queue.o(i.vQueueAddToRegistry)
    i.vQueueWaitForMessageRestricted         0x00004954   Section        0  queue.o(i.vQueueWaitForMessageRestricted)
    i.vTaskDelay                             0x000049a0   Section        0  tasks.o(i.vTaskDelay)
    i.vTaskDelete                            0x000049fc   Section        0  tasks.o(i.vTaskDelete)
    i.vTaskInternalSetTimeOutState           0x00004af0   Section        0  tasks.o(i.vTaskInternalSetTimeOutState)
    i.vTaskMissedYield                       0x00004b08   Section        0  tasks.o(i.vTaskMissedYield)
    i.vTaskPlaceOnEventList                  0x00004b14   Section        0  tasks.o(i.vTaskPlaceOnEventList)
    i.vTaskPlaceOnEventListRestricted        0x00004b4c   Section        0  tasks.o(i.vTaskPlaceOnEventListRestricted)
    i.vTaskPriorityDisinheritAfterTimeout    0x00004b8c   Section        0  tasks.o(i.vTaskPriorityDisinheritAfterTimeout)
    i.vTaskStartScheduler                    0x00004c70   Section        0  tasks.o(i.vTaskStartScheduler)
    i.vTaskSuspendAll                        0x00004d04   Section        0  tasks.o(i.vTaskSuspendAll)
    i.vTaskSwitchContext                     0x00004d14   Section        0  tasks.o(i.vTaskSwitchContext)
    i.xPortStartScheduler                    0x00004da0   Section        0  port.o(i.xPortStartScheduler)
    i.xPortSysTickHandler                    0x00004f08   Section        0  port.o(i.xPortSysTickHandler)
    i.xQueueCreateCountingSemaphore          0x00004f3c   Section        0  queue.o(i.xQueueCreateCountingSemaphore)
    i.xQueueGenericCreate                    0x00004f98   Section        0  queue.o(i.xQueueGenericCreate)
    i.xQueueGenericReset                     0x00005014   Section        0  queue.o(i.xQueueGenericReset)
    i.xQueueGenericSend                      0x000050ac   Section        0  queue.o(i.xQueueGenericSend)
    i.xQueueGenericSendFromISR               0x00005254   Section        0  queue.o(i.xQueueGenericSendFromISR)
    i.xQueueReceive                          0x00005374   Section        0  queue.o(i.xQueueReceive)
    i.xQueueSemaphoreTake                    0x000054dc   Section        0  queue.o(i.xQueueSemaphoreTake)
    i.xTaskCheckForTimeOut                   0x00005694   Section        0  tasks.o(i.xTaskCheckForTimeOut)
    i.xTaskCreate                            0x00005724   Section        0  tasks.o(i.xTaskCreate)
    i.xTaskGetSchedulerState                 0x00005784   Section        0  tasks.o(i.xTaskGetSchedulerState)
    i.xTaskGetTickCount                      0x000057a4   Section        0  tasks.o(i.xTaskGetTickCount)
    i.xTaskIncrementTick                     0x000057b0   Section        0  tasks.o(i.xTaskIncrementTick)
    i.xTaskPriorityDisinherit                0x000058f8   Section        0  tasks.o(i.xTaskPriorityDisinherit)
    i.xTaskPriorityInherit                   0x000059b4   Section        0  tasks.o(i.xTaskPriorityInherit)
    i.xTaskRemoveFromEventList               0x00005a6c   Section        0  tasks.o(i.xTaskRemoveFromEventList)
    i.xTaskResumeAll                         0x00005b04   Section        0  tasks.o(i.xTaskResumeAll)
    i.xTimerCreateTimerTask                  0x00005c08   Section        0  timers.o(i.xTimerCreateTimerTask)
    i.xTimerGenericCommand                   0x00005c60   Section        0  timers.o(i.xTimerGenericCommand)
    .constdata                               0x00005ce4   Section       32  hc32_ll_usart.o(.constdata)
    .data                                    0x1fff8000   Section       16  app_tast.o(.data)
    .data                                    0x1fff8010   Section      124  test.o(.data)
    .data                                    0x1fff808c   Section       60  tasks.o(.data)
    pxDelayedTaskList                        0x1fff8090   Data           4  tasks.o(.data)
    pxOverflowDelayedTaskList                0x1fff8094   Data           4  tasks.o(.data)
    uxDeletedTasksWaitingCleanUp             0x1fff8098   Data           4  tasks.o(.data)
    uxCurrentNumberOfTasks                   0x1fff809c   Data           4  tasks.o(.data)
    xTickCount                               0x1fff80a0   Data           4  tasks.o(.data)
    uxTopReadyPriority                       0x1fff80a4   Data           4  tasks.o(.data)
    xSchedulerRunning                        0x1fff80a8   Data           4  tasks.o(.data)
    xPendedTicks                             0x1fff80ac   Data           4  tasks.o(.data)
    xYieldPending                            0x1fff80b0   Data           4  tasks.o(.data)
    xNumOfOverflows                          0x1fff80b4   Data           4  tasks.o(.data)
    uxTaskNumber                             0x1fff80b8   Data           4  tasks.o(.data)
    xNextTaskUnblockTime                     0x1fff80bc   Data           4  tasks.o(.data)
    xIdleTaskHandle                          0x1fff80c0   Data           4  tasks.o(.data)
    uxSchedulerSuspended                     0x1fff80c4   Data           4  tasks.o(.data)
    .data                                    0x1fff80c8   Section       20  timers.o(.data)
    pxCurrentTimerList                       0x1fff80c8   Data           4  timers.o(.data)
    pxOverflowTimerList                      0x1fff80cc   Data           4  timers.o(.data)
    xTimerQueue                              0x1fff80d0   Data           4  timers.o(.data)
    xTimerTaskHandle                         0x1fff80d4   Data           4  timers.o(.data)
    xLastTime                                0x1fff80d8   Data           4  timers.o(.data)
    .data                                    0x1fff80dc   Section       32  heap_4.o(.data)
    xStart                                   0x1fff80dc   Data           8  heap_4.o(.data)
    pxEnd                                    0x1fff80e4   Data           4  heap_4.o(.data)
    xFreeBytesRemaining                      0x1fff80e8   Data           4  heap_4.o(.data)
    xMinimumEverFreeBytesRemaining           0x1fff80ec   Data           4  heap_4.o(.data)
    xNumberOfSuccessfulAllocations           0x1fff80f0   Data           4  heap_4.o(.data)
    xNumberOfSuccessfulFrees                 0x1fff80f4   Data           4  heap_4.o(.data)
    xBlockAllocatedBit                       0x1fff80f8   Data           4  heap_4.o(.data)
    .data                                    0x1fff80fc   Section       12  port.o(.data)
    uxCriticalNesting                        0x1fff80fc   Data           4  port.o(.data)
    ucMaxSysCallPriority                     0x1fff8100   Data           1  port.o(.data)
    ulMaxPRIGROUPValue                       0x1fff8104   Data           4  port.o(.data)
    .data                                    0x1fff8108   Section        4  stdout.o(.data)
    .bss                                     0x1fff810c   Section      684  test.o(.bss)
    .bss                                     0x1fff83b8   Section      512  hc32_ll_interrupts.o(.bss)
    m_apfnIrqHandler                         0x1fff83b8   Data         512  hc32_ll_interrupts.o(.bss)
    .bss                                     0x1fff85b8   Section       64  queue.o(.bss)
    .bss                                     0x1fff85f8   Section      200  tasks.o(.bss)
    pxReadyTasksLists                        0x1fff85f8   Data         100  tasks.o(.bss)
    xDelayedTaskList1                        0x1fff865c   Data          20  tasks.o(.bss)
    xDelayedTaskList2                        0x1fff8670   Data          20  tasks.o(.bss)
    xPendingReadyList                        0x1fff8684   Data          20  tasks.o(.bss)
    xTasksWaitingTermination                 0x1fff8698   Data          20  tasks.o(.bss)
    xSuspendedTaskList                       0x1fff86ac   Data          20  tasks.o(.bss)
    .bss                                     0x1fff86c0   Section       40  timers.o(.bss)
    xActiveTimerList1                        0x1fff86c0   Data          20  timers.o(.bss)
    xActiveTimerList2                        0x1fff86d4   Data          20  timers.o(.bss)
    .bss                                     0x1fff86e8   Section    76800  heap_4.o(.bss)
    ucHeap                                   0x1fff86e8   Data       76800  heap_4.o(.bss)
    .bss.noinit                              0x2000b2e8   Section        8  system_hc32f460.o(.bss.noinit)
    STACK                                    0x2000b2f0   Section     8192  startup_hc32f460.o(STACK)

    Global Symbols

    Symbol Name                              Value     Ov Type        Size  Object(Section)

    BuildAttributes$$THM_ISAv4$E$P$D$K$B$S$7EM$VFPi3$EXTD16$VFPS$VFMA$PE$A:L22UL41UL21$X:L11$S22US41US21$IEEE1$IW$USESV6$~STKCKD$USESV7$~SHL$OTIME$ROPI$EBA8$MICROLIB$REQ8$PRES8$EABIv2 0x00000000   Number         0  anon$$obj.o ABSOLUTE
    __ARM_use_no_argv                        0x00000000   Number         0  main.o ABSOLUTE
    __Vectors                                0x00000000   Data           4  startup_hc32f460.o(RESET)
    _printf_a                                0x00000000   Number         0  stubs.o ABSOLUTE
    _printf_c                                0x00000000   Number         0  stubs.o ABSOLUTE
    _printf_charcount                        0x00000000   Number         0  stubs.o ABSOLUTE
    _printf_d                                0x00000000   Number         0  stubs.o ABSOLUTE
    _printf_e                                0x00000000   Number         0  stubs.o ABSOLUTE
    _printf_f                                0x00000000   Number         0  stubs.o ABSOLUTE
    _printf_flags                            0x00000000   Number         0  stubs.o ABSOLUTE
    _printf_fp_dec                           0x00000000   Number         0  stubs.o ABSOLUTE
    _printf_fp_hex                           0x00000000   Number         0  stubs.o ABSOLUTE
    _printf_g                                0x00000000   Number         0  stubs.o ABSOLUTE
    _printf_i                                0x00000000   Number         0  stubs.o ABSOLUTE
    _printf_int_dec                          0x00000000   Number         0  stubs.o ABSOLUTE
    _printf_l                                0x00000000   Number         0  stubs.o ABSOLUTE
    _printf_lc                               0x00000000   Number         0  stubs.o ABSOLUTE
    _printf_ll                               0x00000000   Number         0  stubs.o ABSOLUTE
    _printf_lld                              0x00000000   Number         0  stubs.o ABSOLUTE
    _printf_lli                              0x00000000   Number         0  stubs.o ABSOLUTE
    _printf_llo                              0x00000000   Number         0  stubs.o ABSOLUTE
    _printf_llu                              0x00000000   Number         0  stubs.o ABSOLUTE
    _printf_llx                              0x00000000   Number         0  stubs.o ABSOLUTE
    _printf_longlong_dec                     0x00000000   Number         0  stubs.o ABSOLUTE
    _printf_longlong_hex                     0x00000000   Number         0  stubs.o ABSOLUTE
    _printf_longlong_oct                     0x00000000   Number         0  stubs.o ABSOLUTE
    _printf_ls                               0x00000000   Number         0  stubs.o ABSOLUTE
    _printf_mbtowc                           0x00000000   Number         0  stubs.o ABSOLUTE
    _printf_n                                0x00000000   Number         0  stubs.o ABSOLUTE
    _printf_o                                0x00000000   Number         0  stubs.o ABSOLUTE
    _printf_p                                0x00000000   Number         0  stubs.o ABSOLUTE
    _printf_percent                          0x00000000   Number         0  stubs.o ABSOLUTE
    _printf_pre_padding                      0x00000000   Number         0  stubs.o ABSOLUTE
    _printf_return_value                     0x00000000   Number         0  stubs.o ABSOLUTE
    _printf_s                                0x00000000   Number         0  stubs.o ABSOLUTE
    _printf_sizespec                         0x00000000   Number         0  stubs.o ABSOLUTE
    _printf_str                              0x00000000   Number         0  stubs.o ABSOLUTE
    _printf_truncate_signed                  0x00000000   Number         0  stubs.o ABSOLUTE
    _printf_truncate_unsigned                0x00000000   Number         0  stubs.o ABSOLUTE
    _printf_u                                0x00000000   Number         0  stubs.o ABSOLUTE
    _printf_wc                               0x00000000   Number         0  stubs.o ABSOLUTE
    _printf_wctomb                           0x00000000   Number         0  stubs.o ABSOLUTE
    _printf_widthprec                        0x00000000   Number         0  stubs.o ABSOLUTE
    _printf_x                                0x00000000   Number         0  stubs.o ABSOLUTE
    __arm_fini_                               - Undefined Weak Reference
    __cpp_initialize__aeabi_                  - Undefined Weak Reference
    __cxa_finalize                            - Undefined Weak Reference
    __decompress                              - Undefined Weak Reference
    _clock_init                               - Undefined Weak Reference
    _microlib_exit                            - Undefined Weak Reference
    __Vectors_End                            0x00000280   Data           0  startup_hc32f460.o(RESET)
    __Vectors_Size                           0x00000280   Number         0  startup_hc32f460.o ABSOLUTE
    __main                                   0x00000281   Thumb Code     0  entry.o(.ARM.Collect$$$$00000000)
    _main_stk                                0x00000281   Thumb Code     0  entry2.o(.ARM.Collect$$$$00000001)
    _main_scatterload                        0x00000285   Thumb Code     0  entry5.o(.ARM.Collect$$$$00000004)
    __main_after_scatterload                 0x00000289   Thumb Code     0  entry5.o(.ARM.Collect$$$$00000004)
    _main_clock                              0x00000289   Thumb Code     0  entry7b.o(.ARM.Collect$$$$00000008)
    _main_cpp_init                           0x00000289   Thumb Code     0  entry8b.o(.ARM.Collect$$$$0000000A)
    _main_init                               0x00000289   Thumb Code     0  entry9a.o(.ARM.Collect$$$$0000000B)
    __rt_lib_shutdown_fini                   0x00000291   Thumb Code     0  entry12b.o(.ARM.Collect$$$$0000000E)
    __rt_final_cpp                           0x00000295   Thumb Code     0  entry10a.o(.ARM.Collect$$$$0000000F)
    __rt_final_exit                          0x00000295   Thumb Code     0  entry11a.o(.ARM.Collect$$$$00000011)
    vPortSVCHandler                          0x00000299   Thumb Code    28  port.o(.emb_text)
    __asm___6_port_c_39a90d8d__prvStartFirstTask 0x000002b9   Thumb Code    36  port.o(.emb_text)
    __asm___6_port_c_39a90d8d__prvEnableVFP  0x000002e1   Thumb Code    16  port.o(.emb_text)
    xPortPendSVHandler                       0x000002f5   Thumb Code    88  port.o(.emb_text)
    vPortGetIPSR                             0x00000351   Thumb Code     6  port.o(.emb_text)
    Reset_Handler                            0x00000359   Thumb Code    48  startup_hc32f460.o(.text)
    NMI_Handler                              0x00000389   Thumb Code     2  startup_hc32f460.o(.text)
    HardFault_Handler                        0x0000038b   Thumb Code     2  startup_hc32f460.o(.text)
    MemManage_Handler                        0x0000038d   Thumb Code     2  startup_hc32f460.o(.text)
    BusFault_Handler                         0x0000038f   Thumb Code     2  startup_hc32f460.o(.text)
    UsageFault_Handler                       0x00000391   Thumb Code     2  startup_hc32f460.o(.text)
    DebugMon_Handler                         0x00000395   Thumb Code     2  startup_hc32f460.o(.text)
    IRQ128_Handler                           0x0000039b   Thumb Code     0  startup_hc32f460.o(.text)
    IRQ129_Handler                           0x0000039b   Thumb Code     0  startup_hc32f460.o(.text)
    IRQ130_Handler                           0x0000039b   Thumb Code     0  startup_hc32f460.o(.text)
    IRQ131_Handler                           0x0000039b   Thumb Code     0  startup_hc32f460.o(.text)
    IRQ132_Handler                           0x0000039b   Thumb Code     0  startup_hc32f460.o(.text)
    IRQ133_Handler                           0x0000039b   Thumb Code     0  startup_hc32f460.o(.text)
    IRQ134_Handler                           0x0000039b   Thumb Code     0  startup_hc32f460.o(.text)
    IRQ135_Handler                           0x0000039b   Thumb Code     0  startup_hc32f460.o(.text)
    IRQ136_Handler                           0x0000039b   Thumb Code     0  startup_hc32f460.o(.text)
    IRQ137_Handler                           0x0000039b   Thumb Code     0  startup_hc32f460.o(.text)
    IRQ138_Handler                           0x0000039b   Thumb Code     0  startup_hc32f460.o(.text)
    IRQ139_Handler                           0x0000039b   Thumb Code     0  startup_hc32f460.o(.text)
    IRQ140_Handler                           0x0000039b   Thumb Code     0  startup_hc32f460.o(.text)
    IRQ141_Handler                           0x0000039b   Thumb Code     0  startup_hc32f460.o(.text)
    IRQ142_Handler                           0x0000039b   Thumb Code     0  startup_hc32f460.o(.text)
    IRQ143_Handler                           0x0000039b   Thumb Code     0  startup_hc32f460.o(.text)
    __aeabi_memcpy                           0x000003b1   Thumb Code    36  memcpya.o(.text)
    __aeabi_memcpy4                          0x000003b1   Thumb Code     0  memcpya.o(.text)
    __aeabi_memcpy8                          0x000003b1   Thumb Code     0  memcpya.o(.text)
    __aeabi_memset                           0x000003d5   Thumb Code    14  memseta.o(.text)
    __aeabi_memset4                          0x000003d5   Thumb Code     0  memseta.o(.text)
    __aeabi_memset8                          0x000003d5   Thumb Code     0  memseta.o(.text)
    __aeabi_memclr                           0x000003e3   Thumb Code     4  memseta.o(.text)
    __aeabi_memclr4                          0x000003e3   Thumb Code     0  memseta.o(.text)
    __aeabi_memclr8                          0x000003e3   Thumb Code     0  memseta.o(.text)
    memset                                   0x000003e7   Thumb Code    18  memseta.o(.text)
    DDL_AssertHandler                        0x000003f9   Thumb Code     4  hc32_ll_utility.o(i.DDL_AssertHandler)
    __I$use$fp                               0x000003f9   Thumb Code     0  iusefp.o(.text)
    __scatterload_null                       0x000003fd   Thumb Code     2  handlers.o(i.__scatterload_null)
    u32ICGValue                              0x00000400   Data          32  hc32_ll_icg.o(.ARM.__AT_0x00000400)
    __aeabi_uldivmod                         0x00000421   Thumb Code    98  uldiv.o(.text)
    __aeabi_ddiv                             0x00000483   Thumb Code   222  ddiv.o(.text)
    __aeabi_ui2d                             0x00000561   Thumb Code    26  dfltui.o(.text)
    __aeabi_ul2d                             0x0000057b   Thumb Code    24  dfltul.o(.text)
    __aeabi_d2f                              0x00000593   Thumb Code    56  d2f.o(.text)
    __aeabi_uidiv                            0x000005cb   Thumb Code     0  uidiv.o(.text)
    __aeabi_uidivmod                         0x000005cb   Thumb Code    44  uidiv.o(.text)
    __aeabi_llsl                             0x000005f7   Thumb Code    30  llshl.o(.text)
    _ll_shift_l                              0x000005f7   Thumb Code     0  llshl.o(.text)
    __aeabi_llsr                             0x00000615   Thumb Code    32  llushr.o(.text)
    _ll_ushift_r                             0x00000615   Thumb Code     0  llushr.o(.text)
    _float_round                             0x00000635   Thumb Code    18  fepilogue.o(.text)
    _float_epilogue                          0x00000647   Thumb Code    92  fepilogue.o(.text)
    _double_round                            0x000006a3   Thumb Code    30  depilogue.o(.text)
    _double_epilogue                         0x000006c1   Thumb Code   156  depilogue.o(.text)
    __scatterload                            0x0000075d   Thumb Code    28  init.o(.text)
    __scatterload_rt2                        0x0000075d   Thumb Code     0  init.o(.text)
    AppTaskCreate                            0x00000781   Thumb Code    78  app_tast.o(i.AppTaskCreate)
    BSP_CLK_Init                             0x00000801   Thumb Code   170  bsp_init.o(i.BSP_CLK_Init)
    CLK_GetStableStatus                      0x000008cd   Thumb Code    46  hc32_ll_clk.o(i.CLK_GetStableStatus)
    CLK_PLLCmd                               0x00000935   Thumb Code   146  hc32_ll_clk.o(i.CLK_PLLCmd)
    CLK_PLLInit                              0x00000a05   Thumb Code   596  hc32_ll_clk.o(i.CLK_PLLInit)
    CLK_PLLStructInit                        0x00000cb1   Thumb Code    82  hc32_ll_clk.o(i.CLK_PLLStructInit)
    CLK_SetClockDiv                          0x00000d03   Thumb Code    20  hc32_ll_clk.o(i.CLK_SetClockDiv)
    CLK_SetSysClockSrc                       0x00000d17   Thumb Code    16  hc32_ll_clk.o(i.CLK_SetSysClockSrc)
    CLK_XtalCmd                              0x00000d59   Thumb Code   144  hc32_ll_clk.o(i.CLK_XtalCmd)
    CLK_XtalInit                             0x00000e25   Thumb Code   272  hc32_ll_clk.o(i.CLK_XtalInit)
    CLK_XtalStructInit                       0x00000f71   Thumb Code    30  hc32_ll_clk.o(i.CLK_XtalStructInit)
    Debug_Uart_Init                          0x00001299   Thumb Code    16  bsp_init.o(i.Debug_Uart_Init)
    Debug_Uart_SendDataPoll                  0x000012ad   Thumb Code    80  bsp_init.o(i.Debug_Uart_SendDataPoll)
    EFM_SetWaitCycle                         0x00001301   Thumb Code   126  hc32_ll_efm.o(i.EFM_SetWaitCycle)
    FCG_Fcg1PeriphClockCmd                   0x000013c1   Thumb Code    80  hc32_ll_fcg.o(i.FCG_Fcg1PeriphClockCmd)
    GPIO_SetFunc                             0x0000144d   Thumb Code   164  hc32_ll_gpio.o(i.GPIO_SetFunc)
    GPIO_SetReadWaitCycle                    0x00001529   Thumb Code    90  hc32_ll_gpio.o(i.GPIO_SetReadWaitCycle)
    INTC_IrqSignIn                           0x00001641   Thumb Code   168  hc32_ll_interrupts.o(i.INTC_IrqSignIn)
    IRQ000_Handler                           0x0000172d   Thumb Code    10  hc32_ll_interrupts.o(i.IRQ000_Handler)
    IRQ001_Handler                           0x0000173d   Thumb Code    10  hc32_ll_interrupts.o(i.IRQ001_Handler)
    IRQ002_Handler                           0x0000174d   Thumb Code    10  hc32_ll_interrupts.o(i.IRQ002_Handler)
    IRQ003_Handler                           0x0000175d   Thumb Code    10  hc32_ll_interrupts.o(i.IRQ003_Handler)
    IRQ004_Handler                           0x0000176d   Thumb Code    10  hc32_ll_interrupts.o(i.IRQ004_Handler)
    IRQ005_Handler                           0x0000177d   Thumb Code    10  hc32_ll_interrupts.o(i.IRQ005_Handler)
    IRQ006_Handler                           0x0000178d   Thumb Code    10  hc32_ll_interrupts.o(i.IRQ006_Handler)
    IRQ007_Handler                           0x0000179d   Thumb Code    10  hc32_ll_interrupts.o(i.IRQ007_Handler)
    IRQ008_Handler                           0x000017ad   Thumb Code    10  hc32_ll_interrupts.o(i.IRQ008_Handler)
    IRQ009_Handler                           0x000017bd   Thumb Code    10  hc32_ll_interrupts.o(i.IRQ009_Handler)
    IRQ010_Handler                           0x000017cd   Thumb Code    10  hc32_ll_interrupts.o(i.IRQ010_Handler)
    IRQ011_Handler                           0x000017dd   Thumb Code    10  hc32_ll_interrupts.o(i.IRQ011_Handler)
    IRQ012_Handler                           0x000017ed   Thumb Code    10  hc32_ll_interrupts.o(i.IRQ012_Handler)
    IRQ013_Handler                           0x000017fd   Thumb Code    10  hc32_ll_interrupts.o(i.IRQ013_Handler)
    IRQ014_Handler                           0x0000180d   Thumb Code    10  hc32_ll_interrupts.o(i.IRQ014_Handler)
    IRQ015_Handler                           0x0000181d   Thumb Code    10  hc32_ll_interrupts.o(i.IRQ015_Handler)
    IRQ016_Handler                           0x0000182d   Thumb Code    10  hc32_ll_interrupts.o(i.IRQ016_Handler)
    IRQ017_Handler                           0x0000183d   Thumb Code    10  hc32_ll_interrupts.o(i.IRQ017_Handler)
    IRQ018_Handler                           0x0000184d   Thumb Code    10  hc32_ll_interrupts.o(i.IRQ018_Handler)
    IRQ019_Handler                           0x0000185d   Thumb Code    10  hc32_ll_interrupts.o(i.IRQ019_Handler)
    IRQ020_Handler                           0x0000186d   Thumb Code    10  hc32_ll_interrupts.o(i.IRQ020_Handler)
    IRQ021_Handler                           0x0000187d   Thumb Code    10  hc32_ll_interrupts.o(i.IRQ021_Handler)
    IRQ022_Handler                           0x0000188d   Thumb Code    10  hc32_ll_interrupts.o(i.IRQ022_Handler)
    IRQ023_Handler                           0x0000189d   Thumb Code    10  hc32_ll_interrupts.o(i.IRQ023_Handler)
    IRQ024_Handler                           0x000018ad   Thumb Code    10  hc32_ll_interrupts.o(i.IRQ024_Handler)
    IRQ025_Handler                           0x000018bd   Thumb Code    10  hc32_ll_interrupts.o(i.IRQ025_Handler)
    IRQ026_Handler                           0x000018cd   Thumb Code    10  hc32_ll_interrupts.o(i.IRQ026_Handler)
    IRQ027_Handler                           0x000018dd   Thumb Code    10  hc32_ll_interrupts.o(i.IRQ027_Handler)
    IRQ028_Handler                           0x000018ed   Thumb Code    10  hc32_ll_interrupts.o(i.IRQ028_Handler)
    IRQ029_Handler                           0x000018fd   Thumb Code    10  hc32_ll_interrupts.o(i.IRQ029_Handler)
    IRQ030_Handler                           0x0000190d   Thumb Code    10  hc32_ll_interrupts.o(i.IRQ030_Handler)
    IRQ031_Handler                           0x0000191d   Thumb Code    10  hc32_ll_interrupts.o(i.IRQ031_Handler)
    IRQ032_Handler                           0x0000192d   Thumb Code    12  hc32_ll_interrupts.o(i.IRQ032_Handler)
    IRQ033_Handler                           0x0000193d   Thumb Code    12  hc32_ll_interrupts.o(i.IRQ033_Handler)
    IRQ034_Handler                           0x0000194d   Thumb Code    12  hc32_ll_interrupts.o(i.IRQ034_Handler)
    IRQ035_Handler                           0x0000195d   Thumb Code    12  hc32_ll_interrupts.o(i.IRQ035_Handler)
    IRQ036_Handler                           0x0000196d   Thumb Code    12  hc32_ll_interrupts.o(i.IRQ036_Handler)
    IRQ037_Handler                           0x0000197d   Thumb Code    12  hc32_ll_interrupts.o(i.IRQ037_Handler)
    IRQ038_Handler                           0x0000198d   Thumb Code    12  hc32_ll_interrupts.o(i.IRQ038_Handler)
    IRQ039_Handler                           0x0000199d   Thumb Code    12  hc32_ll_interrupts.o(i.IRQ039_Handler)
    IRQ040_Handler                           0x000019ad   Thumb Code    12  hc32_ll_interrupts.o(i.IRQ040_Handler)
    IRQ041_Handler                           0x000019bd   Thumb Code    12  hc32_ll_interrupts.o(i.IRQ041_Handler)
    IRQ042_Handler                           0x000019cd   Thumb Code    12  hc32_ll_interrupts.o(i.IRQ042_Handler)
    IRQ043_Handler                           0x000019dd   Thumb Code    12  hc32_ll_interrupts.o(i.IRQ043_Handler)
    IRQ044_Handler                           0x000019ed   Thumb Code    12  hc32_ll_interrupts.o(i.IRQ044_Handler)
    IRQ045_Handler                           0x000019fd   Thumb Code    12  hc32_ll_interrupts.o(i.IRQ045_Handler)
    IRQ046_Handler                           0x00001a0d   Thumb Code    12  hc32_ll_interrupts.o(i.IRQ046_Handler)
    IRQ047_Handler                           0x00001a1d   Thumb Code    12  hc32_ll_interrupts.o(i.IRQ047_Handler)
    IRQ048_Handler                           0x00001a2d   Thumb Code    12  hc32_ll_interrupts.o(i.IRQ048_Handler)
    IRQ049_Handler                           0x00001a3d   Thumb Code    12  hc32_ll_interrupts.o(i.IRQ049_Handler)
    IRQ050_Handler                           0x00001a4d   Thumb Code    12  hc32_ll_interrupts.o(i.IRQ050_Handler)
    IRQ051_Handler                           0x00001a5d   Thumb Code    12  hc32_ll_interrupts.o(i.IRQ051_Handler)
    IRQ052_Handler                           0x00001a6d   Thumb Code    12  hc32_ll_interrupts.o(i.IRQ052_Handler)
    IRQ053_Handler                           0x00001a7d   Thumb Code    12  hc32_ll_interrupts.o(i.IRQ053_Handler)
    IRQ054_Handler                           0x00001a8d   Thumb Code    12  hc32_ll_interrupts.o(i.IRQ054_Handler)
    IRQ055_Handler                           0x00001a9d   Thumb Code    12  hc32_ll_interrupts.o(i.IRQ055_Handler)
    IRQ056_Handler                           0x00001aad   Thumb Code    12  hc32_ll_interrupts.o(i.IRQ056_Handler)
    IRQ057_Handler                           0x00001abd   Thumb Code    12  hc32_ll_interrupts.o(i.IRQ057_Handler)
    IRQ058_Handler                           0x00001acd   Thumb Code    12  hc32_ll_interrupts.o(i.IRQ058_Handler)
    IRQ059_Handler                           0x00001add   Thumb Code    12  hc32_ll_interrupts.o(i.IRQ059_Handler)
    IRQ060_Handler                           0x00001aed   Thumb Code    12  hc32_ll_interrupts.o(i.IRQ060_Handler)
    IRQ061_Handler                           0x00001afd   Thumb Code    12  hc32_ll_interrupts.o(i.IRQ061_Handler)
    IRQ062_Handler                           0x00001b0d   Thumb Code    12  hc32_ll_interrupts.o(i.IRQ062_Handler)
    IRQ063_Handler                           0x00001b1d   Thumb Code    12  hc32_ll_interrupts.o(i.IRQ063_Handler)
    IRQ064_Handler                           0x00001b2d   Thumb Code    12  hc32_ll_interrupts.o(i.IRQ064_Handler)
    IRQ065_Handler                           0x00001b3d   Thumb Code    12  hc32_ll_interrupts.o(i.IRQ065_Handler)
    IRQ066_Handler                           0x00001b4d   Thumb Code    12  hc32_ll_interrupts.o(i.IRQ066_Handler)
    IRQ067_Handler                           0x00001b5d   Thumb Code    12  hc32_ll_interrupts.o(i.IRQ067_Handler)
    IRQ068_Handler                           0x00001b6d   Thumb Code    12  hc32_ll_interrupts.o(i.IRQ068_Handler)
    IRQ069_Handler                           0x00001b7d   Thumb Code    12  hc32_ll_interrupts.o(i.IRQ069_Handler)
    IRQ070_Handler                           0x00001b8d   Thumb Code    12  hc32_ll_interrupts.o(i.IRQ070_Handler)
    IRQ071_Handler                           0x00001b9d   Thumb Code    12  hc32_ll_interrupts.o(i.IRQ071_Handler)
    IRQ072_Handler                           0x00001bad   Thumb Code    12  hc32_ll_interrupts.o(i.IRQ072_Handler)
    IRQ073_Handler                           0x00001bbd   Thumb Code    12  hc32_ll_interrupts.o(i.IRQ073_Handler)
    IRQ074_Handler                           0x00001bcd   Thumb Code    12  hc32_ll_interrupts.o(i.IRQ074_Handler)
    IRQ075_Handler                           0x00001bdd   Thumb Code    12  hc32_ll_interrupts.o(i.IRQ075_Handler)
    IRQ076_Handler                           0x00001bed   Thumb Code    12  hc32_ll_interrupts.o(i.IRQ076_Handler)
    IRQ077_Handler                           0x00001bfd   Thumb Code    12  hc32_ll_interrupts.o(i.IRQ077_Handler)
    IRQ078_Handler                           0x00001c0d   Thumb Code    12  hc32_ll_interrupts.o(i.IRQ078_Handler)
    IRQ079_Handler                           0x00001c1d   Thumb Code    12  hc32_ll_interrupts.o(i.IRQ079_Handler)
    IRQ080_Handler                           0x00001c2d   Thumb Code    12  hc32_ll_interrupts.o(i.IRQ080_Handler)
    IRQ081_Handler                           0x00001c3d   Thumb Code    12  hc32_ll_interrupts.o(i.IRQ081_Handler)
    IRQ082_Handler                           0x00001c4d   Thumb Code    12  hc32_ll_interrupts.o(i.IRQ082_Handler)
    IRQ083_Handler                           0x00001c5d   Thumb Code    12  hc32_ll_interrupts.o(i.IRQ083_Handler)
    IRQ084_Handler                           0x00001c6d   Thumb Code    12  hc32_ll_interrupts.o(i.IRQ084_Handler)
    IRQ085_Handler                           0x00001c7d   Thumb Code    12  hc32_ll_interrupts.o(i.IRQ085_Handler)
    IRQ086_Handler                           0x00001c8d   Thumb Code    12  hc32_ll_interrupts.o(i.IRQ086_Handler)
    IRQ087_Handler                           0x00001c9d   Thumb Code    12  hc32_ll_interrupts.o(i.IRQ087_Handler)
    IRQ088_Handler                           0x00001cad   Thumb Code    12  hc32_ll_interrupts.o(i.IRQ088_Handler)
    IRQ089_Handler                           0x00001cbd   Thumb Code    12  hc32_ll_interrupts.o(i.IRQ089_Handler)
    IRQ090_Handler                           0x00001ccd   Thumb Code    12  hc32_ll_interrupts.o(i.IRQ090_Handler)
    IRQ091_Handler                           0x00001cdd   Thumb Code    12  hc32_ll_interrupts.o(i.IRQ091_Handler)
    IRQ092_Handler                           0x00001ced   Thumb Code    12  hc32_ll_interrupts.o(i.IRQ092_Handler)
    IRQ093_Handler                           0x00001cfd   Thumb Code    12  hc32_ll_interrupts.o(i.IRQ093_Handler)
    IRQ094_Handler                           0x00001d0d   Thumb Code    12  hc32_ll_interrupts.o(i.IRQ094_Handler)
    IRQ095_Handler                           0x00001d1d   Thumb Code    12  hc32_ll_interrupts.o(i.IRQ095_Handler)
    IRQ096_Handler                           0x00001d2d   Thumb Code    12  hc32_ll_interrupts.o(i.IRQ096_Handler)
    IRQ097_Handler                           0x00001d3d   Thumb Code    12  hc32_ll_interrupts.o(i.IRQ097_Handler)
    IRQ098_Handler                           0x00001d4d   Thumb Code    12  hc32_ll_interrupts.o(i.IRQ098_Handler)
    IRQ099_Handler                           0x00001d5d   Thumb Code    12  hc32_ll_interrupts.o(i.IRQ099_Handler)
    IRQ100_Handler                           0x00001d6d   Thumb Code    12  hc32_ll_interrupts.o(i.IRQ100_Handler)
    IRQ101_Handler                           0x00001d7d   Thumb Code    12  hc32_ll_interrupts.o(i.IRQ101_Handler)
    IRQ102_Handler                           0x00001d8d   Thumb Code    12  hc32_ll_interrupts.o(i.IRQ102_Handler)
    IRQ103_Handler                           0x00001d9d   Thumb Code    12  hc32_ll_interrupts.o(i.IRQ103_Handler)
    IRQ104_Handler                           0x00001dad   Thumb Code    12  hc32_ll_interrupts.o(i.IRQ104_Handler)
    IRQ105_Handler                           0x00001dbd   Thumb Code    12  hc32_ll_interrupts.o(i.IRQ105_Handler)
    IRQ106_Handler                           0x00001dcd   Thumb Code    12  hc32_ll_interrupts.o(i.IRQ106_Handler)
    IRQ107_Handler                           0x00001ddd   Thumb Code    12  hc32_ll_interrupts.o(i.IRQ107_Handler)
    IRQ108_Handler                           0x00001ded   Thumb Code    12  hc32_ll_interrupts.o(i.IRQ108_Handler)
    IRQ109_Handler                           0x00001dfd   Thumb Code    12  hc32_ll_interrupts.o(i.IRQ109_Handler)
    IRQ110_Handler                           0x00001e0d   Thumb Code    12  hc32_ll_interrupts.o(i.IRQ110_Handler)
    IRQ111_Handler                           0x00001e1d   Thumb Code    12  hc32_ll_interrupts.o(i.IRQ111_Handler)
    IRQ112_Handler                           0x00001e2d   Thumb Code    12  hc32_ll_interrupts.o(i.IRQ112_Handler)
    IRQ113_Handler                           0x00001e3d   Thumb Code    12  hc32_ll_interrupts.o(i.IRQ113_Handler)
    IRQ114_Handler                           0x00001e4d   Thumb Code    12  hc32_ll_interrupts.o(i.IRQ114_Handler)
    IRQ115_Handler                           0x00001e5d   Thumb Code    12  hc32_ll_interrupts.o(i.IRQ115_Handler)
    IRQ116_Handler                           0x00001e6d   Thumb Code    12  hc32_ll_interrupts.o(i.IRQ116_Handler)
    IRQ117_Handler                           0x00001e7d   Thumb Code    12  hc32_ll_interrupts.o(i.IRQ117_Handler)
    IRQ118_Handler                           0x00001e8d   Thumb Code    12  hc32_ll_interrupts.o(i.IRQ118_Handler)
    IRQ119_Handler                           0x00001e9d   Thumb Code    12  hc32_ll_interrupts.o(i.IRQ119_Handler)
    IRQ120_Handler                           0x00001ead   Thumb Code    12  hc32_ll_interrupts.o(i.IRQ120_Handler)
    IRQ121_Handler                           0x00001ebd   Thumb Code    12  hc32_ll_interrupts.o(i.IRQ121_Handler)
    IRQ122_Handler                           0x00001ecd   Thumb Code    12  hc32_ll_interrupts.o(i.IRQ122_Handler)
    IRQ123_Handler                           0x00001edd   Thumb Code    12  hc32_ll_interrupts.o(i.IRQ123_Handler)
    IRQ124_Handler                           0x00001eed   Thumb Code    12  hc32_ll_interrupts.o(i.IRQ124_Handler)
    IRQ125_Handler                           0x00001efd   Thumb Code    12  hc32_ll_interrupts.o(i.IRQ125_Handler)
    IRQ126_Handler                           0x00001f0d   Thumb Code    12  hc32_ll_interrupts.o(i.IRQ126_Handler)
    IRQ127_Handler                           0x00001f1d   Thumb Code    12  hc32_ll_interrupts.o(i.IRQ127_Handler)
    LL_PERIPH_WE                             0x00001f2d   Thumb Code   122  hc32_ll.o(i.LL_PERIPH_WE)
    LL_PERIPH_WP                             0x00001fbd   Thumb Code   114  hc32_ll.o(i.LL_PERIPH_WP)
    SRAM_SetWaitCycle                        0x00002079   Thumb Code   182  hc32_ll_sram.o(i.SRAM_SetWaitCycle)
    SystemCoreClockUpdate                    0x000029ed   Thumb Code   174  system_hc32f460.o(i.SystemCoreClockUpdate)
    SystemInit                               0x00002ab9   Thumb Code    28  system_hc32f460.o(i.SystemInit)
    Task_LED_Entry                           0x00002ad9   Thumb Code    50  app_tast.o(i.Task_LED_Entry)
    Task_Print_Entry                         0x00002b11   Thumb Code    46  app_tast.o(i.Task_Print_Entry)
    USART_ClearStatus                        0x00002edd   Thumb Code   108  hc32_ll_usart.o(i.USART_ClearStatus)
    USART_FuncCmd                            0x00002f91   Thumb Code   124  hc32_ll_usart.o(i.USART_FuncCmd)
    USART_GetClockDiv                        0x0000306d   Thumb Code    52  hc32_ll_usart.o(i.USART_GetClockDiv)
    USART_GetStatus                          0x000030e5   Thumb Code    88  hc32_ll_usart.o(i.USART_GetStatus)
    USART_ReadData                           0x00003229   Thumb Code    48  hc32_ll_usart.o(i.USART_ReadData)
    USART_SetBaudrate                        0x000032d5   Thumb Code   218  hc32_ll_usart.o(i.USART_SetBaudrate)
    USART_UART_Init                          0x000033f5   Thumb Code   436  hc32_ll_usart.o(i.USART_UART_Init)
    USART_UART_StructInit                    0x000035ed   Thumb Code    46  hc32_ll_usart.o(i.USART_UART_StructInit)
    USART_WriteData                          0x0000361d   Thumb Code    74  hc32_ll_usart.o(i.USART_WriteData)
    Uart_Config                              0x000036ad   Thumb Code   138  bsp_init.o(i.Uart_Config)
    __0printf$3                              0x00003741   Thumb Code    22  printf3.o(i.__0printf$3)
    __1printf$3                              0x00003741   Thumb Code     0  printf3.o(i.__0printf$3)
    __2printf                                0x00003741   Thumb Code     0  printf3.o(i.__0printf$3)
    __scatterload_copy                       0x00003761   Thumb Code    14  handlers.o(i.__scatterload_copy)
    __scatterload_zeroinit                   0x0000376f   Thumb Code    14  handlers.o(i.__scatterload_zeroinit)
    fputc                                    0x00003935   Thumb Code    24  bsp_init.o(i.fputc)
    main                                     0x0000394d   Thumb Code    72  main.o(i.main)
    pvPortMalloc                             0x00004399   Thumb Code   306  heap_4.o(i.pvPortMalloc)
    pvTaskIncrementMutexHeldCount            0x000044e5   Thumb Code    26  tasks.o(i.pvTaskIncrementMutexHeldCount)
    pxPortInitialiseStack                    0x00004505   Thumb Code    38  port.o(i.pxPortInitialiseStack)
    test                                     0x00004531   Thumb Code   354  test.o(i.test)
    uxListRemove                             0x000046c1   Thumb Code    40  list.o(i.uxListRemove)
    vListInitialise                          0x000046e9   Thumb Code    26  list.o(i.vListInitialise)
    vListInitialiseItem                      0x00004703   Thumb Code     6  list.o(i.vListInitialiseItem)
    vListInsert                              0x00004709   Thumb Code    52  list.o(i.vListInsert)
    vListInsertEnd                           0x0000473d   Thumb Code    24  list.o(i.vListInsertEnd)
    vPortEnterCritical                       0x00004755   Thumb Code    76  port.o(i.vPortEnterCritical)
    vPortExitCritical                        0x000047a9   Thumb Code    56  port.o(i.vPortExitCritical)
    vPortFree                                0x000047e5   Thumb Code   150  heap_4.o(i.vPortFree)
    vPortSetupTimerInterrupt                 0x00004889   Thumb Code    36  port.o(i.vPortSetupTimerInterrupt)
    vPortValidateInterruptPriority           0x000048b1   Thumb Code   106  port.o(i.vPortValidateInterruptPriority)
    vQueueAddToRegistry                      0x00004929   Thumb Code    38  queue.o(i.vQueueAddToRegistry)
    vQueueWaitForMessageRestricted           0x00004955   Thumb Code    74  queue.o(i.vQueueWaitForMessageRestricted)
    vTaskDelay                               0x000049a1   Thumb Code    82  tasks.o(i.vTaskDelay)
    vTaskDelete                              0x000049fd   Thumb Code   202  tasks.o(i.vTaskDelete)
    vTaskInternalSetTimeOutState             0x00004af1   Thumb Code    14  tasks.o(i.vTaskInternalSetTimeOutState)
    vTaskMissedYield                         0x00004b09   Thumb Code     8  tasks.o(i.vTaskMissedYield)
    vTaskPlaceOnEventList                    0x00004b15   Thumb Code    52  tasks.o(i.vTaskPlaceOnEventList)
    vTaskPlaceOnEventListRestricted          0x00004b4d   Thumb Code    60  tasks.o(i.vTaskPlaceOnEventListRestricted)
    vTaskPriorityDisinheritAfterTimeout      0x00004b8d   Thumb Code   216  tasks.o(i.vTaskPriorityDisinheritAfterTimeout)
    vTaskStartScheduler                      0x00004c71   Thumb Code   118  tasks.o(i.vTaskStartScheduler)
    vTaskSuspendAll                          0x00004d05   Thumb Code    12  tasks.o(i.vTaskSuspendAll)
    vTaskSwitchContext                       0x00004d15   Thumb Code   118  tasks.o(i.vTaskSwitchContext)
    xPortStartScheduler                      0x00004da1   Thumb Code   330  port.o(i.xPortStartScheduler)
    xPortSysTickHandler                      0x00004f09   Thumb Code    46  port.o(i.xPortSysTickHandler)
    xQueueCreateCountingSemaphore            0x00004f3d   Thumb Code    92  queue.o(i.xQueueCreateCountingSemaphore)
    xQueueGenericCreate                      0x00004f99   Thumb Code   124  queue.o(i.xQueueGenericCreate)
    xQueueGenericReset                       0x00005015   Thumb Code   146  queue.o(i.xQueueGenericReset)
    xQueueGenericSend                        0x000050ad   Thumb Code   420  queue.o(i.xQueueGenericSend)
    xQueueGenericSendFromISR                 0x00005255   Thumb Code   288  queue.o(i.xQueueGenericSendFromISR)
    xQueueReceive                            0x00005375   Thumb Code   356  queue.o(i.xQueueReceive)
    xQueueSemaphoreTake                      0x000054dd   Thumb Code   434  queue.o(i.xQueueSemaphoreTake)
    xTaskCheckForTimeOut                     0x00005695   Thumb Code   136  tasks.o(i.xTaskCheckForTimeOut)
    xTaskCreate                              0x00005725   Thumb Code    96  tasks.o(i.xTaskCreate)
    xTaskGetSchedulerState                   0x00005785   Thumb Code    24  tasks.o(i.xTaskGetSchedulerState)
    xTaskGetTickCount                        0x000057a5   Thumb Code     6  tasks.o(i.xTaskGetTickCount)
    xTaskIncrementTick                       0x000057b1   Thumb Code   282  tasks.o(i.xTaskIncrementTick)
    xTaskPriorityDisinherit                  0x000058f9   Thumb Code   174  tasks.o(i.xTaskPriorityDisinherit)
    xTaskPriorityInherit                     0x000059b5   Thumb Code   172  tasks.o(i.xTaskPriorityInherit)
    xTaskRemoveFromEventList                 0x00005a6d   Thumb Code   128  tasks.o(i.xTaskRemoveFromEventList)
    xTaskResumeAll                           0x00005b05   Thumb Code   224  tasks.o(i.xTaskResumeAll)
    xTimerCreateTimerTask                    0x00005c09   Thumb Code    66  timers.o(i.xTimerCreateTimerTask)
    xTimerGenericCommand                     0x00005c61   Thumb Code   126  timers.o(i.xTimerGenericCommand)
    Region$$Table$$Base                      0x00005d04   Number         0  anon$$obj.o(Region$$Table)
    Region$$Table$$Limit                     0x00005d24   Number         0  anon$$obj.o(Region$$Table)
    AppTaskCreate_Handle                     0x1fff8000   Data           4  app_tast.o(.data)
    LEDTaskCreate_Handle                     0x1fff8004   Data           4  app_tast.o(.data)
    PrintTaskCreate_Handle                   0x1fff8008   Data           4  app_tast.o(.data)
    CountSem_Handle                          0x1fff800c   Data           4  app_tast.o(.data)
    a                                        0x1fff8010   Data          50  test.o(.data)
    b                                        0x1fff8042   Data          50  test.o(.data)
    c                                        0x1fff8074   Data           4  test.o(.data)
    aei                                      0x1fff8078   Data          10  test.o(.data)
    n                                        0x1fff8082   Data           1  test.o(.data)
    m                                        0x1fff8083   Data           1  test.o(.data)
    i                                        0x1fff8084   Data           4  test.o(.data)
    j                                        0x1fff8088   Data           4  test.o(.data)
    pxCurrentTCB                             0x1fff808c   Data           4  tasks.o(.data)
    __stdout                                 0x1fff8108   Data           4  stdout.o(.data)
    g_arry                                   0x1fff810c   Data          50  test.o(.bss)
    g_bb                                     0x1fff813e   Data           9  test.o(.bss)
    f                                        0x1fff8148   Data         624  test.o(.bss)
    xQueueRegistry                           0x1fff85b8   Data          64  queue.o(.bss)
    SystemCoreClock                          0x2000b2e8   Data           4  system_hc32f460.o(.bss.noinit)
    HRC_VALUE                                0x2000b2ec   Data           4  system_hc32f460.o(.bss.noinit)
    __initial_sp                             0x2000d2f0   Data           0  startup_hc32f460.o(STACK)



==============================================================================

Memory Map of the image

  Image Entry point : 0x00000281

  Load Region LR_IROM1 (Base: 0x00000000, Size: 0x00005e30, Max: 0x00080000, ABSOLUTE)

    Execution Region ER_IROM1 (Exec base: 0x00000000, Load base: 0x00000000, Size: 0x00005d24, Max: 0x00080000, ABSOLUTE)

    Exec Addr    Load Addr    Size         Type   Attr      Idx    E Section Name        Object

    0x00000000   0x00000000   0x00000280   Data   RO            3    RESET               startup_hc32f460.o
    0x00000280   0x00000280   0x00000000   Code   RO         3676  * .ARM.Collect$$$$00000000  mc_w.l(entry.o)
    0x00000280   0x00000280   0x00000004   Code   RO         3992    .ARM.Collect$$$$00000001  mc_w.l(entry2.o)
    0x00000284   0x00000284   0x00000004   Code   RO         3995    .ARM.Collect$$$$00000004  mc_w.l(entry5.o)
    0x00000288   0x00000288   0x00000000   Code   RO         3997    .ARM.Collect$$$$00000008  mc_w.l(entry7b.o)
    0x00000288   0x00000288   0x00000000   Code   RO         3999    .ARM.Collect$$$$0000000A  mc_w.l(entry8b.o)
    0x00000288   0x00000288   0x00000008   Code   RO         4000    .ARM.Collect$$$$0000000B  mc_w.l(entry9a.o)
    0x00000290   0x00000290   0x00000004   Code   RO         4007    .ARM.Collect$$$$0000000E  mc_w.l(entry12b.o)
    0x00000294   0x00000294   0x00000000   Code   RO         4002    .ARM.Collect$$$$0000000F  mc_w.l(entry10a.o)
    0x00000294   0x00000294   0x00000000   Code   RO         4004    .ARM.Collect$$$$00000011  mc_w.l(entry11a.o)
    0x00000294   0x00000294   0x00000004   Code   RO         3993    .ARM.Collect$$$$00002712  mc_w.l(entry2.o)
    0x00000298   0x00000298   0x000000be   Code   RO         3599    .emb_text           port.o
    0x00000356   0x00000356   0x00000002   PAD
    0x00000358   0x00000358   0x00000058   Code   RO            4    .text               startup_hc32f460.o
    0x000003b0   0x000003b0   0x00000024   Code   RO         3681    .text               mc_w.l(memcpya.o)
    0x000003d4   0x000003d4   0x00000024   Code   RO         3685    .text               mc_w.l(memseta.o)
    0x000003f8   0x000003f8   0x00000000   Code   RO         4017    .text               mc_w.l(iusefp.o)
    0x000003f8   0x000003f8   0x00000004   Code   RO         1102    i.DDL_AssertHandler  hc32_ll_utility.o
    0x000003fc   0x000003fc   0x00000002   Code   RO         4037    i.__scatterload_null  mc_w.l(handlers.o)
    0x000003fe   0x000003fe   0x00000002   PAD
    0x00000400   0x00000400   0x00000020   Data   RO          517    .ARM.__AT_0x00000400  hc32_ll_icg.o
    0x00000420   0x00000420   0x00000062   Code   RO         3679    .text               mc_w.l(uldiv.o)
    0x00000482   0x00000482   0x000000de   Code   RO         3984    .text               mf_w.l(ddiv.o)
    0x00000560   0x00000560   0x0000001a   Code   RO         3986    .text               mf_w.l(dfltui.o)
    0x0000057a   0x0000057a   0x00000018   Code   RO         3988    .text               mf_w.l(dfltul.o)
    0x00000592   0x00000592   0x00000038   Code   RO         3990    .text               mf_w.l(d2f.o)
    0x000005ca   0x000005ca   0x0000002c   Code   RO         4009    .text               mc_w.l(uidiv.o)
    0x000005f6   0x000005f6   0x0000001e   Code   RO         4011    .text               mc_w.l(llshl.o)
    0x00000614   0x00000614   0x00000020   Code   RO         4013    .text               mc_w.l(llushr.o)
    0x00000634   0x00000634   0x0000006e   Code   RO         4018    .text               mf_w.l(fepilogue.o)
    0x000006a2   0x000006a2   0x000000ba   Code   RO         4020    .text               mf_w.l(depilogue.o)
    0x0000075c   0x0000075c   0x00000024   Code   RO         4030    .text               mc_w.l(init.o)
    0x00000780   0x00000780   0x00000080   Code   RO          187    i.AppTaskCreate     app_tast.o
    0x00000800   0x00000800   0x000000b4   Code   RO          238    i.BSP_CLK_Init      bsp_init.o
    0x000008b4   0x000008b4   0x00000016   Code   RO          839    i.CLK_Delay         hc32_ll_clk.o
    0x000008ca   0x000008ca   0x00000002   PAD
    0x000008cc   0x000008cc   0x00000068   Code   RO          843    i.CLK_GetStableStatus  hc32_ll_clk.o
    0x00000934   0x00000934   0x000000d0   Code   RO          853    i.CLK_PLLCmd        hc32_ll_clk.o
    0x00000a04   0x00000a04   0x000002ac   Code   RO          854    i.CLK_PLLInit       hc32_ll_clk.o
    0x00000cb0   0x00000cb0   0x00000052   Code   RO          855    i.CLK_PLLStructInit  hc32_ll_clk.o
    0x00000d02   0x00000d02   0x00000014   Code   RO          859    i.CLK_SetClockDiv   hc32_ll_clk.o
    0x00000d16   0x00000d16   0x00000010   Code   RO          863    i.CLK_SetSysClockSrc  hc32_ll_clk.o
    0x00000d26   0x00000d26   0x00000030   Code   RO          867    i.CLK_WaitStable    hc32_ll_clk.o
    0x00000d56   0x00000d56   0x00000002   PAD
    0x00000d58   0x00000d58   0x000000cc   Code   RO          871    i.CLK_XtalCmd       hc32_ll_clk.o
    0x00000e24   0x00000e24   0x0000014c   Code   RO          872    i.CLK_XtalInit      hc32_ll_clk.o
    0x00000f70   0x00000f70   0x0000001e   Code   RO          875    i.CLK_XtalStructInit  hc32_ll_clk.o
    0x00000f8e   0x00000f8e   0x00000002   PAD
    0x00000f90   0x00000f90   0x00000068   Code   RO          538    i.ClockSync_CalculateDiv  hc32_ll_usart.o
    0x00000ff8   0x00000ff8   0x00000178   Code   RO          539    i.ClockSync_CalculateDivFraction  hc32_ll_usart.o
    0x00001170   0x00001170   0x00000128   Code   RO          540    i.ClockSync_CalculateDivInteger  hc32_ll_usart.o
    0x00001298   0x00001298   0x00000014   Code   RO          239    i.Debug_Uart_Init   bsp_init.o
    0x000012ac   0x000012ac   0x00000054   Code   RO          240    i.Debug_Uart_SendDataPoll  bsp_init.o
    0x00001300   0x00001300   0x000000c0   Code   RO         1270    i.EFM_SetWaitCycle  hc32_ll_efm.o
    0x000013c0   0x000013c0   0x0000008c   Code   RO          476    i.FCG_Fcg1PeriphClockCmd  hc32_ll_fcg.o
    0x0000144c   0x0000144c   0x000000dc   Code   RO         1478    i.GPIO_SetFunc      hc32_ll_gpio.o
    0x00001528   0x00001528   0x00000094   Code   RO         1480    i.GPIO_SetReadWaitCycle  hc32_ll_gpio.o
    0x000015bc   0x000015bc   0x00000084   Code   RO          241    i.INTC_IrqInstalHandler  bsp_init.o
    0x00001640   0x00001640   0x000000ec   Code   RO         1612    i.INTC_IrqSignIn    hc32_ll_interrupts.o
    0x0000172c   0x0000172c   0x00000010   Code   RO         1617    i.IRQ000_Handler    hc32_ll_interrupts.o
    0x0000173c   0x0000173c   0x00000010   Code   RO         1618    i.IRQ001_Handler    hc32_ll_interrupts.o
    0x0000174c   0x0000174c   0x00000010   Code   RO         1619    i.IRQ002_Handler    hc32_ll_interrupts.o
    0x0000175c   0x0000175c   0x00000010   Code   RO         1620    i.IRQ003_Handler    hc32_ll_interrupts.o
    0x0000176c   0x0000176c   0x00000010   Code   RO         1621    i.IRQ004_Handler    hc32_ll_interrupts.o
    0x0000177c   0x0000177c   0x00000010   Code   RO         1622    i.IRQ005_Handler    hc32_ll_interrupts.o
    0x0000178c   0x0000178c   0x00000010   Code   RO         1623    i.IRQ006_Handler    hc32_ll_interrupts.o
    0x0000179c   0x0000179c   0x00000010   Code   RO         1624    i.IRQ007_Handler    hc32_ll_interrupts.o
    0x000017ac   0x000017ac   0x00000010   Code   RO         1625    i.IRQ008_Handler    hc32_ll_interrupts.o
    0x000017bc   0x000017bc   0x00000010   Code   RO         1626    i.IRQ009_Handler    hc32_ll_interrupts.o
    0x000017cc   0x000017cc   0x00000010   Code   RO         1627    i.IRQ010_Handler    hc32_ll_interrupts.o
    0x000017dc   0x000017dc   0x00000010   Code   RO         1628    i.IRQ011_Handler    hc32_ll_interrupts.o
    0x000017ec   0x000017ec   0x00000010   Code   RO         1629    i.IRQ012_Handler    hc32_ll_interrupts.o
    0x000017fc   0x000017fc   0x00000010   Code   RO         1630    i.IRQ013_Handler    hc32_ll_interrupts.o
    0x0000180c   0x0000180c   0x00000010   Code   RO         1631    i.IRQ014_Handler    hc32_ll_interrupts.o
    0x0000181c   0x0000181c   0x00000010   Code   RO         1632    i.IRQ015_Handler    hc32_ll_interrupts.o
    0x0000182c   0x0000182c   0x00000010   Code   RO         1633    i.IRQ016_Handler    hc32_ll_interrupts.o
    0x0000183c   0x0000183c   0x00000010   Code   RO         1634    i.IRQ017_Handler    hc32_ll_interrupts.o
    0x0000184c   0x0000184c   0x00000010   Code   RO         1635    i.IRQ018_Handler    hc32_ll_interrupts.o
    0x0000185c   0x0000185c   0x00000010   Code   RO         1636    i.IRQ019_Handler    hc32_ll_interrupts.o
    0x0000186c   0x0000186c   0x00000010   Code   RO         1637    i.IRQ020_Handler    hc32_ll_interrupts.o
    0x0000187c   0x0000187c   0x00000010   Code   RO         1638    i.IRQ021_Handler    hc32_ll_interrupts.o
    0x0000188c   0x0000188c   0x00000010   Code   RO         1639    i.IRQ022_Handler    hc32_ll_interrupts.o
    0x0000189c   0x0000189c   0x00000010   Code   RO         1640    i.IRQ023_Handler    hc32_ll_interrupts.o
    0x000018ac   0x000018ac   0x00000010   Code   RO         1641    i.IRQ024_Handler    hc32_ll_interrupts.o
    0x000018bc   0x000018bc   0x00000010   Code   RO         1642    i.IRQ025_Handler    hc32_ll_interrupts.o
    0x000018cc   0x000018cc   0x00000010   Code   RO         1643    i.IRQ026_Handler    hc32_ll_interrupts.o
    0x000018dc   0x000018dc   0x00000010   Code   RO         1644    i.IRQ027_Handler    hc32_ll_interrupts.o
    0x000018ec   0x000018ec   0x00000010   Code   RO         1645    i.IRQ028_Handler    hc32_ll_interrupts.o
    0x000018fc   0x000018fc   0x00000010   Code   RO         1646    i.IRQ029_Handler    hc32_ll_interrupts.o
    0x0000190c   0x0000190c   0x00000010   Code   RO         1647    i.IRQ030_Handler    hc32_ll_interrupts.o
    0x0000191c   0x0000191c   0x00000010   Code   RO         1648    i.IRQ031_Handler    hc32_ll_interrupts.o
    0x0000192c   0x0000192c   0x00000010   Code   RO         1649    i.IRQ032_Handler    hc32_ll_interrupts.o
    0x0000193c   0x0000193c   0x00000010   Code   RO         1650    i.IRQ033_Handler    hc32_ll_interrupts.o
    0x0000194c   0x0000194c   0x00000010   Code   RO         1651    i.IRQ034_Handler    hc32_ll_interrupts.o
    0x0000195c   0x0000195c   0x00000010   Code   RO         1652    i.IRQ035_Handler    hc32_ll_interrupts.o
    0x0000196c   0x0000196c   0x00000010   Code   RO         1653    i.IRQ036_Handler    hc32_ll_interrupts.o
    0x0000197c   0x0000197c   0x00000010   Code   RO         1654    i.IRQ037_Handler    hc32_ll_interrupts.o
    0x0000198c   0x0000198c   0x00000010   Code   RO         1655    i.IRQ038_Handler    hc32_ll_interrupts.o
    0x0000199c   0x0000199c   0x00000010   Code   RO         1656    i.IRQ039_Handler    hc32_ll_interrupts.o
    0x000019ac   0x000019ac   0x00000010   Code   RO         1657    i.IRQ040_Handler    hc32_ll_interrupts.o
    0x000019bc   0x000019bc   0x00000010   Code   RO         1658    i.IRQ041_Handler    hc32_ll_interrupts.o
    0x000019cc   0x000019cc   0x00000010   Code   RO         1659    i.IRQ042_Handler    hc32_ll_interrupts.o
    0x000019dc   0x000019dc   0x00000010   Code   RO         1660    i.IRQ043_Handler    hc32_ll_interrupts.o
    0x000019ec   0x000019ec   0x00000010   Code   RO         1661    i.IRQ044_Handler    hc32_ll_interrupts.o
    0x000019fc   0x000019fc   0x00000010   Code   RO         1662    i.IRQ045_Handler    hc32_ll_interrupts.o
    0x00001a0c   0x00001a0c   0x00000010   Code   RO         1663    i.IRQ046_Handler    hc32_ll_interrupts.o
    0x00001a1c   0x00001a1c   0x00000010   Code   RO         1664    i.IRQ047_Handler    hc32_ll_interrupts.o
    0x00001a2c   0x00001a2c   0x00000010   Code   RO         1665    i.IRQ048_Handler    hc32_ll_interrupts.o
    0x00001a3c   0x00001a3c   0x00000010   Code   RO         1666    i.IRQ049_Handler    hc32_ll_interrupts.o
    0x00001a4c   0x00001a4c   0x00000010   Code   RO         1667    i.IRQ050_Handler    hc32_ll_interrupts.o
    0x00001a5c   0x00001a5c   0x00000010   Code   RO         1668    i.IRQ051_Handler    hc32_ll_interrupts.o
    0x00001a6c   0x00001a6c   0x00000010   Code   RO         1669    i.IRQ052_Handler    hc32_ll_interrupts.o
    0x00001a7c   0x00001a7c   0x00000010   Code   RO         1670    i.IRQ053_Handler    hc32_ll_interrupts.o
    0x00001a8c   0x00001a8c   0x00000010   Code   RO         1671    i.IRQ054_Handler    hc32_ll_interrupts.o
    0x00001a9c   0x00001a9c   0x00000010   Code   RO         1672    i.IRQ055_Handler    hc32_ll_interrupts.o
    0x00001aac   0x00001aac   0x00000010   Code   RO         1673    i.IRQ056_Handler    hc32_ll_interrupts.o
    0x00001abc   0x00001abc   0x00000010   Code   RO         1674    i.IRQ057_Handler    hc32_ll_interrupts.o
    0x00001acc   0x00001acc   0x00000010   Code   RO         1675    i.IRQ058_Handler    hc32_ll_interrupts.o
    0x00001adc   0x00001adc   0x00000010   Code   RO         1676    i.IRQ059_Handler    hc32_ll_interrupts.o
    0x00001aec   0x00001aec   0x00000010   Code   RO         1677    i.IRQ060_Handler    hc32_ll_interrupts.o
    0x00001afc   0x00001afc   0x00000010   Code   RO         1678    i.IRQ061_Handler    hc32_ll_interrupts.o
    0x00001b0c   0x00001b0c   0x00000010   Code   RO         1679    i.IRQ062_Handler    hc32_ll_interrupts.o
    0x00001b1c   0x00001b1c   0x00000010   Code   RO         1680    i.IRQ063_Handler    hc32_ll_interrupts.o
    0x00001b2c   0x00001b2c   0x00000010   Code   RO         1681    i.IRQ064_Handler    hc32_ll_interrupts.o
    0x00001b3c   0x00001b3c   0x00000010   Code   RO         1682    i.IRQ065_Handler    hc32_ll_interrupts.o
    0x00001b4c   0x00001b4c   0x00000010   Code   RO         1683    i.IRQ066_Handler    hc32_ll_interrupts.o
    0x00001b5c   0x00001b5c   0x00000010   Code   RO         1684    i.IRQ067_Handler    hc32_ll_interrupts.o
    0x00001b6c   0x00001b6c   0x00000010   Code   RO         1685    i.IRQ068_Handler    hc32_ll_interrupts.o
    0x00001b7c   0x00001b7c   0x00000010   Code   RO         1686    i.IRQ069_Handler    hc32_ll_interrupts.o
    0x00001b8c   0x00001b8c   0x00000010   Code   RO         1687    i.IRQ070_Handler    hc32_ll_interrupts.o
    0x00001b9c   0x00001b9c   0x00000010   Code   RO         1688    i.IRQ071_Handler    hc32_ll_interrupts.o
    0x00001bac   0x00001bac   0x00000010   Code   RO         1689    i.IRQ072_Handler    hc32_ll_interrupts.o
    0x00001bbc   0x00001bbc   0x00000010   Code   RO         1690    i.IRQ073_Handler    hc32_ll_interrupts.o
    0x00001bcc   0x00001bcc   0x00000010   Code   RO         1691    i.IRQ074_Handler    hc32_ll_interrupts.o
    0x00001bdc   0x00001bdc   0x00000010   Code   RO         1692    i.IRQ075_Handler    hc32_ll_interrupts.o
    0x00001bec   0x00001bec   0x00000010   Code   RO         1693    i.IRQ076_Handler    hc32_ll_interrupts.o
    0x00001bfc   0x00001bfc   0x00000010   Code   RO         1694    i.IRQ077_Handler    hc32_ll_interrupts.o
    0x00001c0c   0x00001c0c   0x00000010   Code   RO         1695    i.IRQ078_Handler    hc32_ll_interrupts.o
    0x00001c1c   0x00001c1c   0x00000010   Code   RO         1696    i.IRQ079_Handler    hc32_ll_interrupts.o
    0x00001c2c   0x00001c2c   0x00000010   Code   RO         1697    i.IRQ080_Handler    hc32_ll_interrupts.o
    0x00001c3c   0x00001c3c   0x00000010   Code   RO         1698    i.IRQ081_Handler    hc32_ll_interrupts.o
    0x00001c4c   0x00001c4c   0x00000010   Code   RO         1699    i.IRQ082_Handler    hc32_ll_interrupts.o
    0x00001c5c   0x00001c5c   0x00000010   Code   RO         1700    i.IRQ083_Handler    hc32_ll_interrupts.o
    0x00001c6c   0x00001c6c   0x00000010   Code   RO         1701    i.IRQ084_Handler    hc32_ll_interrupts.o
    0x00001c7c   0x00001c7c   0x00000010   Code   RO         1702    i.IRQ085_Handler    hc32_ll_interrupts.o
    0x00001c8c   0x00001c8c   0x00000010   Code   RO         1703    i.IRQ086_Handler    hc32_ll_interrupts.o
    0x00001c9c   0x00001c9c   0x00000010   Code   RO         1704    i.IRQ087_Handler    hc32_ll_interrupts.o
    0x00001cac   0x00001cac   0x00000010   Code   RO         1705    i.IRQ088_Handler    hc32_ll_interrupts.o
    0x00001cbc   0x00001cbc   0x00000010   Code   RO         1706    i.IRQ089_Handler    hc32_ll_interrupts.o
    0x00001ccc   0x00001ccc   0x00000010   Code   RO         1707    i.IRQ090_Handler    hc32_ll_interrupts.o
    0x00001cdc   0x00001cdc   0x00000010   Code   RO         1708    i.IRQ091_Handler    hc32_ll_interrupts.o
    0x00001cec   0x00001cec   0x00000010   Code   RO         1709    i.IRQ092_Handler    hc32_ll_interrupts.o
    0x00001cfc   0x00001cfc   0x00000010   Code   RO         1710    i.IRQ093_Handler    hc32_ll_interrupts.o
    0x00001d0c   0x00001d0c   0x00000010   Code   RO         1711    i.IRQ094_Handler    hc32_ll_interrupts.o
    0x00001d1c   0x00001d1c   0x00000010   Code   RO         1712    i.IRQ095_Handler    hc32_ll_interrupts.o
    0x00001d2c   0x00001d2c   0x00000010   Code   RO         1713    i.IRQ096_Handler    hc32_ll_interrupts.o
    0x00001d3c   0x00001d3c   0x00000010   Code   RO         1714    i.IRQ097_Handler    hc32_ll_interrupts.o
    0x00001d4c   0x00001d4c   0x00000010   Code   RO         1715    i.IRQ098_Handler    hc32_ll_interrupts.o
    0x00001d5c   0x00001d5c   0x00000010   Code   RO         1716    i.IRQ099_Handler    hc32_ll_interrupts.o
    0x00001d6c   0x00001d6c   0x00000010   Code   RO         1717    i.IRQ100_Handler    hc32_ll_interrupts.o
    0x00001d7c   0x00001d7c   0x00000010   Code   RO         1718    i.IRQ101_Handler    hc32_ll_interrupts.o
    0x00001d8c   0x00001d8c   0x00000010   Code   RO         1719    i.IRQ102_Handler    hc32_ll_interrupts.o
    0x00001d9c   0x00001d9c   0x00000010   Code   RO         1720    i.IRQ103_Handler    hc32_ll_interrupts.o
    0x00001dac   0x00001dac   0x00000010   Code   RO         1721    i.IRQ104_Handler    hc32_ll_interrupts.o
    0x00001dbc   0x00001dbc   0x00000010   Code   RO         1722    i.IRQ105_Handler    hc32_ll_interrupts.o
    0x00001dcc   0x00001dcc   0x00000010   Code   RO         1723    i.IRQ106_Handler    hc32_ll_interrupts.o
    0x00001ddc   0x00001ddc   0x00000010   Code   RO         1724    i.IRQ107_Handler    hc32_ll_interrupts.o
    0x00001dec   0x00001dec   0x00000010   Code   RO         1725    i.IRQ108_Handler    hc32_ll_interrupts.o
    0x00001dfc   0x00001dfc   0x00000010   Code   RO         1726    i.IRQ109_Handler    hc32_ll_interrupts.o
    0x00001e0c   0x00001e0c   0x00000010   Code   RO         1727    i.IRQ110_Handler    hc32_ll_interrupts.o
    0x00001e1c   0x00001e1c   0x00000010   Code   RO         1728    i.IRQ111_Handler    hc32_ll_interrupts.o
    0x00001e2c   0x00001e2c   0x00000010   Code   RO         1729    i.IRQ112_Handler    hc32_ll_interrupts.o
    0x00001e3c   0x00001e3c   0x00000010   Code   RO         1730    i.IRQ113_Handler    hc32_ll_interrupts.o
    0x00001e4c   0x00001e4c   0x00000010   Code   RO         1731    i.IRQ114_Handler    hc32_ll_interrupts.o
    0x00001e5c   0x00001e5c   0x00000010   Code   RO         1732    i.IRQ115_Handler    hc32_ll_interrupts.o
    0x00001e6c   0x00001e6c   0x00000010   Code   RO         1733    i.IRQ116_Handler    hc32_ll_interrupts.o
    0x00001e7c   0x00001e7c   0x00000010   Code   RO         1734    i.IRQ117_Handler    hc32_ll_interrupts.o
    0x00001e8c   0x00001e8c   0x00000010   Code   RO         1735    i.IRQ118_Handler    hc32_ll_interrupts.o
    0x00001e9c   0x00001e9c   0x00000010   Code   RO         1736    i.IRQ119_Handler    hc32_ll_interrupts.o
    0x00001eac   0x00001eac   0x00000010   Code   RO         1737    i.IRQ120_Handler    hc32_ll_interrupts.o
    0x00001ebc   0x00001ebc   0x00000010   Code   RO         1738    i.IRQ121_Handler    hc32_ll_interrupts.o
    0x00001ecc   0x00001ecc   0x00000010   Code   RO         1739    i.IRQ122_Handler    hc32_ll_interrupts.o
    0x00001edc   0x00001edc   0x00000010   Code   RO         1740    i.IRQ123_Handler    hc32_ll_interrupts.o
    0x00001eec   0x00001eec   0x00000010   Code   RO         1741    i.IRQ124_Handler    hc32_ll_interrupts.o
    0x00001efc   0x00001efc   0x00000010   Code   RO         1742    i.IRQ125_Handler    hc32_ll_interrupts.o
    0x00001f0c   0x00001f0c   0x00000010   Code   RO         1743    i.IRQ126_Handler    hc32_ll_interrupts.o
    0x00001f1c   0x00001f1c   0x00000010   Code   RO         1744    i.IRQ127_Handler    hc32_ll_interrupts.o
    0x00001f2c   0x00001f2c   0x00000090   Code   RO          423    i.LL_PERIPH_WE      hc32_ll.o
    0x00001fbc   0x00001fbc   0x00000088   Code   RO          424    i.LL_PERIPH_WP      hc32_ll.o
    0x00002044   0x00002044   0x0000001c   Code   RO          425    i.PWC_REG_Lock      hc32_ll.o
    0x00002060   0x00002060   0x00000018   Code   RO          426    i.PWC_REG_Unlock    hc32_ll.o
    0x00002078   0x00002078   0x000000f0   Code   RO         1186    i.SRAM_SetWaitCycle  hc32_ll_sram.o
    0x00002168   0x00002168   0x00000380   Code   RO          878    i.SetSysClockDiv    hc32_ll_clk.o
    0x000024e8   0x000024e8   0x00000158   Code   RO          879    i.SetSysClockSrc    hc32_ll_clk.o
    0x00002640   0x00002640   0x00000068   Code   RO          541    i.SmartCard_CalculateDiv  hc32_ll_usart.o
    0x000026a8   0x000026a8   0x000001d0   Code   RO          542    i.SmartCard_CalculateDivFraction  hc32_ll_usart.o
    0x00002878   0x00002878   0x00000174   Code   RO          543    i.SmartCard_CalculateDivInteger  hc32_ll_usart.o
    0x000029ec   0x000029ec   0x000000cc   Code   RO           13    i.SystemCoreClockUpdate  system_hc32f460.o
    0x00002ab8   0x00002ab8   0x00000020   Code   RO           14    i.SystemInit        system_hc32f460.o
    0x00002ad8   0x00002ad8   0x00000038   Code   RO          188    i.Task_LED_Entry    app_tast.o
    0x00002b10   0x00002b10   0x00000034   Code   RO          189    i.Task_Print_Entry  app_tast.o
    0x00002b44   0x00002b44   0x00000068   Code   RO          544    i.UART_CalculateDiv  hc32_ll_usart.o
    0x00002bac   0x00002bac   0x000001d8   Code   RO          545    i.UART_CalculateDivFraction  hc32_ll_usart.o
    0x00002d84   0x00002d84   0x00000158   Code   RO          546    i.UART_CalculateDivInteger  hc32_ll_usart.o
    0x00002edc   0x00002edc   0x000000b4   Code   RO          547    i.USART_ClearStatus  hc32_ll_usart.o
    0x00002f90   0x00002f90   0x000000c0   Code   RO          555    i.USART_FuncCmd     hc32_ll_usart.o
    0x00003050   0x00003050   0x0000001c   Code   RO          556    i.USART_GetBusClockFreq  hc32_ll_usart.o
    0x0000306c   0x0000306c   0x00000078   Code   RO          557    i.USART_GetClockDiv  hc32_ll_usart.o
    0x000030e4   0x000030e4   0x000000a0   Code   RO          559    i.USART_GetStatus   hc32_ll_usart.o
    0x00003184   0x00003184   0x00000016   Code   RO          560    i.USART_GetUsartClockDiv  hc32_ll_usart.o
    0x0000319a   0x0000319a   0x00000002   PAD
    0x0000319c   0x0000319c   0x0000008c   Code   RO          561    i.USART_GetUsartClockFreq  hc32_ll_usart.o
    0x00003228   0x00003228   0x00000074   Code   RO          564    i.USART_ReadData    hc32_ll_usart.o
    0x0000329c   0x0000329c   0x00000024   Code   RO          242    i.USART_RxError_IrqCallback  bsp_init.o
    0x000032c0   0x000032c0   0x00000014   Code   RO          243    i.USART_RxFull_IrqCallback  bsp_init.o
    0x000032d4   0x000032d4   0x00000120   Code   RO          565    i.USART_SetBaudrate  hc32_ll_usart.o
    0x000033f4   0x000033f4   0x000001f8   Code   RO          580    i.USART_UART_Init   hc32_ll_usart.o
    0x000035ec   0x000035ec   0x0000002e   Code   RO          582    i.USART_UART_StructInit  hc32_ll_usart.o
    0x0000361a   0x0000361a   0x00000002   PAD
    0x0000361c   0x0000361c   0x00000090   Code   RO          585    i.USART_WriteData   hc32_ll_usart.o
    0x000036ac   0x000036ac   0x00000094   Code   RO          244    i.Uart_Config       bsp_init.o
    0x00003740   0x00003740   0x00000020   Code   RO         3784    i.__0printf$3       mc_w.l(printf3.o)
    0x00003760   0x00003760   0x0000000e   Code   RO         4036    i.__scatterload_copy  mc_w.l(handlers.o)
    0x0000376e   0x0000376e   0x0000000e   Code   RO         4038    i.__scatterload_zeroinit  mc_w.l(handlers.o)
    0x0000377c   0x0000377c   0x000001b8   Code   RO         3791    i._printf_core      mc_w.l(printf3.o)
    0x00003934   0x00003934   0x00000018   Code   RO          245    i.fputc             bsp_init.o
    0x0000394c   0x0000394c   0x00000074   Code   RO           84    i.main              main.o
    0x000039c0   0x000039c0   0x00000098   Code   RO         3023    i.prvAddCurrentTaskToDelayedList  tasks.o
    0x00003a58   0x00003a58   0x000000b8   Code   RO         3024    i.prvAddNewTaskToReadyList  tasks.o
    0x00003b10   0x00003b10   0x00000064   Code   RO         3387    i.prvCheckForValidListAndQueue  timers.o
    0x00003b74   0x00003b74   0x00000048   Code   RO         3025    i.prvCheckTasksWaitingTermination  tasks.o
    0x00003bbc   0x00003bbc   0x0000002a   Code   RO         2646    i.prvCopyDataFromQueue  queue.o
    0x00003be6   0x00003be6   0x0000007e   Code   RO         2647    i.prvCopyDataToQueue  queue.o
    0x00003c64   0x00003c64   0x00000012   Code   RO         3026    i.prvDeleteTCB      tasks.o
    0x00003c76   0x00003c76   0x00000014   Code   RO         2648    i.prvGetDisinheritPriorityAfterTimeout  queue.o
    0x00003c8a   0x00003c8a   0x00000002   PAD
    0x00003c8c   0x00003c8c   0x00000028   Code   RO         3388    i.prvGetNextExpireTime  timers.o
    0x00003cb4   0x00003cb4   0x0000007c   Code   RO         3544    i.prvHeapInit       heap_4.o
    0x00003d30   0x00003d30   0x00000028   Code   RO         3027    i.prvIdleTask       tasks.o
    0x00003d58   0x00003d58   0x0000002a   Code   RO         2650    i.prvInitialiseNewQueue  queue.o
    0x00003d82   0x00003d82   0x000000be   Code   RO         3028    i.prvInitialiseNewTask  tasks.o
    0x00003e40   0x00003e40   0x00000068   Code   RO         3029    i.prvInitialiseTaskLists  tasks.o
    0x00003ea8   0x00003ea8   0x00000068   Code   RO         3545    i.prvInsertBlockIntoFreeList  heap_4.o
    0x00003f10   0x00003f10   0x00000058   Code   RO         3390    i.prvInsertTimerInActiveList  timers.o
    0x00003f68   0x00003f68   0x0000001a   Code   RO         2651    i.prvIsQueueEmpty   queue.o
    0x00003f82   0x00003f82   0x0000001e   Code   RO         2652    i.prvIsQueueFull    queue.o
    0x00003fa0   0x00003fa0   0x00000074   Code   RO         3391    i.prvProcessExpiredTimer  timers.o
    0x00004014   0x00004014   0x00000138   Code   RO         3392    i.prvProcessReceivedCommands  timers.o
    0x0000414c   0x0000414c   0x00000074   Code   RO         3393    i.prvProcessTimerOrBlockTask  timers.o
    0x000041c0   0x000041c0   0x00000030   Code   RO         3031    i.prvResetNextTaskUnblockTime  tasks.o
    0x000041f0   0x000041f0   0x0000002c   Code   RO         3394    i.prvSampleTimeNow  timers.o
    0x0000421c   0x0000421c   0x000000a4   Code   RO         3395    i.prvSwitchTimerLists  timers.o
    0x000042c0   0x000042c0   0x00000040   Code   RO         3600    i.prvTaskExitError  port.o
    0x00004300   0x00004300   0x0000001a   Code   RO         3396    i.prvTimerTask      timers.o
    0x0000431a   0x0000431a   0x0000007e   Code   RO         2653    i.prvUnlockQueue    queue.o
    0x00004398   0x00004398   0x0000014c   Code   RO         3546    i.pvPortMalloc      heap_4.o
    0x000044e4   0x000044e4   0x00000020   Code   RO         3034    i.pvTaskIncrementMutexHeldCount  tasks.o
    0x00004504   0x00004504   0x0000002c   Code   RO         3601    i.pxPortInitialiseStack  port.o
    0x00004530   0x00004530   0x00000190   Code   RO          317    i.test              test.o
    0x000046c0   0x000046c0   0x00000028   Code   RO         2606    i.uxListRemove      list.o
    0x000046e8   0x000046e8   0x0000001a   Code   RO         2607    i.vListInitialise   list.o
    0x00004702   0x00004702   0x00000006   Code   RO         2608    i.vListInitialiseItem  list.o
    0x00004708   0x00004708   0x00000034   Code   RO         2609    i.vListInsert       list.o
    0x0000473c   0x0000473c   0x00000018   Code   RO         2610    i.vListInsertEnd    list.o
    0x00004754   0x00004754   0x00000054   Code   RO         3603    i.vPortEnterCritical  port.o
    0x000047a8   0x000047a8   0x0000003c   Code   RO         3604    i.vPortExitCritical  port.o
    0x000047e4   0x000047e4   0x000000a4   Code   RO         3547    i.vPortFree         heap_4.o
    0x00004888   0x00004888   0x00000028   Code   RO         3605    i.vPortSetupTimerInterrupt  port.o
    0x000048b0   0x000048b0   0x00000078   Code   RO         3606    i.vPortValidateInterruptPriority  port.o
    0x00004928   0x00004928   0x0000002c   Code   RO         2659    i.vQueueAddToRegistry  queue.o
    0x00004954   0x00004954   0x0000004a   Code   RO         2663    i.vQueueWaitForMessageRestricted  queue.o
    0x0000499e   0x0000499e   0x00000002   PAD
    0x000049a0   0x000049a0   0x0000005c   Code   RO         3043    i.vTaskDelay        tasks.o
    0x000049fc   0x000049fc   0x000000f4   Code   RO         3045    i.vTaskDelete       tasks.o
    0x00004af0   0x00004af0   0x00000018   Code   RO         3049    i.vTaskInternalSetTimeOutState  tasks.o
    0x00004b08   0x00004b08   0x0000000c   Code   RO         3050    i.vTaskMissedYield  tasks.o
    0x00004b14   0x00004b14   0x00000038   Code   RO         3051    i.vTaskPlaceOnEventList  tasks.o
    0x00004b4c   0x00004b4c   0x00000040   Code   RO         3052    i.vTaskPlaceOnEventListRestricted  tasks.o
    0x00004b8c   0x00004b8c   0x000000e4   Code   RO         3054    i.vTaskPriorityDisinheritAfterTimeout  tasks.o
    0x00004c70   0x00004c70   0x00000094   Code   RO         3060    i.vTaskStartScheduler  tasks.o
    0x00004d04   0x00004d04   0x00000010   Code   RO         3062    i.vTaskSuspendAll   tasks.o
    0x00004d14   0x00004d14   0x0000008c   Code   RO         3063    i.vTaskSwitchContext  tasks.o
    0x00004da0   0x00004da0   0x00000168   Code   RO         3607    i.xPortStartScheduler  port.o
    0x00004f08   0x00004f08   0x00000034   Code   RO         3608    i.xPortSysTickHandler  port.o
    0x00004f3c   0x00004f3c   0x0000005c   Code   RO         2664    i.xQueueCreateCountingSemaphore  queue.o
    0x00004f98   0x00004f98   0x0000007c   Code   RO         2666    i.xQueueGenericCreate  queue.o
    0x00005014   0x00005014   0x00000098   Code   RO         2667    i.xQueueGenericReset  queue.o
    0x000050ac   0x000050ac   0x000001a8   Code   RO         2668    i.xQueueGenericSend  queue.o
    0x00005254   0x00005254   0x00000120   Code   RO         2669    i.xQueueGenericSendFromISR  queue.o
    0x00005374   0x00005374   0x00000168   Code   RO         2676    i.xQueueReceive     queue.o
    0x000054dc   0x000054dc   0x000001b8   Code   RO         2678    i.xQueueSemaphoreTake  queue.o
    0x00005694   0x00005694   0x00000090   Code   RO         3065    i.xTaskCheckForTimeOut  tasks.o
    0x00005724   0x00005724   0x00000060   Code   RO         3066    i.xTaskCreate       tasks.o
    0x00005784   0x00005784   0x00000020   Code   RO         3072    i.xTaskGetSchedulerState  tasks.o
    0x000057a4   0x000057a4   0x0000000c   Code   RO         3073    i.xTaskGetTickCount  tasks.o
    0x000057b0   0x000057b0   0x00000148   Code   RO         3075    i.xTaskIncrementTick  tasks.o
    0x000058f8   0x000058f8   0x000000bc   Code   RO         3076    i.xTaskPriorityDisinherit  tasks.o
    0x000059b4   0x000059b4   0x000000b8   Code   RO         3077    i.xTaskPriorityInherit  tasks.o
    0x00005a6c   0x00005a6c   0x00000098   Code   RO         3078    i.xTaskRemoveFromEventList  tasks.o
    0x00005b04   0x00005b04   0x00000104   Code   RO         3079    i.xTaskResumeAll    tasks.o
    0x00005c08   0x00005c08   0x00000058   Code   RO         3404    i.xTimerCreateTimerTask  timers.o
    0x00005c60   0x00005c60   0x00000084   Code   RO         3405    i.xTimerGenericCommand  timers.o
    0x00005ce4   0x00005ce4   0x00000020   Data   RO          587    .constdata          hc32_ll_usart.o
    0x00005d04   0x00005d04   0x00000020   Data   RO         4034    Region$$Table       anon$$obj.o


    Execution Region RW_IRAM1 (Exec base: 0x1fff8000, Load base: 0x00005d24, Size: 0x000152f0, Max: 0x0002f000, ABSOLUTE)

    Exec Addr    Load Addr    Size         Type   Attr      Idx    E Section Name        Object

    0x1fff8000   0x00005d24   0x00000010   Data   RW          190    .data               app_tast.o
    0x1fff8010   0x00005d34   0x0000007c   Data   RW          324    .data               test.o
    0x1fff808c   0x00005db0   0x0000003c   Data   RW         3082    .data               tasks.o
    0x1fff80c8   0x00005dec   0x00000014   Data   RW         3411    .data               timers.o
    0x1fff80dc   0x00005e00   0x00000020   Data   RW         3553    .data               heap_4.o
    0x1fff80fc   0x00005e20   0x0000000c   Data   RW         3609    .data               port.o
    0x1fff8108   0x00005e2c   0x00000004   Data   RW         4008    .data               mc_w.l(stdout.o)
    0x1fff810c        -       0x000002ac   Zero   RW          322    .bss                test.o
    0x1fff83b8        -       0x00000200   Zero   RW         1750    .bss                hc32_ll_interrupts.o
    0x1fff85b8        -       0x00000040   Zero   RW         2680    .bss                queue.o
    0x1fff85f8        -       0x000000c8   Zero   RW         3081    .bss                tasks.o
    0x1fff86c0        -       0x00000028   Zero   RW         3410    .bss                timers.o
    0x1fff86e8        -       0x00012c00   Zero   RW         3552    .bss                heap_4.o
    0x2000b2e8        -       0x00000008   Zero   RW           15    .bss.noinit         system_hc32f460.o
    0x2000b2f0        -       0x00002000   Zero   RW            1    STACK               startup_hc32f460.o


==============================================================================

Image component sizes


      Code (inc. data)   RO Data    RW Data    ZI Data      Debug   Object Name

       236         62          0         16          0       6643   app_tast.o
       644         54          0          0          0      36148   bsp_init.o
         0          0          0          0          0      13792   event_groups.o
       332         64          0          0          0      19902   hc32_ll.o
      2990        478          0          0          0      18934   hc32_ll_clk.o
       192         66          0          0          0        763   hc32_ll_efm.o
       140         60          0          0          0        725   hc32_ll_fcg.o
       368        114          0          0          0       4771   hc32_ll_gpio.o
         0          0         32          0          0        722   hc32_ll_icg.o
      2284        644          0          0        512      77573   hc32_ll_interrupts.o
       240         58          0          0          0        872   hc32_ll_sram.o
      4576       1114         32          0          0      22499   hc32_ll_usart.o
         4          0          0          0          0        596   hc32_ll_utility.o
       724         74          0         32      76800       4803   heap_4.o
       148          0          0          0          0       3662   list.o
       116         44          0          0          0      38931   main.o
      1014         92          0         12          0      11945   port.o
      2410         26          0          0         64      20188   queue.o
        88         20        640          0       8192        888   startup_hc32f460.o
       236         40          0          0          8     359633   system_hc32f460.o
      3260        420          0         60        200      32089   tasks.o
       400         46          0        124        684       1721   test.o
      1226        116          0         20         40      24259   timers.o

    ----------------------------------------------------------------------
     21644       3592        736        264      86500     702059   Object Totals
         0          0         32          0          0          0   (incl. Generated)
        16          0          0          0          0          0   (incl. Padding)

    ----------------------------------------------------------------------

      Code (inc. data)   RO Data    RW Data    ZI Data      Debug   Library Member Name

         0          0          0          0          0          0   entry.o
         0          0          0          0          0          0   entry10a.o
         0          0          0          0          0          0   entry11a.o
         4          0          0          0          0          0   entry12b.o
         8          4          0          0          0          0   entry2.o
         4          0          0          0          0          0   entry5.o
         0          0          0          0          0          0   entry7b.o
         0          0          0          0          0          0   entry8b.o
         8          4          0          0          0          0   entry9a.o
        30          0          0          0          0          0   handlers.o
        36          8          0          0          0         68   init.o
         0          0          0          0          0          0   iusefp.o
        30          0          0          0          0         68   llshl.o
        32          0          0          0          0         68   llushr.o
        36          0          0          0          0         68   memcpya.o
        36          0          0          0          0        108   memseta.o
       472         14          0          0          0        184   printf3.o
         0          0          0          4          0          0   stdout.o
        44          0          0          0          0         80   uidiv.o
        98          0          0          0          0         92   uldiv.o
        56          0          0          0          0         88   d2f.o
       222          0          0          0          0        100   ddiv.o
       186          0          0          0          0        176   depilogue.o
        26          0          0          0          0         76   dfltui.o
        24          0          0          0          0         76   dfltul.o
       110          0          0          0          0        168   fepilogue.o

    ----------------------------------------------------------------------
      1464         30          0          4          0       1420   Library Totals
         2          0          0          0          0          0   (incl. Padding)

    ----------------------------------------------------------------------

      Code (inc. data)   RO Data    RW Data    ZI Data      Debug   Library Name

       838         30          0          4          0        736   mc_w.l
       624          0          0          0          0        684   mf_w.l

    ----------------------------------------------------------------------
      1464         30          0          4          0       1420   Library Totals

    ----------------------------------------------------------------------

==============================================================================


      Code (inc. data)   RO Data    RW Data    ZI Data      Debug   

     23108       3622        736        268      86500     677307   Grand Totals
     23108       3622        736        268      86500     677307   ELF Image Totals
     23108       3622        736        268          0          0   ROM Totals

==============================================================================

    Total RO  Size (Code + RO Data)                23844 (  23.29kB)
    Total RW  Size (RW Data + ZI Data)             86768 (  84.73kB)
    Total ROM Size (Code + RO Data + RW Data)      24112 (  23.55kB)

==============================================================================

